{"abi":[{"type":"constructor","inputs":[{"name":"_modelRegistry","type":"address","internalType":"address"}],"stateMutability":"nonpayable"},{"type":"function","name":"PLATFORM_FEE_PERCENT","inputs":[],"outputs":[{"name":"","type":"uint256","internalType":"uint256"}],"stateMutability":"view"},{"type":"function","name":"cancelCompetition","inputs":[{"name":"competitionId","type":"uint256","internalType":"uint256"}],"outputs":[],"stateMutability":"nonpayable"},{"type":"function","name":"competitionCount","inputs":[],"outputs":[{"name":"","type":"uint256","internalType":"uint256"}],"stateMutability":"view"},{"type":"function","name":"competitionScores","inputs":[{"name":"","type":"uint256","internalType":"uint256"},{"name":"","type":"uint256","internalType":"uint256"}],"outputs":[{"name":"modelId","type":"uint256","internalType":"uint256"},{"name":"correctPredictions","type":"uint256","internalType":"uint256"},{"name":"totalPredictions","type":"uint256","internalType":"uint256"},{"name":"totalPnL","type":"int256","internalType":"int256"},{"name":"finalScore","type":"uint256","internalType":"uint256"}],"stateMutability":"view"},{"type":"function","name":"competitions","inputs":[{"name":"","type":"uint256","internalType":"uint256"}],"outputs":[{"name":"id","type":"uint256","internalType":"uint256"},{"name":"name","type":"string","internalType":"string"},{"name":"startTime","type":"uint256","internalType":"uint256"},{"name":"endTime","type":"uint256","internalType":"uint256"},{"name":"entryFee","type":"uint256","internalType":"uint256"},{"name":"prizePool","type":"uint256","internalType":"uint256"},{"name":"status","type":"uint8","internalType":"enum AITradingCompetition.CompetitionStatus"},{"name":"winnerModelId","type":"uint256","internalType":"uint256"},{"name":"totalParticipants","type":"uint256","internalType":"uint256"}],"stateMutability":"view"},{"type":"function","name":"completeCompetition","inputs":[{"name":"competitionId","type":"uint256","internalType":"uint256"}],"outputs":[],"stateMutability":"nonpayable"},{"type":"function","name":"createCompetition","inputs":[{"name":"name","type":"string","internalType":"string"},{"name":"startTime","type":"uint256","internalType":"uint256"},{"name":"duration","type":"uint256","internalType":"uint256"},{"name":"entryFee","type":"uint256","internalType":"uint256"}],"outputs":[{"name":"","type":"uint256","internalType":"uint256"}],"stateMutability":"nonpayable"},{"type":"function","name":"enterCompetition","inputs":[{"name":"competitionId","type":"uint256","internalType":"uint256"},{"name":"modelId","type":"uint256","internalType":"uint256"}],"outputs":[],"stateMutability":"payable"},{"type":"function","name":"getActiveCompetitions","inputs":[],"outputs":[{"name":"activeIds","type":"uint256[]","internalType":"uint256[]"}],"stateMutability":"view"},{"type":"function","name":"getCompetition","inputs":[{"name":"competitionId","type":"uint256","internalType":"uint256"}],"outputs":[{"name":"","type":"tuple","internalType":"struct AITradingCompetition.Competition","components":[{"name":"id","type":"uint256","internalType":"uint256"},{"name":"name","type":"string","internalType":"string"},{"name":"startTime","type":"uint256","internalType":"uint256"},{"name":"endTime","type":"uint256","internalType":"uint256"},{"name":"entryFee","type":"uint256","internalType":"uint256"},{"name":"prizePool","type":"uint256","internalType":"uint256"},{"name":"status","type":"uint8","internalType":"enum AITradingCompetition.CompetitionStatus"},{"name":"participantModels","type":"uint256[]","internalType":"uint256[]"},{"name":"winnerModelId","type":"uint256","internalType":"uint256"},{"name":"totalParticipants","type":"uint256","internalType":"uint256"}]}],"stateMutability":"view"},{"type":"function","name":"getLeaderboard","inputs":[{"name":"competitionId","type":"uint256","internalType":"uint256"}],"outputs":[{"name":"modelIds","type":"uint256[]","internalType":"uint256[]"},{"name":"scores","type":"uint256[]","internalType":"uint256[]"}],"stateMutability":"view"},{"type":"function","name":"getModelScore","inputs":[{"name":"competitionId","type":"uint256","internalType":"uint256"},{"name":"modelId","type":"uint256","internalType":"uint256"}],"outputs":[{"name":"correctPredictions","type":"uint256","internalType":"uint256"},{"name":"totalPredictions","type":"uint256","internalType":"uint256"},{"name":"totalPnL","type":"int256","internalType":"int256"},{"name":"finalScore","type":"uint256","internalType":"uint256"}],"stateMutability":"view"},{"type":"function","name":"hasEntered","inputs":[{"name":"","type":"uint256","internalType":"uint256"},{"name":"","type":"uint256","internalType":"uint256"}],"outputs":[{"name":"","type":"bool","internalType":"bool"}],"stateMutability":"view"},{"type":"function","name":"modelRegistry","inputs":[],"outputs":[{"name":"","type":"address","internalType":"contract AIModelRegistry"}],"stateMutability":"view"},{"type":"function","name":"owner","inputs":[],"outputs":[{"name":"","type":"address","internalType":"address"}],"stateMutability":"view"},{"type":"function","name":"recordPrediction","inputs":[{"name":"competitionId","type":"uint256","internalType":"uint256"},{"name":"modelId","type":"uint256","internalType":"uint256"},{"name":"wasCorrect","type":"bool","internalType":"bool"},{"name":"pnl","type":"int256","internalType":"int256"}],"outputs":[],"stateMutability":"nonpayable"},{"type":"function","name":"renounceOwnership","inputs":[],"outputs":[],"stateMutability":"nonpayable"},{"type":"function","name":"startCompetition","inputs":[{"name":"competitionId","type":"uint256","internalType":"uint256"}],"outputs":[],"stateMutability":"nonpayable"},{"type":"function","name":"transferOwnership","inputs":[{"name":"newOwner","type":"address","internalType":"address"}],"outputs":[],"stateMutability":"nonpayable"},{"type":"event","name":"CompetitionCompleted","inputs":[{"name":"competitionId","type":"uint256","indexed":true,"internalType":"uint256"},{"name":"winnerModelId","type":"uint256","indexed":true,"internalType":"uint256"},{"name":"prize","type":"uint256","indexed":false,"internalType":"uint256"}],"anonymous":false},{"type":"event","name":"CompetitionCreated","inputs":[{"name":"competitionId","type":"uint256","indexed":true,"internalType":"uint256"},{"name":"name","type":"string","indexed":false,"internalType":"string"},{"name":"startTime","type":"uint256","indexed":false,"internalType":"uint256"},{"name":"endTime","type":"uint256","indexed":false,"internalType":"uint256"}],"anonymous":false},{"type":"event","name":"ModelEntered","inputs":[{"name":"competitionId","type":"uint256","indexed":true,"internalType":"uint256"},{"name":"modelId","type":"uint256","indexed":true,"internalType":"uint256"},{"name":"owner","type":"address","indexed":true,"internalType":"address"}],"anonymous":false},{"type":"event","name":"OwnershipTransferred","inputs":[{"name":"previousOwner","type":"address","indexed":true,"internalType":"address"},{"name":"newOwner","type":"address","indexed":true,"internalType":"address"}],"anonymous":false},{"type":"event","name":"PredictionMade","inputs":[{"name":"competitionId","type":"uint256","indexed":true,"internalType":"uint256"},{"name":"modelId","type":"uint256","indexed":true,"internalType":"uint256"},{"name":"prediction","type":"bytes","indexed":false,"internalType":"bytes"}],"anonymous":false},{"type":"error","name":"OwnableInvalidOwner","inputs":[{"name":"owner","type":"address","internalType":"address"}]},{"type":"error","name":"OwnableUnauthorizedAccount","inputs":[{"name":"account","type":"address","internalType":"address"}]},{"type":"error","name":"ReentrancyGuardReentrantCall","inputs":[]}],"bytecode":{"object":"0x608060405234801562000010575f80fd5b506040516200229e3803806200229e8339810160408190526200003391620000fe565b33806200005957604051631e4fbdf760e01b81525f600482015260240160405180910390fd5b6200006481620000af565b5060017f9b779b17422d0df92223018b32b4d1fa46e071723d6817e2486d003becc55f0055600180546001600160a01b0319166001600160a01b03929092169190911790556200012d565b5f80546001600160a01b038381166001600160a01b0319831681178455604051919092169283917f8be0079c531659141344cd1fd0a4f28419497f9722a3daafe3b4186f6b6457e09190a35050565b5f602082840312156200010f575f80fd5b81516001600160a01b038116811462000126575f80fd5b9392505050565b612163806200013b5f395ff3fe608060405260043610610110575f3560e01c8063a16817701161009d578063d28a0f5c11610062578063d28a0f5c146103c4578063e08342ba146103e3578063e9360096146103f6578063f2fde38b14610415578063f403646614610434575f80fd5b8063a1681770146102fb578063a34b46fe14610310578063af5af7841461033d578063b26378f914610386578063bed64506146103a5575f80fd5b80633713f1df116100e35780633713f1df14610254578063560d52d414610275578063715018a6146102975780638da5cb5b146102ab5780639f6828d9146102c7575f80fd5b80631736fc221461011457806320336f25146101925780632726054c146101b35780632ba36f781461021d575b5f80fd5b34801561011f575f80fd5b5061016561012e366004611a5f565b600360208181525f938452604080852090915291835291208054600182015460028301549383015460049093015491939092909185565b604080519586526020860194909452928401919091526060830152608082015260a0015b60405180910390f35b34801561019d575f80fd5b506101b16101ac366004611a7f565b610460565b005b3480156101be575f80fd5b506101fd6101cd366004611a5f565b5f918252600360208181526040808520938552929052912060018101546002820154928201546004909201549093565b604080519485526020850193909352918301526060820152608001610189565b348015610228575f80fd5b5060015461023c906001600160a01b031681565b6040516001600160a01b039091168152602001610189565b34801561025f575f80fd5b50610268610733565b6040516101899190611ad0565b348015610280575f80fd5b50610289600a81565b604051908152602001610189565b3480156102a2575f80fd5b506101b1610898565b3480156102b6575f80fd5b505f546001600160a01b031661023c565b3480156102d2575f80fd5b506102e66102e1366004611a7f565b6108ab565b60405161018999989796959493929190611b6a565b348015610306575f80fd5b5061028960055481565b34801561031b575f80fd5b5061032f61032a366004611a7f565b61097e565b604051610189929190611bc3565b348015610348575f80fd5b50610376610357366004611a5f565b600460209081525f928352604080842090915290825290205460ff1681565b6040519015158152602001610189565b348015610391575f80fd5b506101b16103a0366004611bf0565b610c1b565b3480156103b0575f80fd5b506102896103bf366004611c9c565b610e90565b3480156103cf575f80fd5b506101b16103de366004611a7f565b6110ca565b6101b16103f1366004611a5f565b6111b7565b348015610401575f80fd5b506101b1610410366004611a7f565b611580565b348015610420575f80fd5b506101b161042f366004611d3d565b61171d565b34801561043f575f80fd5b5061045361044e366004611a7f565b611757565b6040516101899190611d58565b6104686118e1565b5f8181526002602052604090206001600682015460ff16600381111561049057610490611b36565b146104cf5760405162461bcd60e51b815260206004820152600a6024820152694e6f742061637469766560b01b60448201526064015b60405180910390fd5b806003015442101561050f5760405162461bcd60e51b8152602060048201526009602482015268139bdd08195b99195960ba1b60448201526064016104c6565b5f805f5b6007840154811015610576575f84600701828154811061053557610535611df9565b5f9182526020808320909101548883526003825260408084208285529092529120600401549091508381111561056c578093508194505b5050600101610513565b505f82116105b25760405162461bcd60e51b81526020600482015260096024820152682737903bb4b73732b960b91b60448201526064016104c6565b6008830182905560068301805460ff1916600217905560058301545f906064906105de90600a90611e21565b6105e89190611e3e565b90505f8185600501546105fb9190611e5d565b6001546040516331a9108f60e11b8152600481018790529192505f916001600160a01b0390911690636352211e90602401602060405180830381865afa158015610647573d5f803e3d5ffd5b505050506040513d601f19601f8201168201806040525081019061066b9190611e70565b6040519091506001600160a01b0382169083156108fc029084905f818181858888f193505050501580156106a1573d5f803e3d5ffd5b505f80546040516001600160a01b039091169185156108fc02918691818181858888f193505050501580156106d8573d5f803e3d5ffd5b5084877f883529243bb8b1dbfca7c052efa8642d1d769b416e65e7150e939ed1146aa4398460405161070c91815260200190565b60405180910390a350505050505061073060015f8051602061210e83398151915255565b50565b60605f805b6005548110156107b25760015f8281526002602052604090206006015460ff16600381111561076957610769611b36565b148061079757505f8181526002602052604081206006015460ff16600381111561079557610795611b36565b145b156107aa57816107a681611e8b565b9250505b600101610738565b508067ffffffffffffffff8111156107cc576107cc611c30565b6040519080825280602002602001820160405280156107f5578160200160208202803683370190505b5091505f805b6005548110156108925760015f8281526002602052604090206006015460ff16600381111561082c5761082c611b36565b148061085a57505f8181526002602052604081206006015460ff16600381111561085857610858611b36565b145b1561088a5780848361086b81611e8b565b94508151811061087d5761087d611df9565b6020026020010181815250505b6001016107fb565b50505090565b6108a06118fc565b6108a95f611928565b565b60026020525f9081526040902080546001820180549192916108cc90611ea3565b80601f01602080910402602001604051908101604052809291908181526020018280546108f890611ea3565b80156109435780601f1061091a57610100808354040283529160200191610943565b820191905f5260205f20905b81548152906001019060200180831161092657829003601f168201915b505050600284015460038501546004860154600587015460068801546008890154600990990154979894979396509194509260ff9091169189565b5f818152600260205260409020600781015460609182918067ffffffffffffffff8111156109ae576109ae611c30565b6040519080825280602002602001820160405280156109d7578160200160208202803683370190505b5093508067ffffffffffffffff8111156109f3576109f3611c30565b604051908082528060200260200182016040528015610a1c578160200160208202803683370190505b5092505f5b81811015610ac757826007018181548110610a3e57610a3e611df9565b905f5260205f200154858281518110610a5957610a59611df9565b60200260200101818152505060035f8781526020019081526020015f205f868381518110610a8957610a89611df9565b602002602001015181526020019081526020015f2060040154848281518110610ab457610ab4611df9565b6020908102919091010152600101610a21565b505f5b81811015610c13575f610ade826001611edb565b90505b82811015610c0a57848281518110610afb57610afb611df9565b6020026020010151858281518110610b1557610b15611df9565b60200260200101511115610c0257848181518110610b3557610b35611df9565b6020026020010151858381518110610b4f57610b4f611df9565b6020026020010151868481518110610b6957610b69611df9565b60200260200101878481518110610b8257610b82611df9565b6020026020010182815250828152505050858181518110610ba557610ba5611df9565b6020026020010151868381518110610bbf57610bbf611df9565b6020026020010151878481518110610bd957610bd9611df9565b60200260200101888481518110610bf257610bf2611df9565b6020908102919091010191909152525b600101610ae1565b50600101610aca565b505050915091565b5f8481526002602052604090206001600682015460ff166003811115610c4357610c43611b36565b14610c7d5760405162461bcd60e51b815260206004820152600a6024820152694e6f742061637469766560b01b60448201526064016104c6565b5f85815260046020908152604080832087845290915290205460ff16610ce55760405162461bcd60e51b815260206004820152601860248201527f4d6f64656c206e6f7420696e20636f6d7065746974696f6e000000000000000060448201526064016104c6565b5f546001600160a01b0316331480610d7857506001546040516331a9108f60e11b8152600481018690526001600160a01b0390911690636352211e90602401602060405180830381865afa158015610d3f573d5f803e3d5ffd5b505050506040513d601f19601f82011682018060405250810190610d639190611e70565b6001600160a01b0316336001600160a01b0316145b610db55760405162461bcd60e51b815260206004820152600e60248201526d139bdd08185d5d1a1bdc9a5e995960921b60448201526064016104c6565b5f85815260036020908152604080832087845290915281206002810180549192610dde83611e8b565b91905055508315610e0057600181018054905f610dfa83611e8b565b91905055505b82816003015f828254610e139190611eee565b909155505060028101545f90610e29575f610e49565b60028201546001830154610e3f90611770611e21565b610e499190611e3e565b90505f8083600301541315610e74576003830154610fa08111610e6c5780610e70565b610fa05b9150505b610e7e8183611edb565b83600401819055505050505050505050565b5f610e996118fc565b428411610ee85760405162461bcd60e51b815260206004820152601960248201527f53746172742074696d65206d757374206265206675747572650000000000000060448201526064016104c6565b5f8311610f2a5760405162461bcd60e51b815260206004820152601060248201526f24b73b30b634b210323ab930ba34b7b760811b60448201526064016104c6565b600580545f9182610f3a83611e8b565b9190505590506040518061014001604052808281526020018781526020018681526020018587610f6a9190611edb565b81526020018481526020015f81526020015f6003811115610f8d57610f8d611b36565b81526020015f604051908082528060200260200182016040528015610fbc578160200160208202803683370190505b5081525f602080830182905260409283018290528482526002815291902082518155908201516001820190610ff19082611f61565b5060408201518160020155606082015181600301556080820151816004015560a0820151816005015560c0820151816006015f6101000a81548160ff0219169083600381111561104357611043611b36565b021790555060e082015180516110639160078401916020909101906119a6565b50610100820151600882015561012090910151600990910155807fa395527f22c2ebd132d3004e6667ce1e527353fbf850c0fd0515fd518ec9160487876110aa8882611edb565b6040516110b993929190612021565b60405180910390a295945050505050565b5f81815260026020526040812090600682015460ff1660038111156110f1576110f1611b36565b1461110e5760405162461bcd60e51b81526004016104c690612045565b80600201544210156111515760405162461bcd60e51b815260206004820152600c60248201526b4e6f74207965742074696d6560a01b60448201526064016104c6565b6002816009015410156111a65760405162461bcd60e51b815260206004820152601c60248201527f4e656564206174206c656173742032207061727469636970616e74730000000060448201526064016104c6565b600601805460ff1916600117905550565b6111bf6118e1565b5f82815260026020526040812090600682015460ff1660038111156111e6576111e6611b36565b1461122b5760405162461bcd60e51b81526020600482015260156024820152744e6f7420616363657074696e6720656e747269657360581b60448201526064016104c6565b8060020154421061124e5760405162461bcd60e51b81526004016104c690612045565b806004015434101561129b5760405162461bcd60e51b8152602060048201526016602482015275496e73756666696369656e7420656e7472792066656560501b60448201526064016104c6565b5f83815260046020908152604080832085845290915290205460ff16156112f65760405162461bcd60e51b815260206004820152600f60248201526e105b1c9958591e48195b9d195c9959608a1b60448201526064016104c6565b6001546040516331a9108f60e11b8152600481018490525f916001600160a01b031690636352211e90602401602060405180830381865afa15801561133d573d5f803e3d5ffd5b505050506040513d601f19601f820116820180604052508101906113619190611e70565b90506001600160a01b03811633146113ad5760405162461bcd60e51b815260206004820152600f60248201526e2737ba1036b7b232b61037bbb732b960891b60448201526064016104c6565b600154604051631df6cddd60e31b8152600481018590525f916001600160a01b03169063efb66ee8906024015f60405180830381865afa1580156113f3573d5f803e3d5ffd5b505050506040513d5f823e601f3d908101601f1916820160405261141a919081019061206e565b509350505050600a8110156114715760405162461bcd60e51b815260206004820152601960248201527f496e73756666696369656e7420747261636b207265636f72640000000000000060448201526064016104c6565b6007830180546001810182555f918252602082200185905560058401805434929061149d908490611edb565b9091555050600983018054905f6114b383611e8b565b90915550505f8581526004602081815260408084208885528252808420805460ff19166001908117909155815160a08101835289815280840186815281840187815260608301888152608084018981528e8a526003808952878b208f8c52909852868a2094518555925194840194909455516002830155915193810193909355519190920155513391869188917ff6a2435e3882c4b7cd388d79489aae830a44aebee070864cfe3985799d5751b791a450505061157c60015f8051602061210e83398151915255565b5050565b6115886118fc565b6115906118e1565b5f81815260026020526040812090600682015460ff1660038111156115b7576115b7611b36565b146115f45760405162461bcd60e51b815260206004820152600d60248201526c10d85b9b9bdd0818d85b98d95b609a1b60448201526064016104c6565b806002015442106116175760405162461bcd60e51b81526004016104c690612045565b60068101805460ff191660031790555f5b6007820154811015611705575f82600701828154811061164a5761164a611df9565b5f9182526020822001546001546040516331a9108f60e11b8152600481018390529193506001600160a01b031690636352211e90602401602060405180830381865afa15801561169c573d5f803e3d5ffd5b505050506040513d601f19601f820116820180604052508101906116c09190611e70565b60048501546040519192506001600160a01b0383169181156108fc0291905f818181858888f193505050501580156116fa573d5f803e3d5ffd5b505050600101611628565b505061073060015f8051602061210e83398151915255565b6117256118fc565b6001600160a01b03811661174e57604051631e4fbdf760e01b81525f60048201526024016104c6565b61073081611928565b61175f6119ef565b60025f8381526020019081526020015f20604051806101400160405290815f820154815260200160018201805461179590611ea3565b80601f01602080910402602001604051908101604052809291908181526020018280546117c190611ea3565b801561180c5780601f106117e35761010080835404028352916020019161180c565b820191905f5260205f20905b8154815290600101906020018083116117ef57829003601f168201915b50505091835250506002820154602082015260038083015460408301526004830154606083015260058301546080830152600683015460a09092019160ff169081111561185b5761185b611b36565b600381111561186c5761186c611b36565b8152602001600782018054806020026020016040519081016040528092919081815260200182805480156118bd57602002820191905f5260205f20905b8154815260200190600101908083116118a9575b50505050508152602001600882015481526020016009820154815250509050919050565b6118e9611977565b60025f8051602061210e83398151915255565b5f546001600160a01b031633146108a95760405163118cdaa760e01b81523360048201526024016104c6565b5f80546001600160a01b038381166001600160a01b0319831681178455604051919092169283917f8be0079c531659141344cd1fd0a4f28419497f9722a3daafe3b4186f6b6457e09190a35050565b5f8051602061210e833981519152546002036108a957604051633ee5aeb560e01b815260040160405180910390fd5b828054828255905f5260205f209081019282156119df579160200282015b828111156119df5782518255916020019190600101906119c4565b506119eb929150611a4b565b5090565b6040518061014001604052805f8152602001606081526020015f81526020015f81526020015f81526020015f81526020015f6003811115611a3257611a32611b36565b8152602001606081526020015f81526020015f81525090565b5b808211156119eb575f8155600101611a4c565b5f8060408385031215611a70575f80fd5b50508035926020909101359150565b5f60208284031215611a8f575f80fd5b5035919050565b5f815180845260208085019450602084015f5b83811015611ac557815187529582019590820190600101611aa9565b509495945050505050565b602081525f611ae26020830184611a96565b9392505050565b5f5b83811015611b03578181015183820152602001611aeb565b50505f910152565b5f8151808452611b22816020860160208601611ae9565b601f01601f19169290920160200192915050565b634e487b7160e01b5f52602160045260245ffd5b60048110611b6657634e487b7160e01b5f52602160045260245ffd5b9052565b5f6101208b8352806020840152611b838184018c611b0b565b9150508860408301528760608301528660808301528560a0830152611bab60c0830186611b4a565b60e08201939093526101000152979650505050505050565b604081525f611bd56040830185611a96565b8281036020840152611be78185611a96565b95945050505050565b5f805f8060808587031215611c03575f80fd5b843593506020850135925060408501358015158114611c20575f80fd5b9396929550929360600135925050565b634e487b7160e01b5f52604160045260245ffd5b604051601f8201601f1916810167ffffffffffffffff81118282101715611c6d57611c6d611c30565b604052919050565b5f67ffffffffffffffff821115611c8e57611c8e611c30565b50601f01601f191660200190565b5f805f8060808587031215611caf575f80fd5b843567ffffffffffffffff811115611cc5575f80fd5b8501601f81018713611cd5575f80fd5b8035611ce8611ce382611c75565b611c44565b818152886020838501011115611cfc575f80fd5b816020840160208301375f6020928201830152989087013597506040870135966060013595509350505050565b6001600160a01b0381168114610730575f80fd5b5f60208284031215611d4d575f80fd5b8135611ae281611d29565b60208152815160208201525f6020830151610140806040850152611d80610160850183611b0b565b91506040850151606085015260608501516080850152608085015160a085015260a085015160c085015260c0850151611dbc60e0860182611b4a565b5060e0850151610100601f198685030181870152611dda8483611a96565b9087015161012087810191909152909601519190940152509192915050565b634e487b7160e01b5f52603260045260245ffd5b634e487b7160e01b5f52601160045260245ffd5b8082028115828204841417611e3857611e38611e0d565b92915050565b5f82611e5857634e487b7160e01b5f52601260045260245ffd5b500490565b81810381811115611e3857611e38611e0d565b5f60208284031215611e80575f80fd5b8151611ae281611d29565b5f60018201611e9c57611e9c611e0d565b5060010190565b600181811c90821680611eb757607f821691505b602082108103611ed557634e487b7160e01b5f52602260045260245ffd5b50919050565b80820180821115611e3857611e38611e0d565b8082018281125f831280158216821582161715611f0d57611f0d611e0d565b505092915050565b601f821115611f5c57805f5260205f20601f840160051c81016020851015611f3a5750805b601f840160051c820191505b81811015611f59575f8155600101611f46565b50505b505050565b815167ffffffffffffffff811115611f7b57611f7b611c30565b611f8f81611f898454611ea3565b84611f15565b602080601f831160018114611fc2575f8415611fab5750858301515b5f19600386901b1c1916600185901b178555612019565b5f85815260208120601f198616915b82811015611ff057888601518255948401946001909101908401611fd1565b508582101561200d57878501515f19600388901b60f8161c191681555b505060018460011b0185555b505050505050565b606081525f6120336060830186611b0b565b60208301949094525060400152919050565b6020808252600f908201526e105b1c9958591e481cdd185c9d1959608a1b604082015260600190565b5f805f805f60a08688031215612082575f80fd5b855161208d81611d29565b602087015190955067ffffffffffffffff8111156120a9575f80fd5b8601601f810188136120b9575f80fd5b80516120c7611ce382611c75565b8181528960208385010111156120db575f80fd5b6120ec826020830160208601611ae9565b604089015160608a01516080909a0151989b919a509897965094505050505056fe9b779b17422d0df92223018b32b4d1fa46e071723d6817e2486d003becc55f00a26469706673582212203f1c6db1f222165a602a83e54314f6aae682bd9c503e3db8cfb1d1fb625b6db564736f6c63430008180033","linkReferences":{}},"methodIdentifiers":{"PLATFORM_FEE_PERCENT()":"560d52d4","cancelCompetition(uint256)":"e9360096","competitionCount()":"a1681770","competitionScores(uint256,uint256)":"1736fc22","competitions(uint256)":"9f6828d9","completeCompetition(uint256)":"20336f25","createCompetition(string,uint256,uint256,uint256)":"bed64506","enterCompetition(uint256,uint256)":"e08342ba","getActiveCompetitions()":"3713f1df","getCompetition(uint256)":"f4036466","getLeaderboard(uint256)":"a34b46fe","getModelScore(uint256,uint256)":"2726054c","hasEntered(uint256,uint256)":"af5af784","modelRegistry()":"2ba36f78","owner()":"8da5cb5b","recordPrediction(uint256,uint256,bool,int256)":"b26378f9","renounceOwnership()":"715018a6","startCompetition(uint256)":"d28a0f5c","transferOwnership(address)":"f2fde38b"},"id":42}