{"abi":[{"type":"constructor","inputs":[{"name":"_modelRegistry","type":"address","internalType":"address"}],"stateMutability":"nonpayable"},{"type":"function","name":"PLATFORM_FEE_PERCENT","inputs":[],"outputs":[{"name":"","type":"uint256","internalType":"uint256"}],"stateMutability":"view"},{"type":"function","name":"canCompleteCompetition","inputs":[{"name":"competitionId","type":"uint256","internalType":"uint256"}],"outputs":[{"name":"","type":"bool","internalType":"bool"}],"stateMutability":"view"},{"type":"function","name":"canStartCompetition","inputs":[{"name":"competitionId","type":"uint256","internalType":"uint256"}],"outputs":[{"name":"","type":"bool","internalType":"bool"}],"stateMutability":"view"},{"type":"function","name":"cancelCompetition","inputs":[{"name":"competitionId","type":"uint256","internalType":"uint256"}],"outputs":[],"stateMutability":"nonpayable"},{"type":"function","name":"competitionCount","inputs":[],"outputs":[{"name":"","type":"uint256","internalType":"uint256"}],"stateMutability":"view"},{"type":"function","name":"competitionScores","inputs":[{"name":"","type":"uint256","internalType":"uint256"},{"name":"","type":"uint256","internalType":"uint256"}],"outputs":[{"name":"modelId","type":"uint256","internalType":"uint256"},{"name":"correctPredictions","type":"uint256","internalType":"uint256"},{"name":"totalPredictions","type":"uint256","internalType":"uint256"},{"name":"totalPnL","type":"int256","internalType":"int256"},{"name":"finalScore","type":"uint256","internalType":"uint256"}],"stateMutability":"view"},{"type":"function","name":"competitions","inputs":[{"name":"","type":"uint256","internalType":"uint256"}],"outputs":[{"name":"id","type":"uint256","internalType":"uint256"},{"name":"name","type":"string","internalType":"string"},{"name":"startTime","type":"uint256","internalType":"uint256"},{"name":"endTime","type":"uint256","internalType":"uint256"},{"name":"entryFee","type":"uint256","internalType":"uint256"},{"name":"prizePool","type":"uint256","internalType":"uint256"},{"name":"status","type":"uint8","internalType":"enum AITradingCompetition.CompetitionStatus"},{"name":"winnerModelId","type":"uint256","internalType":"uint256"},{"name":"totalParticipants","type":"uint256","internalType":"uint256"}],"stateMutability":"view"},{"type":"function","name":"completeCompetition","inputs":[{"name":"competitionId","type":"uint256","internalType":"uint256"}],"outputs":[],"stateMutability":"nonpayable"},{"type":"function","name":"createCompetition","inputs":[{"name":"name","type":"string","internalType":"string"},{"name":"startTime","type":"uint256","internalType":"uint256"},{"name":"duration","type":"uint256","internalType":"uint256"},{"name":"entryFee","type":"uint256","internalType":"uint256"}],"outputs":[{"name":"","type":"uint256","internalType":"uint256"}],"stateMutability":"nonpayable"},{"type":"function","name":"enterCompetition","inputs":[{"name":"competitionId","type":"uint256","internalType":"uint256"},{"name":"modelId","type":"uint256","internalType":"uint256"}],"outputs":[],"stateMutability":"payable"},{"type":"function","name":"getActiveCompetitions","inputs":[],"outputs":[{"name":"activeIds","type":"uint256[]","internalType":"uint256[]"}],"stateMutability":"view"},{"type":"function","name":"getCompetition","inputs":[{"name":"competitionId","type":"uint256","internalType":"uint256"}],"outputs":[{"name":"","type":"tuple","internalType":"struct AITradingCompetition.Competition","components":[{"name":"id","type":"uint256","internalType":"uint256"},{"name":"name","type":"string","internalType":"string"},{"name":"startTime","type":"uint256","internalType":"uint256"},{"name":"endTime","type":"uint256","internalType":"uint256"},{"name":"entryFee","type":"uint256","internalType":"uint256"},{"name":"prizePool","type":"uint256","internalType":"uint256"},{"name":"status","type":"uint8","internalType":"enum AITradingCompetition.CompetitionStatus"},{"name":"participantModels","type":"uint256[]","internalType":"uint256[]"},{"name":"winnerModelId","type":"uint256","internalType":"uint256"},{"name":"totalParticipants","type":"uint256","internalType":"uint256"}]}],"stateMutability":"view"},{"type":"function","name":"getCompetitionParticipants","inputs":[{"name":"competitionId","type":"uint256","internalType":"uint256"}],"outputs":[{"name":"modelIds","type":"uint256[]","internalType":"uint256[]"},{"name":"owners","type":"address[]","internalType":"address[]"}],"stateMutability":"view"},{"type":"function","name":"getLeaderboard","inputs":[{"name":"competitionId","type":"uint256","internalType":"uint256"}],"outputs":[{"name":"modelIds","type":"uint256[]","internalType":"uint256[]"},{"name":"scores","type":"uint256[]","internalType":"uint256[]"}],"stateMutability":"view"},{"type":"function","name":"getModelScore","inputs":[{"name":"competitionId","type":"uint256","internalType":"uint256"},{"name":"modelId","type":"uint256","internalType":"uint256"}],"outputs":[{"name":"correctPredictions","type":"uint256","internalType":"uint256"},{"name":"totalPredictions","type":"uint256","internalType":"uint256"},{"name":"totalPnL","type":"int256","internalType":"int256"},{"name":"finalScore","type":"uint256","internalType":"uint256"}],"stateMutability":"view"},{"type":"function","name":"hasEntered","inputs":[{"name":"","type":"uint256","internalType":"uint256"},{"name":"","type":"uint256","internalType":"uint256"}],"outputs":[{"name":"","type":"bool","internalType":"bool"}],"stateMutability":"view"},{"type":"function","name":"modelRegistry","inputs":[],"outputs":[{"name":"","type":"address","internalType":"contract AIModelRegistry"}],"stateMutability":"view"},{"type":"function","name":"owner","inputs":[],"outputs":[{"name":"","type":"address","internalType":"address"}],"stateMutability":"view"},{"type":"function","name":"recordPrediction","inputs":[{"name":"competitionId","type":"uint256","internalType":"uint256"},{"name":"modelId","type":"uint256","internalType":"uint256"},{"name":"wasCorrect","type":"bool","internalType":"bool"},{"name":"pnl","type":"int256","internalType":"int256"}],"outputs":[],"stateMutability":"nonpayable"},{"type":"function","name":"renounceOwnership","inputs":[],"outputs":[],"stateMutability":"nonpayable"},{"type":"function","name":"startCompetition","inputs":[{"name":"competitionId","type":"uint256","internalType":"uint256"}],"outputs":[],"stateMutability":"nonpayable"},{"type":"function","name":"transferOwnership","inputs":[{"name":"newOwner","type":"address","internalType":"address"}],"outputs":[],"stateMutability":"nonpayable"},{"type":"event","name":"CompetitionCompleted","inputs":[{"name":"competitionId","type":"uint256","indexed":true,"internalType":"uint256"},{"name":"winnerModelId","type":"uint256","indexed":true,"internalType":"uint256"},{"name":"prize","type":"uint256","indexed":false,"internalType":"uint256"}],"anonymous":false},{"type":"event","name":"CompetitionCreated","inputs":[{"name":"competitionId","type":"uint256","indexed":true,"internalType":"uint256"},{"name":"name","type":"string","indexed":false,"internalType":"string"},{"name":"startTime","type":"uint256","indexed":false,"internalType":"uint256"},{"name":"endTime","type":"uint256","indexed":false,"internalType":"uint256"}],"anonymous":false},{"type":"event","name":"ModelEntered","inputs":[{"name":"competitionId","type":"uint256","indexed":true,"internalType":"uint256"},{"name":"modelId","type":"uint256","indexed":true,"internalType":"uint256"},{"name":"owner","type":"address","indexed":true,"internalType":"address"}],"anonymous":false},{"type":"event","name":"OwnershipTransferred","inputs":[{"name":"previousOwner","type":"address","indexed":true,"internalType":"address"},{"name":"newOwner","type":"address","indexed":true,"internalType":"address"}],"anonymous":false},{"type":"event","name":"PredictionMade","inputs":[{"name":"competitionId","type":"uint256","indexed":true,"internalType":"uint256"},{"name":"modelId","type":"uint256","indexed":true,"internalType":"uint256"},{"name":"prediction","type":"bytes","indexed":false,"internalType":"bytes"}],"anonymous":false},{"type":"error","name":"OwnableInvalidOwner","inputs":[{"name":"owner","type":"address","internalType":"address"}]},{"type":"error","name":"OwnableUnauthorizedAccount","inputs":[{"name":"account","type":"address","internalType":"address"}]},{"type":"error","name":"ReentrancyGuardReentrantCall","inputs":[]}],"bytecode":{"object":"0x6080346100e657601f611f0638819003918201601f19168301916001600160401b038311848410176100ea578084926020946040528339810103126100e657516001600160a01b0390818116908190036100e65733156100ce575f5460018060a01b03199033828216175f55604051933391167f8be0079c531659141344cd1fd0a4f28419497f9722a3daafe3b4186f6b6457e05f80a360017f9b779b17422d0df92223018b32b4d1fa46e071723d6817e2486d003becc55f00556001541617600155611e0790816100ff8239f35b604051631e4fbdf760e01b81525f6004820152602490fd5b5f80fd5b634e487b7160e01b5f52604160045260245ffdfe6080806040526004361015610012575f80fd5b60e0905f35821c9081631736fc22146119eb5750806320336f251461178d5780632726054c146117395780632ba36f78146117115780633713f1df146115d25780634543a6fb14611567578063560d52d41461154c578063715018a6146114f55780638da5cb5b146114ce5780639f6828d914611427578063a16817701461140a578063a34b46fe1461127b578063af5af78414611247578063b26378f914610fc7578063bed6450614610bd2578063d28a0f5c14610af9578063e08342ba146106e6578063e21a6b681461056e578063e9360096146103ea578063eafd7fe614610392578063f2fde38b146103065763f403646614610110575f80fd5b3461030257602080600319360112610302576040519161012f83611ac4565b5f83526060828401525f60408401525f60608401525f60808401525f60a08401525f60c0840152606081840152610100905f828501525f610120809501526004355f526002835260405f20936040519061018882611ac4565b8554825260019561019b60018201611b03565b9580840196875260028201549060408501918252600383015495606086019687526004840154906080870191825260058501549160a0880192835260ff6006870154169260c089019160048510156102ee578d9483979697526007880160405195868983549182815201925f52895f20915f5b8281106102db57505050508590036102269086611ae1565b838a019485526008880154978c8b0198895260090154998981019a8b526040519d8e918983525189830152519b6101409c8d6040840152610160830161026b91611bc6565b975160608301525190608001525160a08d01525160c08c015251908a0161029191611beb565b5196601f1989830301908901528180885192838152019701915f5b8281106102c85750505050859650519085015251908301520390f35b8351895297810197928101928a016102ac565b83548552938b019392810192810161020e565b634e487b7160e01b5f52602160045260245ffd5b5f80fd5b34610302576020366003190112610302576004356001600160a01b038181169182900361030257610335611d86565b811561037a575f54826bffffffffffffffffffffffff60a01b8216175f55167f8be0079c531659141344cd1fd0a4f28419497f9722a3daafe3b4186f6b6457e05f80a3005b604051631e4fbdf760e01b81525f6004820152602490fd5b34610302576020366003190112610302576004355f52600260205260405f2060ff6006820154169060048210156102ee5760016020921490816103db575b506040519015158152f35b600391500154421015826103d0565b346103025760208060031936011261030257610404611d86565b61040c611d57565b6004355f526002815260405f20600681019182549260ff841660048110156102ee5761053957610443600284959401544210611d19565b6003809360ff19161790555f916004600785019401925b84548110156105265761046d8186611c4d565b90546001546040516331a9108f60e11b815292851b9190911c60048301526001600160a01b03919085908290602490829086165afa9081156104d3575f916104e8575b505f8080938193895491839183156104de575b1690f1156104d35760010161045a565b6040513d5f823e3d90fd5b6108fc92506104c3565b90508481813d831161051f575b6104ff8183611ae1565b81010312610302575f8080936105158294611c76565b93509350506104b0565b503d6104f5565b60015f80516020611db283398151915255005b60405162461bcd60e51b815260048101839052600d60248201526c10d85b9b9bdd0818d85b98d95b609a1b6044820152606490fd5b3461030257602080600319360112610302576004355f5260028152600760405f200180549061059c82611cb0565b916105a681611c98565b6105b36040519182611ae1565b8181526105bf82611c98565b8186019590601f19013687376001805490946001600160a01b0394918516905f5b83811061063857505050508061060160405196604088526040880190611a59565b928684038288015251928381520195925f905b8382106106215786880387f35b845181168852968201969382019390850190610614565b61064981839b999b98969798611c4d565b90549060031b1c61065a828b611ce2565b52610665818a611ce2565b5190604051916331a9108f60e11b835260048301528682602481875afa80156104d3578b925f916106ae575b508661069d838b611ce2565b9116905201989698959493956105e0565b809350888092503d83116106df575b6106c78183611ae1565b81010312610302576106d98b92611c76565b8c610691565b503d6106bd565b6106ef36611a43565b6106f7611d57565b815f5260206002815260405f209060ff60068301541660048110156102ee57610abd5761072960028301544210611d19565b60048201543410610a8057835f526004815260405f20835f52815260ff60405f205416610a4a576001546040516331a9108f60e11b815260048101859052602493916001600160a01b03908116919084828781865afa9182156104d3575f92610a13575b50339116036109dd575f849160405192838092631df6cddd60e31b82528960048301525afa80156104d3575f90610953575b600a9150106109105760078101805490600160401b8210156108fd57816107ee91600160099594018155611c4d565b81549060031b9087821b915f19901b191617905560058101610811348254611cf6565b90550161081e8154611c8a565b9055835f526004815260405f20835f52815260405f20600160ff198254161790556040519160a083019083821067ffffffffffffffff8311176108ea5750906004916040528383528083015f8152604084015f815260608501915f835260808601935f8552885f526003815260405f2090885f525260405f20955186555160018601555160028501555160038401555191015533917ff6a2435e3882c4b7cd388d79489aae830a44aebee070864cfe3985799d5751b75f80a460015f80516020611db283398151915255005b634e487b7160e01b5f9081526041600452fd5b84634e487b7160e01b5f5260416004525ffd5b5060196064926040519262461bcd60e51b845260048401528201527f496e73756666696369656e7420747261636b207265636f7264000000000000006044820152fd5b503d805f833e6109638183611ae1565b81019060a0818303126103025761097981611c76565b508381015167ffffffffffffffff81116103025781019082601f83011215610302578151926109a784611bf8565b906109b56040519283611ae1565b84825286858501011161030257600a9360609387806109d694019101611ba5565b01516107bf565b60405162461bcd60e51b815260048101849052600f818601526e2737ba1036b7b232b61037bbb732b960891b6044820152606490fd5b9091508481813d8311610a43575b610a2b8183611ae1565b8101031261030257610a3c90611c76565b908861078d565b503d610a21565b6064906040519062461bcd60e51b82526004820152600f60248201526e105b1c9958591e48195b9d195c9959608a1b6044820152fd5b6064906040519062461bcd60e51b825260048201526016602482015275496e73756666696369656e7420656e7472792066656560501b6044820152fd5b6064906040519062461bcd60e51b8252600482015260156024820152744e6f7420616363657074696e6720656e747269657360581b6044820152fd5b34610302576020366003190112610302576004355f52600260205260405f20600681019081549060ff821660048110156102ee57610b379015611d19565b60028101544210610b9e576009600291015410610b595760ff19166001179055005b60405162461bcd60e51b815260206004820152601c60248201527f4e656564206174206c656173742032207061727469636970616e7473000000006044820152606490fd5b60405162461bcd60e51b815260206004820152600c60248201526b4e6f74207965742074696d6560a01b6044820152606490fd5b50346103025760803660031901126103025760043567ffffffffffffffff81116103025736602382011215610302578060040135610c0f81611bf8565b91610c1d6040519384611ae1565b818352366024838301011161030257815f926024602093018386013783010152610c45611d86565b426024351115610f825760443515610f4a5760055490610c6482611c8a565b600555610c75604435602435611cf6565b6040516020810181811067ffffffffffffffff821117610e7f576040525f815260405190610ca282611ac4565b84825260208201928484526024356040840152606083015260643560808301525f60a08301525f60c0830152858201525f6101008201525f610120820152835f52600260205260405f2091815183555180519067ffffffffffffffff8211610e7f578190610d136001860154611a8c565b601f8111610f0c575b50602090601f8311600114610e9e575f92610e93575b50508160011b915f199060031b1c19161760018301555b60408101516002830155606081015160038301556080810151600483015560a081015160058301556006820160c082015160048110156102ee5760ff80198354169116179055600782019481015180519067ffffffffffffffff8211610e7f57600160401b8211610e7f576020908754838955808410610e64575b5001955f5260205f20955f5b828110610e505761010084015160088601556101208401516009860155602087807fa395527f22c2ebd132d3004e6667ce1e527353fbf850c0fd0515fd518ec91604610e388a610e24604435602435611cf6565b604051928392606084526060840190611bc6565b906024358884015260408301520390a2604051908152f35b60019060208351930192818a015501610dd0565b610e7990895f5284845f209182019101611d03565b5f610dc4565b634e487b7160e01b5f52604160045260245ffd5b015190505f80610d32565b9250600185015f5260205f20905f935b601f1984168510610ef1576001945083601f19811610610ed9575b505050811b016001830155610d49565b01515f1960f88460031b161c191690555f8080610ec9565b81810151835560209485019460019093019290910190610eae565b610f3a90600187015f5260205f20601f850160051c81019160208610610f40575b601f0160051c0190611d03565b5f610d1c565b9091508190610f2d565b60405162461bcd60e51b815260206004820152601060248201526f24b73b30b634b210323ab930ba34b7b760811b6044820152606490fd5b60405162461bcd60e51b815260206004820152601960248201527f53746172742074696d65206d75737420626520667574757265000000000000006044820152606490fd5b34610302576080366003190112610302576024600435604435823581151582036103025760643592805f526020906002825260ff600660405f2001541660048110156112345760016110199114611c14565b805f526004825260405f20835f52825260ff60405f205416156111f0575f54336001600160a01b0391821614908115611181575b501561114c575f526003815260405f20915f525260405f209260028401916110758354611c8a565b809355611137575b6003840180545f858201958612911290801582169115161761111457839055811590816111285760018501549161177092838102938185041490151715611114576111015750916110dd91600493045b5f915f81136110e2575b50611cf6565b910155005b909150610fa090818111156110fa57505b90856110d7565b90506110f3565b634e487b7160e01b5f9081526012600452fd5b50634e487b7160e01b5f9081526011600452fd5b5050506110dd6004915f6110cd565b600184016111458154611c8a565b905561107d565b60405162461bcd60e51b815260048101839052600e818801526d139bdd08185d5d1a1bdc9a5e995960921b6044820152606490fd5b905086838260015416604051928380926331a9108f60e11b82528960048301525afa9081156104d3575f916111bb575b501633148761104d565b90508381813d83116111e9575b6111d28183611ae1565b81010312610302576111e390611c76565b886111b1565b503d6111c8565b60405162461bcd60e51b8152600481018390526018818801527f4d6f64656c206e6f7420696e20636f6d7065746974696f6e00000000000000006044820152606490fd5b86634e487b7160e01b5f5260216004525ffd5b346103025761125536611a43565b905f52600460205260405f20905f52602052602060ff60405f2054166040519015158152f35b34610302576020806003193601126103025760043590815f526002602052600760405f20018054906112ac82611cb0565b926112b683611cb0565b945f5b8481106113b957505050505f5b8181106112fb576112e9836112f786604051938493604085526040850190611a59565b908382036020850152611a59565b0390f35b60018082018083116113a5575b8381106113195750506001016112c6565b908161132a87938398979597611ce2565b516113358785611ce2565b5110611348575b01949094939193611308565b6113528184611ce2565b5161135d8785611ce2565b516113688386611ce2565b526113738785611ce2565b5261137e8185611ce2565b516113898786611ce2565b516113948387611ce2565b5261139f8786611ce2565b5261133c565b634e487b7160e01b5f52601160045260245ffd5b806113c660019286611c4d565b9054600391821b1c6113d8838a611ce2565b52835f52845260405f206113ec8289611ce2565b515f528452600460405f200154611403828a611ce2565b52016112b9565b34610302575f366003190112610302576020600554604051908152f35b5034610302576020366003190112610302576004355f52600260205260405f2080549061145660018201611b03565b926002820154916003810154916114c16004830154600584015460ff6006860154169160096008870154960154966114a26040519b8c809c6020610120928392815201528c0190611bc6565b9860408b015260608a0152608089015260a088015260c0870190611beb565b8401526101008301520390f35b34610302575f366003190112610302575f546040516001600160a01b039091168152602090f35b34610302575f3660031901126103025761150d611d86565b5f80546001600160a01b0319811682556001600160a01b03167f8be0079c531659141344cd1fd0a4f28419497f9722a3daafe3b4186f6b6457e08280a3005b34610302575f366003190112610302576020604051600a8152f35b34610302576020366003190112610302576004355f52600260205260405f2060ff6006820154169060048210156102ee576020911590816115c3575b816115b357506040519015158152f35b60029150600901541015826103d0565b600281015442101591506115a3565b34610302575f366003190112610302576005545f805b82811061169b57506115f990611cb0565b5f915f5b81811061161a57604051602080825281906112f790820186611a59565b805f52600260209080825260ff90600690828260405f2001541660048110156102ee57600114938415611675575b505050509060019161165b575b016115fd565b8061166f61166887611c8a565b9686611ce2565b52611655565b9091929350845f525260405f200154169060048210156102ee5790156001868080611648565b805f52600260209080825260ff90600690828260405f2001541660048110156102ee576001149384156116ee575b505050506116da575b6001016115e8565b906116e6600191611c8a565b9190506116d2565b9091929350845f525260405f2001541660048110156102ee5715848080806116c9565b34610302575f366003190112610302576001546040516001600160a01b039091168152602090f35b346103025761174736611a43565b905f52600360205260405f20905f52602052608060405f206001810154906002810154906004600382015491015491604051938452602084015260408301526060820152f35b3461030257602080600319360112610302576004356117aa611d57565b805f526002825260405f2091600683019283549360ff85169460048610156102ee576117d96001809714611c14565b600395600384015442106119ba575f965f8091600787018054935b848110611976575050505050508515611945579060028392876008600596015560ff1916179055015490600a8202828104600a14831517156113a55760649004808303928084116113a5576001546040516331a9108f60e11b8152600481018890526001600160a01b0392909185908390602490829087165afa9182156104d357869284915f91611900575b505f93849384938493898593146118f6575b1690f1156104d3575f80809381938254168282156118ed575bf1156104d3577f883529243bb8b1dbfca7c052efa8642d1d769b416e65e7150e939ed1146aa43991604051908152a360015f80516020611db283398151915255005b506108fc6118ab565b6108fc9250611892565b935050508482813d831161193e575b6119198183611ae1565b81010312610302575f8087819493866119328496611c76565b93509350935093611880565b503d61190f565b60405162461bcd60e51b81526004810185905260096024820152682737903bb4b73732b960b91b6044820152606490fd5b6119808183611c4d565b905490841b1c8b5f52838b5260405f20815f528b52600460405f2001548581116119ae575b505085016117f4565b909c509350858d6119a5565b60405162461bcd60e51b8152600481018690526009602482015268139bdd08195b99195960ba1b6044820152606490fd5b346103025760a0906119fc36611a43565b905f52600360205260405f20905f5260205260405f208054906001810154600282015490600460038401549301549385526020850152604084015260608301526080820152f35b6040906003190112610302576004359060243590565b9081518082526020808093019301915f5b828110611a78575050505090565b835185529381019392810192600101611a6a565b90600182811c92168015611aba575b6020831014611aa657565b634e487b7160e01b5f52602260045260245ffd5b91607f1691611a9b565b610140810190811067ffffffffffffffff821117610e7f57604052565b90601f8019910116810190811067ffffffffffffffff821117610e7f57604052565b9060405191825f8254611b1581611a8c565b908184526020946001916001811690815f14611b835750600114611b45575b505050611b4392500383611ae1565b565b5f90815285812095935091905b818310611b6b575050611b4393508201015f8080611b34565b85548884018501529485019487945091830191611b52565b92505050611b4394925060ff191682840152151560051b8201015f8080611b34565b5f5b838110611bb65750505f910152565b8181015183820152602001611ba7565b90602091611bdf81518092818552858086019101611ba5565b601f01601f1916010190565b9060048210156102ee5752565b67ffffffffffffffff8111610e7f57601f01601f191660200190565b15611c1b57565b60405162461bcd60e51b815260206004820152600a6024820152694e6f742061637469766560b01b6044820152606490fd5b8054821015611c62575f5260205f2001905f90565b634e487b7160e01b5f52603260045260245ffd5b51906001600160a01b038216820361030257565b5f1981146113a55760010190565b67ffffffffffffffff8111610e7f5760051b60200190565b90611cba82611c98565b611cc76040519182611ae1565b8281528092611cd8601f1991611c98565b0190602036910137565b8051821015611c625760209160051b010190565b919082018092116113a557565b818110611d0e575050565b5f8155600101611d03565b15611d2057565b60405162461bcd60e51b815260206004820152600f60248201526e105b1c9958591e481cdd185c9d1959608a1b6044820152606490fd5b5f80516020611db28339815191526002815414611d745760029055565b604051633ee5aeb560e01b8152600490fd5b5f546001600160a01b03163303611d9957565b60405163118cdaa760e01b8152336004820152602490fdfe9b779b17422d0df92223018b32b4d1fa46e071723d6817e2486d003becc55f00a26469706673582212208ae73e4e41fe744163c14f081ad32b770de7ba6d044c64af9c51c2f0b4736caf64736f6c63430008180033","linkReferences":{}},"methodIdentifiers":{"PLATFORM_FEE_PERCENT()":"560d52d4","canCompleteCompetition(uint256)":"eafd7fe6","canStartCompetition(uint256)":"4543a6fb","cancelCompetition(uint256)":"e9360096","competitionCount()":"a1681770","competitionScores(uint256,uint256)":"1736fc22","competitions(uint256)":"9f6828d9","completeCompetition(uint256)":"20336f25","createCompetition(string,uint256,uint256,uint256)":"bed64506","enterCompetition(uint256,uint256)":"e08342ba","getActiveCompetitions()":"3713f1df","getCompetition(uint256)":"f4036466","getCompetitionParticipants(uint256)":"e21a6b68","getLeaderboard(uint256)":"a34b46fe","getModelScore(uint256,uint256)":"2726054c","hasEntered(uint256,uint256)":"af5af784","modelRegistry()":"2ba36f78","owner()":"8da5cb5b","recordPrediction(uint256,uint256,bool,int256)":"b26378f9","renounceOwnership()":"715018a6","startCompetition(uint256)":"d28a0f5c","transferOwnership(address)":"f2fde38b"},"id":46}