{"abi":[{"type":"constructor","inputs":[],"stateMutability":"nonpayable"},{"type":"function","name":"PLATFORM_FEE_PERCENT","inputs":[],"outputs":[{"name":"","type":"uint256","internalType":"uint256"}],"stateMutability":"view"},{"type":"function","name":"approve","inputs":[{"name":"to","type":"address","internalType":"address"},{"name":"tokenId","type":"uint256","internalType":"uint256"}],"outputs":[],"stateMutability":"nonpayable"},{"type":"function","name":"authorizeOracle","inputs":[{"name":"oracle","type":"address","internalType":"address"},{"name":"authorized","type":"bool","internalType":"bool"}],"outputs":[],"stateMutability":"nonpayable"},{"type":"function","name":"authorizedOracles","inputs":[{"name":"","type":"address","internalType":"address"}],"outputs":[{"name":"","type":"bool","internalType":"bool"}],"stateMutability":"view"},{"type":"function","name":"balanceOf","inputs":[{"name":"owner","type":"address","internalType":"address"}],"outputs":[{"name":"","type":"uint256","internalType":"uint256"}],"stateMutability":"view"},{"type":"function","name":"deactivateModel","inputs":[{"name":"modelId","type":"uint256","internalType":"uint256"}],"outputs":[],"stateMutability":"nonpayable"},{"type":"function","name":"getApproved","inputs":[{"name":"tokenId","type":"uint256","internalType":"uint256"}],"outputs":[{"name":"","type":"address","internalType":"address"}],"stateMutability":"view"},{"type":"function","name":"getInferenceResult","inputs":[{"name":"requestId","type":"uint256","internalType":"uint256"}],"outputs":[{"name":"modelId","type":"uint256","internalType":"uint256"},{"name":"requester","type":"address","internalType":"address"},{"name":"outputData","type":"bytes","internalType":"bytes"},{"name":"confidence","type":"uint256","internalType":"uint256"},{"name":"timestamp","type":"uint256","internalType":"uint256"}],"stateMutability":"view"},{"type":"function","name":"getInvestmentInfo","inputs":[{"name":"modelId","type":"uint256","internalType":"uint256"},{"name":"user","type":"address","internalType":"address"}],"outputs":[{"name":"amount","type":"uint256","internalType":"uint256"},{"name":"lastInvestTimestamp","type":"uint256","internalType":"uint256"},{"name":"currentStreamingFee","type":"uint256","internalType":"uint256"}],"stateMutability":"view"},{"type":"function","name":"getModelInfo","inputs":[{"name":"modelId","type":"uint256","internalType":"uint256"}],"outputs":[{"name":"owner_","type":"address","internalType":"address"},{"name":"modelURI","type":"string","internalType":"string"},{"name":"inferencePrice","type":"uint256","internalType":"uint256"},{"name":"totalInferences","type":"uint256","internalType":"uint256"},{"name":"accuracy","type":"uint256","internalType":"uint256"}],"stateMutability":"view"},{"type":"function","name":"getModelMetrics","inputs":[{"name":"modelId","type":"uint256","internalType":"uint256"}],"outputs":[{"name":"correctPredictions","type":"uint256","internalType":"uint256"},{"name":"totalPredictions","type":"uint256","internalType":"uint256"},{"name":"totalPnL","type":"int256","internalType":"int256"},{"name":"totalRevenue","type":"uint256","internalType":"uint256"},{"name":"accuracy","type":"uint256","internalType":"uint256"}],"stateMutability":"view"},{"type":"function","name":"getTopModels","inputs":[{"name":"count","type":"uint256","internalType":"uint256"}],"outputs":[{"name":"modelIds","type":"uint256[]","internalType":"uint256[]"},{"name":"accuracies","type":"uint256[]","internalType":"uint256[]"}],"stateMutability":"view"},{"type":"function","name":"inferenceRequests","inputs":[{"name":"","type":"uint256","internalType":"uint256"}],"outputs":[{"name":"modelId","type":"uint256","internalType":"uint256"},{"name":"requester","type":"address","internalType":"address"},{"name":"inputData","type":"bytes","internalType":"bytes"},{"name":"outputData","type":"bytes","internalType":"bytes"},{"name":"confidence","type":"uint256","internalType":"uint256"},{"name":"timestamp","type":"uint256","internalType":"uint256"},{"name":"completed","type":"bool","internalType":"bool"},{"name":"pricePaid","type":"uint256","internalType":"uint256"}],"stateMutability":"view"},{"type":"function","name":"invest","inputs":[{"name":"modelId","type":"uint256","internalType":"uint256"}],"outputs":[],"stateMutability":"payable"},{"type":"function","name":"investments","inputs":[{"name":"","type":"uint256","internalType":"uint256"},{"name":"","type":"address","internalType":"address"}],"outputs":[{"name":"amount","type":"uint256","internalType":"uint256"},{"name":"lastInvestTimestamp","type":"uint256","internalType":"uint256"}],"stateMutability":"view"},{"type":"function","name":"isApprovedForAll","inputs":[{"name":"owner","type":"address","internalType":"address"},{"name":"operator","type":"address","internalType":"address"}],"outputs":[{"name":"","type":"bool","internalType":"bool"}],"stateMutability":"view"},{"type":"function","name":"models","inputs":[{"name":"","type":"uint256","internalType":"uint256"}],"outputs":[{"name":"owner","type":"address","internalType":"address"},{"name":"modelURI","type":"string","internalType":"string"},{"name":"inferencePrice","type":"uint256","internalType":"uint256"},{"name":"totalInferences","type":"uint256","internalType":"uint256"},{"name":"accuracy","type":"uint256","internalType":"uint256"},{"name":"totalRevenue","type":"uint256","internalType":"uint256"},{"name":"isActive","type":"bool","internalType":"bool"},{"name":"createdAt","type":"uint256","internalType":"uint256"},{"name":"correctPredictions","type":"uint256","internalType":"uint256"},{"name":"totalPredictions","type":"uint256","internalType":"uint256"},{"name":"totalPnL","type":"int256","internalType":"int256"},{"name":"streamingRate","type":"uint256","internalType":"uint256"}],"stateMutability":"view"},{"type":"function","name":"name","inputs":[],"outputs":[{"name":"","type":"string","internalType":"string"}],"stateMutability":"view"},{"type":"function","name":"nextModelId","inputs":[],"outputs":[{"name":"","type":"uint256","internalType":"uint256"}],"stateMutability":"view"},{"type":"function","name":"nextRequestId","inputs":[],"outputs":[{"name":"","type":"uint256","internalType":"uint256"}],"stateMutability":"view"},{"type":"function","name":"owner","inputs":[],"outputs":[{"name":"","type":"address","internalType":"address"}],"stateMutability":"view"},{"type":"function","name":"ownerOf","inputs":[{"name":"tokenId","type":"uint256","internalType":"uint256"}],"outputs":[{"name":"","type":"address","internalType":"address"}],"stateMutability":"view"},{"type":"function","name":"reactivateModel","inputs":[{"name":"modelId","type":"uint256","internalType":"uint256"}],"outputs":[],"stateMutability":"nonpayable"},{"type":"function","name":"registerModel","inputs":[{"name":"modelURI","type":"string","internalType":"string"},{"name":"inferencePrice","type":"uint256","internalType":"uint256"}],"outputs":[{"name":"modelId","type":"uint256","internalType":"uint256"}],"stateMutability":"nonpayable"},{"type":"function","name":"registerModel","inputs":[{"name":"modelURI","type":"string","internalType":"string"},{"name":"inferencePrice","type":"uint256","internalType":"uint256"},{"name":"streamingRate","type":"uint256","internalType":"uint256"}],"outputs":[{"name":"modelId","type":"uint256","internalType":"uint256"}],"stateMutability":"nonpayable"},{"type":"function","name":"renounceOwnership","inputs":[],"outputs":[],"stateMutability":"nonpayable"},{"type":"function","name":"requestInference","inputs":[{"name":"modelId","type":"uint256","internalType":"uint256"},{"name":"inputData","type":"bytes","internalType":"bytes"}],"outputs":[{"name":"requestId","type":"uint256","internalType":"uint256"}],"stateMutability":"payable"},{"type":"function","name":"safeTransferFrom","inputs":[{"name":"from","type":"address","internalType":"address"},{"name":"to","type":"address","internalType":"address"},{"name":"tokenId","type":"uint256","internalType":"uint256"}],"outputs":[],"stateMutability":"nonpayable"},{"type":"function","name":"safeTransferFrom","inputs":[{"name":"from","type":"address","internalType":"address"},{"name":"to","type":"address","internalType":"address"},{"name":"tokenId","type":"uint256","internalType":"uint256"},{"name":"data","type":"bytes","internalType":"bytes"}],"outputs":[],"stateMutability":"nonpayable"},{"type":"function","name":"setApprovalForAll","inputs":[{"name":"operator","type":"address","internalType":"address"},{"name":"approved","type":"bool","internalType":"bool"}],"outputs":[],"stateMutability":"nonpayable"},{"type":"function","name":"submitInference","inputs":[{"name":"requestId","type":"uint256","internalType":"uint256"},{"name":"outputData","type":"bytes","internalType":"bytes"},{"name":"confidence","type":"uint256","internalType":"uint256"}],"outputs":[],"stateMutability":"nonpayable"},{"type":"function","name":"supportsInterface","inputs":[{"name":"interfaceId","type":"bytes4","internalType":"bytes4"}],"outputs":[{"name":"","type":"bool","internalType":"bool"}],"stateMutability":"view"},{"type":"function","name":"symbol","inputs":[],"outputs":[{"name":"","type":"string","internalType":"string"}],"stateMutability":"view"},{"type":"function","name":"tokenURI","inputs":[{"name":"tokenId","type":"uint256","internalType":"uint256"}],"outputs":[{"name":"","type":"string","internalType":"string"}],"stateMutability":"view"},{"type":"function","name":"totalPlatformFees","inputs":[],"outputs":[{"name":"","type":"uint256","internalType":"uint256"}],"stateMutability":"view"},{"type":"function","name":"transferFrom","inputs":[{"name":"from","type":"address","internalType":"address"},{"name":"to","type":"address","internalType":"address"},{"name":"tokenId","type":"uint256","internalType":"uint256"}],"outputs":[],"stateMutability":"nonpayable"},{"type":"function","name":"transferOwnership","inputs":[{"name":"newOwner","type":"address","internalType":"address"}],"outputs":[],"stateMutability":"nonpayable"},{"type":"function","name":"updateModelPerformance","inputs":[{"name":"requestId","type":"uint256","internalType":"uint256"},{"name":"wasCorrect","type":"bool","internalType":"bool"},{"name":"actualPnL","type":"int256","internalType":"int256"}],"outputs":[],"stateMutability":"nonpayable"},{"type":"function","name":"updateModelPrice","inputs":[{"name":"modelId","type":"uint256","internalType":"uint256"},{"name":"newPrice","type":"uint256","internalType":"uint256"}],"outputs":[],"stateMutability":"nonpayable"},{"type":"function","name":"updateStreamingRate","inputs":[{"name":"modelId","type":"uint256","internalType":"uint256"},{"name":"newStreamingRate","type":"uint256","internalType":"uint256"}],"outputs":[],"stateMutability":"nonpayable"},{"type":"function","name":"withdraw","inputs":[{"name":"modelId","type":"uint256","internalType":"uint256"},{"name":"amount","type":"uint256","internalType":"uint256"}],"outputs":[],"stateMutability":"nonpayable"},{"type":"function","name":"withdrawPlatformFees","inputs":[],"outputs":[],"stateMutability":"nonpayable"},{"type":"event","name":"Approval","inputs":[{"name":"owner","type":"address","indexed":true,"internalType":"address"},{"name":"approved","type":"address","indexed":true,"internalType":"address"},{"name":"tokenId","type":"uint256","indexed":true,"internalType":"uint256"}],"anonymous":false},{"type":"event","name":"ApprovalForAll","inputs":[{"name":"owner","type":"address","indexed":true,"internalType":"address"},{"name":"operator","type":"address","indexed":true,"internalType":"address"},{"name":"approved","type":"bool","indexed":false,"internalType":"bool"}],"anonymous":false},{"type":"event","name":"InferenceCompleted","inputs":[{"name":"requestId","type":"uint256","indexed":true,"internalType":"uint256"},{"name":"modelId","type":"uint256","indexed":true,"internalType":"uint256"},{"name":"outputData","type":"bytes","indexed":false,"internalType":"bytes"},{"name":"confidence","type":"uint256","indexed":false,"internalType":"uint256"}],"anonymous":false},{"type":"event","name":"InferenceRequested","inputs":[{"name":"requestId","type":"uint256","indexed":true,"internalType":"uint256"},{"name":"modelId","type":"uint256","indexed":true,"internalType":"uint256"},{"name":"requester","type":"address","indexed":true,"internalType":"address"},{"name":"inputData","type":"bytes","indexed":false,"internalType":"bytes"}],"anonymous":false},{"type":"event","name":"Invested","inputs":[{"name":"modelId","type":"uint256","indexed":true,"internalType":"uint256"},{"name":"user","type":"address","indexed":true,"internalType":"address"},{"name":"amount","type":"uint256","indexed":false,"internalType":"uint256"}],"anonymous":false},{"type":"event","name":"ModelRegistered","inputs":[{"name":"modelId","type":"uint256","indexed":true,"internalType":"uint256"},{"name":"owner","type":"address","indexed":true,"internalType":"address"},{"name":"modelURI","type":"string","indexed":false,"internalType":"string"},{"name":"inferencePrice","type":"uint256","indexed":false,"internalType":"uint256"}],"anonymous":false},{"type":"event","name":"OwnershipTransferred","inputs":[{"name":"previousOwner","type":"address","indexed":true,"internalType":"address"},{"name":"newOwner","type":"address","indexed":true,"internalType":"address"}],"anonymous":false},{"type":"event","name":"PerformanceUpdated","inputs":[{"name":"modelId","type":"uint256","indexed":true,"internalType":"uint256"},{"name":"accuracy","type":"uint256","indexed":false,"internalType":"uint256"},{"name":"totalInferences","type":"uint256","indexed":false,"internalType":"uint256"}],"anonymous":false},{"type":"event","name":"StreamingFeePaid","inputs":[{"name":"modelId","type":"uint256","indexed":true,"internalType":"uint256"},{"name":"user","type":"address","indexed":true,"internalType":"address"},{"name":"fee","type":"uint256","indexed":false,"internalType":"uint256"},{"name":"timeElapsed","type":"uint256","indexed":false,"internalType":"uint256"}],"anonymous":false},{"type":"event","name":"Transfer","inputs":[{"name":"from","type":"address","indexed":true,"internalType":"address"},{"name":"to","type":"address","indexed":true,"internalType":"address"},{"name":"tokenId","type":"uint256","indexed":true,"internalType":"uint256"}],"anonymous":false},{"type":"event","name":"Withdrawn","inputs":[{"name":"modelId","type":"uint256","indexed":true,"internalType":"uint256"},{"name":"user","type":"address","indexed":true,"internalType":"address"},{"name":"amount","type":"uint256","indexed":false,"internalType":"uint256"}],"anonymous":false},{"type":"error","name":"ERC721IncorrectOwner","inputs":[{"name":"sender","type":"address","internalType":"address"},{"name":"tokenId","type":"uint256","internalType":"uint256"},{"name":"owner","type":"address","internalType":"address"}]},{"type":"error","name":"ERC721InsufficientApproval","inputs":[{"name":"operator","type":"address","internalType":"address"},{"name":"tokenId","type":"uint256","internalType":"uint256"}]},{"type":"error","name":"ERC721InvalidApprover","inputs":[{"name":"approver","type":"address","internalType":"address"}]},{"type":"error","name":"ERC721InvalidOperator","inputs":[{"name":"operator","type":"address","internalType":"address"}]},{"type":"error","name":"ERC721InvalidOwner","inputs":[{"name":"owner","type":"address","internalType":"address"}]},{"type":"error","name":"ERC721InvalidReceiver","inputs":[{"name":"receiver","type":"address","internalType":"address"}]},{"type":"error","name":"ERC721InvalidSender","inputs":[{"name":"sender","type":"address","internalType":"address"}]},{"type":"error","name":"ERC721NonexistentToken","inputs":[{"name":"tokenId","type":"uint256","internalType":"uint256"}]},{"type":"error","name":"OwnableInvalidOwner","inputs":[{"name":"owner","type":"address","internalType":"address"}]},{"type":"error","name":"OwnableUnauthorizedAccount","inputs":[{"name":"account","type":"address","internalType":"address"}]},{"type":"error","name":"ReentrancyGuardReentrantCall","inputs":[]}],"bytecode":{"object":"0x6080346200039d576001600160401b039060409080820183811182821017620003895782526010815260206f105248151c98591a5b99c8135bd9195b60821b818301528251938385018581108282111762000389578452600491828652634149544d60e01b8187015283519082821162000295575f54916001958684811c941680156200037e575b838510146200036b578190601f9485811162000318575b508390858311600114620002b4575f92620002a8575b50505f19600383901b1c191690861b175f555b8651928311620002955784548581811c911680156200028a575b8282101462000277578281116200022f575b5080918311600114620001c7575081929394955f92620001bb575b50505f19600383901b1c191690831b1782555b3315620001a5575060068054336001600160a01b0319821681179092559251926001600160a01b03167f8be0079c531659141344cd1fd0a4f28419497f9722a3daafe3b4186f6b6457e05f80a3807f9b779b17422d0df92223018b32b4d1fa46e071723d6817e2486d003becc55f005580600955600a55612a299081620003a28239f35b6024905f845191631e4fbdf760e01b8352820152fd5b015190505f806200010e565b90601f19831696855f52825f20925f905b898210620002175750508386979896959610620001fe575b505050811b01825562000121565b01515f1960f88460031b161c191690555f8080620001f0565b808885968294968601518155019501930190620001d8565b855f52815f208380860160051c8201928487106200026d575b0160051c019086905b82811062000261575050620000f3565b5f815501869062000251565b9250819262000248565b602285634e487b7160e01b5f525260245ffd5b90607f1690620000e1565b604184634e487b7160e01b5f525260245ffd5b015190505f80620000b4565b90889350601f198316915f8052855f20925f5b87828210620003015750508411620002e8575b505050811b015f55620000c7565b01515f1960f88460031b161c191690555f8080620002da565b8385015186558c97909501949384019301620002c7565b9091505f8052835f208580850160051c82019286861062000361575b918a91869594930160051c01915b828110620003525750506200009e565b5f81558594508a910162000342565b9250819262000334565b602286634e487b7160e01b5f525260245ffd5b93607f169362000087565b634e487b7160e01b5f52604160045260245ffd5b5f80fdfe6080806040526004361015610012575f80fd5b5f3560e01c90816301ffc9a7146120d35750806306fdde031461202c578063081812fc14611ff0578063095ea7b314611f0f5780630c2c69fa14611ebe5780630ea27b5b14611e815780631e10f86b14611e4757806320f9b6b314611cf057806323b872dd14611cd9578063250d62021461195d5780632afcf480146118805780632bd8fc45146117cb57806342842e0e1461179e578063441a3e701461155457806349bd293e1461148a5780634e374d5a14611322578063560d52d41461130757806361c992a3146112ca5780636352211e1461129a5780636a030ca9146111c65780636a84a985146111a957806370a0823114611153578063715018a6146110f8578063793da33d1461109f5780638da5cb5b1461107757806395d89b4114610f99578063a22cb46514610ef2578063b11b32d214610ea5578063b88d4fde14610e37578063bffc986f14610940578063c7d8e8c5146108c0578063c87b56dd1461086b578063cb36062414610832578063d0b7830b146107a0578063d3631fa514610783578063ddbf7b3d146106b4578063e472ae8b14610697578063e985e9c514610645578063efb66ee8146105bf578063efdd697b14610576578063efe63776146102755763f2fde38b146101ea575f80fd5b346102715760203660031901126102715761020361217c565b61020b61285f565b6001600160a01b0390811690811561025957600654826001600160601b0360a01b821617600655167f8be0079c531659141344cd1fd0a4f28419497f9722a3daafe3b4186f6b6457e05f80a3005b604051631e4fbdf760e01b81525f6004820152602490fd5b5f80fd5b3461027157606036600319011261027157602467ffffffffffffffff6004358235828111610271576102ab9036906004016121ec565b60443593835f526020906008825260405f209081545f526007835260405f20906006830160ff81541661053e5782546001600160a01b039290831633148015610527575b6102f8906123fa565b6127108a116104ee57600385019087116104db576103208761031a8354612263565b8361263c565b5f87601f8111600114610478578061034c925f9161046d575b508160011b915f199060031b1c19161790565b90555b886004850155600160ff198254161790556003820161036e8154612437565b9055600783015491600583028381046005148415171561045a575f93849384936103ba6103a0606487960480956126b8565b93600583016103b08682546126ab565b9055600b546126ab565b600b5554165af16103c96126c5565b5015610416577f40ddd1a9779e9f82f5abecf1e4582790ca0db004f0f84617006d90e6814c24a994959650549561040d60405194859460408652604086019161268b565b918301520390a3005b60405162461bcd60e51b815260048101839052601d818901527f4661696c656420746f2073656e6420746f206d6f64656c206f776e65720000006044820152606490fd5b8a634e487b7160e01b5f5260116004525ffd5b90508a01358e610339565b50601f19881690825f5288885f20925f5b8a8d8383106104c357505050106104aa575b5050600187811b01905561034f565b8901355f1960038a901b60f8161c191690558b8061049b565b8501358655600190950194938401938c935001610489565b8a634e487b7160e01b5f5260416004525ffd5b60405162461bcd60e51b8152600481018790526012818d015271496e76616c696420636f6e666964656e636560701b6044820152606490fd5b50335f908152600c8752604090205460ff166102ef565b60405162461bcd60e51b8152600481018690526011818c015270105b1c9958591e4818dbdb5c1b195d1959607a1b6044820152606490fd5b34610271576105843661221a565b906105a161059182612825565b6001600160a01b031633146123bc565b6105ac8215156127e0565b5f526007602052600b60405f2001555f80f35b34610271576020366003190112610271576004355f526007602052600160405f20818060a01b0381541690600281015490600381015461061560048301549261060e604051809881930161229b565b0386612348565b610631604051958695865260a0602087015260a086019061213e565b926040850152606084015260808301520390f35b346102715760403660031901126102715761065e61217c565b610666612192565b9060018060a01b038091165f52600560205260405f2091165f52602052602060ff60405f2054166040519015158152f35b34610271575f366003190112610271576020600954604051908152f35b34610271576020366003190112610271576004355f52600860205260405f2080549060018060a01b03600182015416906040516106ff816106f8816002860161229b565b0382612348565b6040519161071b83610714816003850161229b565b0384612348565b60048101549261076860058301549161075a600760ff60068701541695015495604051998a99610100918b5260208b01528060408b015289019061213e565b90878203606089015261213e565b93608086015260a0850152151560c084015260e08301520390f35b34610271575f366003190112610271576020600b54604051908152f35b34610271575f366003190112610271576107b861285f565b6107c061288b565b600b548015610803575f8080806107f09481600b5560018060a01b03600654165af16107ea6126c5565b506126f4565b60015f805160206129d483398151915255005b60405162461bcd60e51b81526020600482015260076024820152664e6f206665657360c81b6044820152606490fd5b34610271576108403661221a565b9061084d61059182612825565b6108588215156127a4565b5f526007602052600260405f2001555f80f35b3461027157602036600319011261027157610887600435612825565b505f6040516108958161232c565b526108bc6040516108a58161232c565b5f815260405191829160208352602083019061213e565b0390f35b34610271576020366003190112610271576004355f52600860205260405f20805460018060a01b036001830154169160048101549061093160036109136005840154936106f8604051809481930161229b565b6040519586958652602086015260a0604086015260a085019061213e565b91606084015260808301520390f35b346102715760603660031901126102715760043567ffffffffffffffff8111610271576109719036906004016121ec565b604435908015610e065761098860243515156127a4565b6109938215156127e0565b600954916109a083612437565b600955604051610180810181811067ffffffffffffffff821117610df2576040523381526109cf368487612386565b916020820192835260243560408301525f606083015261138860808301525f60a0830152600160c08301524260e08301525f6101008301525f6101208301525f610140830152610160820152835f52600760205260405f209160018060a01b038251166001600160601b0360a01b8454161783555180519067ffffffffffffffff8211610df257610a7082610a676001870154612263565b6001870161263c565b602090601f8311600114610d80578261016093600b9593610aa6935f92610d75575b50508160011b915f199060031b1c19161790565b60018501555b60408101516002850155606081015160038501556080810151600485015560a08101516005850155610af360c08201511515600686019060ff801983541691151516179055565b60e0810151600785015561010081015160088501556101208101516009850155610140810151600a8501550151910155604051610b2f8161232c565b5f81523315610d5d575f838152600260205260409020546001600160a01b031680151590849082610d2a575b335f52600360205260405f2060018154019055815f52600260205260405f20336001600160601b0360a01b82541617905533907fddf252ad1be2c89b69c2b068fc378daa952ba7f163c4a11628f55a4df523b3ef5f80a4600760205260405f2080546001600160a01b03191633179055610d1257333b610c27575b50817f014ed8d238576d2b30ced417ba64fa4db7c350b5f09ffa335abaefcc33047e7b610c116020956040519460408652604086019161268b565b92602435868201528033940390a3604051908152f35b60405160208180610c60630a85bd0160e11b958683523360048401525f602484015288604484015260806064840152608483019061213e565b03815f335af15f9181610ccd575b50610ca057610c7b6126c5565b80519081610c9b57604051633250574960e11b8152336004820152602490fd5b602001fd5b6001600160e01b03191603610cb55781610bd6565b604051633250574960e11b8152336004820152602490fd5b9091506020813d602011610d0a575b81610ce960209383612348565b8101031261027157516001600160e01b031981168103610271579086610c6e565b3d9150610cdc565b6040516339e3563760e11b81525f6004820152602490fd5b5f82815260046020526040902080546001600160a01b0319169055805f52600360205260405f205f198154019055610b5b565b604051633250574960e11b81525f6004820152602490fd5b015190508a80610a92565b90600185015f5260205f20915f5b601f1985168110610dda575092600b94926001926101609583601f19811610610dc2575b505050811b016001850155610aac565b01515f1960f88460031b161c19169055898080610db2565b91926020600181928685015181550194019201610d8e565b634e487b7160e01b5f52604160045260245ffd5b60405162461bcd60e51b8152602060048201526009602482015268456d7074792055524960b81b6044820152606490fd5b3461027157608036600319011261027157610e5061217c565b610e58612192565b906044356064359267ffffffffffffffff8411610271573660238501121561027157610e91610ea3943690602481600401359101612386565b92610e9d838383612476565b336128ba565b005b3461027157604036600319011261027157610ebe612192565b6004355f52600d60205260405f209060018060a01b03165f526020526040805f206001815491015482519182526020820152f35b3461027157604036600319011261027157610f0b61217c565b610f136121a8565b6001600160a01b03909116908115610f8057335f52600560205260405f20825f52602052610f508160405f209060ff801983541691151516179055565b60405190151581527f17307eab39ab6107e8899845ad3d59bd9653f200f220920489ca2b5937696c3160203392a3005b604051630b61174360e31b815260048101839052602490fd5b34610271575f366003190112610271576040515f60018260015492610fbd84612263565b92838352602094856001821691825f14611057575050600114610ffc575b50610fe892500383612348565b6108bc60405192828493845283019061213e565b84915060015f527fb10e2d527612073b26eecdfd717e6a320cf44b4afac2b0732d9fcbe2b7fa0cf6905f915b85831061103f575050610fe8935082010185610fdb565b80548389018501528794508693909201918101611028565b60ff191685820152610fe895151560051b8501019250879150610fdb9050565b34610271575f366003190112610271576006546040516001600160a01b039091168152602090f35b34610271576020366003190112610271576004355f52600760205260a060405f20600881015490600981015490600a81015460046005830154920154926040519485526020850152604084015260608301526080820152f35b34610271575f3660031901126102715761111061285f565b600680546001600160a01b031981169091555f906001600160a01b03167f8be0079c531659141344cd1fd0a4f28419497f9722a3daafe3b4186f6b6457e08280a3005b34610271576020366003190112610271576001600160a01b0361117461217c565b168015611191575f526003602052602060405f2054604051908152f35b6040516322718ad960e21b81525f6004820152602490fd5b34610271575f366003190112610271576020600a54604051908152f35b34610271576020366003190112610271576004355f52600760205260405f2060018060a01b038154166040519161120483610714816001850161229b565b6002810154906003810154906004810154600582015460ff600684015416600784015490600885015492600986015494600b600a8801549701549761125d6040519c8d809d6020610180928392815201528d019061213e565b9960408c015260608b015260808a015260a0890152151560c088015260e08701526101008601526101208501526101408401526101608301520390f35b346102715760203660031901126102715760206112b8600435612825565b6040516001600160a01b039091168152f35b34610271576020366003190112610271576001600160a01b036112eb61217c565b165f52600c602052602060ff60405f2054166040519015158152f35b34610271575f36600319011261027157602060405160058152f35b34610271576020806003193601126102715760098054905f198201600435838211611476578181111561146e5750905b61135b8261274a565b936113658361274a565b935f5b8481106113995761138b876108bc88604051938493604085526040850190612230565b908382036020850152612230565b5f8060015b8481106113d657509081600193926113b9575b505001611368565b6113c3838b61277c565b526113ce828961277c565b5288806113b1565b805f5260078087528360405f2060ff6006820154161561146357600a8a82015410611463576004015411611410575b506001905b0161139e565b5f805b838d88831061143f575b5050506114055791508092505f528452600460405f2001549060018190611405565b826114499161277c565b511461145757600101611413565b505060018c838d61141d565b50505060019061140a565b905090611352565b634e487b7160e01b5f52601160045260245ffd5b346102715760403660031901126102715760043567ffffffffffffffff81116102715760206114c06114e39236906004016121ec565b60405163bffc986f60e01b8152606060048201529384928392606484019161268b565b602435602483015266038d7ea4c68000604483015203815f305af18015611549575f90611516575b602090604051908152f35b506020813d602011611541575b8161153060209383612348565b81010312610271576020905161150b565b3d9150611523565b6040513d5f823e3d90fd5b34610271576115623661221a565b61156a61288b565b801561176b57815f52602091600d835260405f20335f52835260405f2092835483811061172f57825f526007825260405f209460018101956115ad8754426126b8565b966115ce846115c9896115c48c600b880154612445565b612445565b612458565b92878411611727575b6115eb886115e586826126b8565b966126b8565b809155155f1461171f575f90555b81611662575b50507fcf7d23a3cbe4e8b36ff82fd1b05b1b17373dc7804b4ebbd6e2356716ef2023729293945080611649575b506040519384523393a360015f805160206129d483398151915255005b5f80808061165c94335af16107ea6126c5565b8461162c565b545f9081908190819085906001600160a01b03165af16116806126c5565b50156116e4577fcf7d23a3cbe4e8b36ff82fd1b05b1b17373dc7804b4ebbd6e2356716ef20237293949560405191825283820152847feda030a5fa05851d3450a8f761e65bff96217e927bd0172cd48fde9d4f2f8a1d60403393a3849392866115ff565b60405162461bcd60e51b8152600481018490526013602482015272119959481d1c985b9cd9995c8819985a5b1959606a1b6044820152606490fd5b4290556115f9565b8793506115d7565b60405162461bcd60e51b8152600481018390526014602482015273496e73756666696369656e742062616c616e636560601b6044820152606490fd5b60405162461bcd60e51b815260206004820152600b60248201526a16995c9bc8185b5bdd5b9d60aa1b6044820152606490fd5b3461027157610ea36117af366121b7565b90604051926117bd8461232c565b5f8452610e9d838383612476565b346102715760403660031901126102715760606004356117e9612192565b815f52600d60205260405f209060018060a01b03165f5260205260405f20905f52600760205260405f20905f9080549283151580611873575b61183e575b506001015460405192835260208301526040820152f35b819250600b611854600161185c940154426126b8565b910154612445565b9082821161186b575b84611827565b829150611865565b5060018201541515611822565b6020806003193601126102715760043561189861288b565b805f52600782526118b260ff600660405f200154166125fd565b341561192a57805f52600d825260405f20335f52825260405f206118df8154801561191f575b34906126ab565b90557f85e040b1b514c2f60555b8b931138cd55218c914496a8fcf822858bd240df422604051923484523393a360015f805160206129d483398151915255005b4260018401556118d8565b60405162461bcd60e51b815260048101839052600b60248201526a139bc8115512081cd95b9d60aa1b6044820152606490fd5b60403660031901126102715767ffffffffffffffff6024358181116102715761198a9036906004016121ec565b9061199361288b565b6004355f526007602052600260405f206119b360ff6006830154166125fd565b01543410611c9d57600a54916119c883612437565b600a55604051610100810181811086821117610df257604052600435815260208101903382526119f9368486612386565b60408201908152604051611a0c8161232c565b5f815260608301525f60808301524260a08301525f60c08301523460e0830152855f52600860205260405f209282518455600184019060018060a01b039051166001600160601b0360a01b82541617905551805190878211610df257611a8282611a796002870154612263565b6002870161263c565b602090601f8311600114611c2f57611ab092915f9183611c245750508160011b915f199060031b1c19161790565b60028301555b6060810151958651908111610df257602096611ae282611ad96003870154612263565b6003870161263c565b8790601f8311600114611bb5578260e09360079593611b15935f92611baa5750508160011b915f199060031b1c19161790565b60038501555b6080810151600485015560a08101516005850155611b4e60c08201511515600686019060ff801983541691151516179055565b0151910155827fe48ca8c1daa6af6f38e4a1671c1c911e5a1b1b1a8552293bc28b9700b8c0c31960405186815280611b8e3396600435968a84019161268b565b0390a460015f805160206129d483398151915255604051908152f35b015190508b80610a92565b90600385015f52885f20915f5b601f1985168110611c0d5750926007949260019260e09583601f19811610611bf5575b505050811b016003850155611b1b565b01515f1960f88460031b161c191690558a8080611be5565b91928a600181928685015181550194019201611bc2565b015190508980610a92565b9190600285015f5260205f20905f935b601f1984168510611c82576001945083601f19811610611c6a575b505050811b016002830155611ab6565b01515f1960f88460031b161c19169055888080611c5a565b81810151835560209485019460019093019290910190611c3f565b60405162461bcd60e51b8152602060048201526014602482015273125b9cdd59999a58da595b9d081c185e5b595b9d60621b6044820152606490fd5b3461027157610ea3611cea366121b7565b91612476565b3461027157606036600319011261027157611d096121a8565b604435906004355f52600860205260405f2060ff60068201541615611e12576001810154611d4c90336001600160a01b0391821614908115611e04575b506123fa565b80545f52600760205260405f20926009840192611d698454612437565b809455611def575b600a840180545f8382019384129112908015821691151617611476575560088301549061271091828102928184041490151715611476576003611dd77fcfad70fb533f2073c73626d88b038c57fd9dc8daa8a708ce9d09af45adb1c5ef94604094612458565b918260048701555494015482519182526020820152a2005b60088401611dfd8154612437565b9055611d71565b905060065416331485611d46565b60405162461bcd60e51b815260206004820152600d60248201526c139bdd0818dbdb5c1b195d1959609a1b6044820152606490fd5b3461027157602036600319011261027157600435611e6761059182612825565b5f908152600760205260409020600601805460ff19169055005b3461027157602036600319011261027157600435611ea161059182612825565b5f908152600760205260409020600601805460ff19166001179055005b3461027157604036600319011261027157610ea3611eda61217c565b611ee26121a8565b90611eeb61285f565b60018060a01b03165f52600c60205260405f209060ff801983541691151516179055565b3461027157604036600319011261027157611f2861217c565b602435611f3481612825565b33151580611fdd575b80611fb4575b611f9c576001600160a01b039283169282918491167f8c5be1e5ebec7d5bd14f71427d1e84f3dd0314c0f7b2291e5b200ac8c7c3b9255f80a45f90815260046020526040902080546001600160a01b0319169091179055005b60405163a9fbf51f60e01b8152336004820152602490fd5b5060018060a01b0381165f52600560205260405f20335f5260205260ff60405f20541615611f43565b506001600160a01b038116331415611f3d565b346102715760203660031901126102715760043561200d81612825565b505f526004602052602060018060a01b0360405f205416604051908152f35b34610271575f366003190112610271576040515f8054908261204d83612263565b91828252602093600190856001821691825f1461105757505060011461207a5750610fe892500383612348565b5f808052859250907f290decd9548b62a8d60345a988386fc84ba6bc95484008f6362f93160ef3e5635b8583106120bb575050610fe8935082010185610fdb565b805483890185015287945086939092019181016120a4565b34610271576020366003190112610271576004359063ffffffff60e01b8216809203610271576020916380ac58cd60e01b811490811561212d575b811561211c575b5015158152f35b6301ffc9a760e01b14905083612115565b635b5e139f60e01b8114915061210e565b91908251928382525f5b848110612168575050825f602080949584010152601f8019910116010190565b602081830181015184830182015201612148565b600435906001600160a01b038216820361027157565b602435906001600160a01b038216820361027157565b60243590811515820361027157565b6060906003190112610271576001600160a01b0390600435828116810361027157916024359081168103610271579060443590565b9181601f840112156102715782359167ffffffffffffffff8311610271576020838186019501011161027157565b6040906003190112610271576004359060243590565b9081518082526020808093019301915f5b82811061224f575050505090565b835185529381019392810192600101612241565b90600182811c92168015612291575b602083101461227d57565b634e487b7160e01b5f52602260045260245ffd5b91607f1691612272565b80545f93926122a982612263565b918282526020936001916001811690815f1461230d57506001146122cf575b5050505050565b90939495505f92919252835f2092845f945b8386106122f957505050500101905f808080806122c8565b8054858701830152940193859082016122e1565b60ff19168685015250505090151560051b010191505f808080806122c8565b6020810190811067ffffffffffffffff821117610df257604052565b90601f8019910116810190811067ffffffffffffffff821117610df257604052565b67ffffffffffffffff8111610df257601f01601f191660200190565b9291926123928261236a565b916123a06040519384612348565b829481845281830111610271578281602093845f960137010152565b156123c357565b60405162461bcd60e51b815260206004820152600f60248201526e2737ba1036b7b232b61037bbb732b960891b6044820152606490fd5b1561240157565b60405162461bcd60e51b815260206004820152600e60248201526d139bdd08185d5d1a1bdc9a5e995960921b6044820152606490fd5b5f1981146114765760010190565b8181029291811591840414171561147657565b8115612462570490565b634e487b7160e01b5f52601260045260245ffd5b916001600160a01b03918216918215610d5d57815f526020936002855260409482865f2054169433151580612572575b5085612541575b805f5260038252865f2060018154019055845f52600282526007875f20926001600160601b0360a01b9383858254161790558683897fddf252ad1be2c89b69c2b068fc378daa952ba7f163c4a11628f55a4df523b3ef5f80a452865f209182541617905516928383036125205750505050565b6064945051926364283d7b60e01b8452600484015260248301526044820152fd5b5f85815260046020526040812080546001600160a01b03191690558681526003835287902080545f190190556124ad565b806125bc575b15612583575f6124a6565b8685876125a0576024915190637e27328960e01b82526004820152fd5b604491519063177e802f60e01b82523360048301526024820152fd5b5033861480156125e1575b806125785750845f52600482523384885f20541614612578565b50855f5260058252865f20335f52825260ff875f2054166125c7565b1561260457565b60405162461bcd60e51b815260206004820152601060248201526f4d6f64656c206e6f742061637469766560801b6044820152606490fd5b601f821161264957505050565b5f5260205f20906020601f840160051c83019310612681575b601f0160051c01905b818110612676575050565b5f815560010161266b565b9091508190612662565b908060209392818452848401375f828201840152601f01601f1916010190565b9190820180921161147657565b9190820391821161147657565b3d156126ef573d906126d68261236a565b916126e46040519384612348565b82523d5f602084013e565b606090565b156126fb57565b60405162461bcd60e51b815260206004820152600f60248201526e15da5d1a191c985dc819985a5b1959608a1b6044820152606490fd5b67ffffffffffffffff8111610df25760051b60200190565b9061275482612732565b6127616040519182612348565b8281528092612772601f1991612732565b0190602036910137565b80518210156127905760209160051b010190565b634e487b7160e01b5f52603260045260245ffd5b156127ab57565b60405162461bcd60e51b815260206004820152600d60248201526c496e76616c696420707269636560981b6044820152606490fd5b156127e757565b60405162461bcd60e51b8152602060048201526016602482015275496e76616c69642073747265616d696e67207261746560501b6044820152606490fd5b5f818152600260205260409020546001600160a01b0316908115612847575090565b60249060405190637e27328960e01b82526004820152fd5b6006546001600160a01b0316330361287357565b60405163118cdaa760e01b8152336004820152602490fd5b5f805160206129d483398151915260028154146128a85760029055565b604051633ee5aeb560e01b8152600490fd5b9291803b6128c9575050505050565b604051630a85bd0160e11b8082526001600160a01b0395861660048301529285166024820152604481019390935260806064840152909216926020908290819061291790608483019061213e565b03815f875af15f918161298e575b5061295c57826129336126c5565b805191908261295557604051633250574960e11b815260048101839052602490fd5b6020915001fd5b6001600160e01b0319160361297657505f808080806122c8565b60249060405190633250574960e11b82526004820152fd5b9091506020813d6020116129cb575b816129aa60209383612348565b8101031261027157516001600160e01b03198116810361027157905f612925565b3d915061299d56fe9b779b17422d0df92223018b32b4d1fa46e071723d6817e2486d003becc55f00a2646970667358221220eb81ce604d837364822e357a6b020acbaf5e14c197fe6c821fd13a56d50aa08164736f6c63430008180033","linkReferences":{}},"methodIdentifiers":{"PLATFORM_FEE_PERCENT()":"560d52d4","approve(address,uint256)":"095ea7b3","authorizeOracle(address,bool)":"0c2c69fa","authorizedOracles(address)":"61c992a3","balanceOf(address)":"70a08231","deactivateModel(uint256)":"1e10f86b","getApproved(uint256)":"081812fc","getInferenceResult(uint256)":"c7d8e8c5","getInvestmentInfo(uint256,address)":"2bd8fc45","getModelInfo(uint256)":"efb66ee8","getModelMetrics(uint256)":"793da33d","getTopModels(uint256)":"4e374d5a","inferenceRequests(uint256)":"ddbf7b3d","invest(uint256)":"2afcf480","investments(uint256,address)":"b11b32d2","isApprovedForAll(address,address)":"e985e9c5","models(uint256)":"6a030ca9","name()":"06fdde03","nextModelId()":"e472ae8b","nextRequestId()":"6a84a985","owner()":"8da5cb5b","ownerOf(uint256)":"6352211e","reactivateModel(uint256)":"0ea27b5b","registerModel(string,uint256)":"49bd293e","registerModel(string,uint256,uint256)":"bffc986f","renounceOwnership()":"715018a6","requestInference(uint256,bytes)":"250d6202","safeTransferFrom(address,address,uint256)":"42842e0e","safeTransferFrom(address,address,uint256,bytes)":"b88d4fde","setApprovalForAll(address,bool)":"a22cb465","submitInference(uint256,bytes,uint256)":"efe63776","supportsInterface(bytes4)":"01ffc9a7","symbol()":"95d89b41","tokenURI(uint256)":"c87b56dd","totalPlatformFees()":"d3631fa5","transferFrom(address,address,uint256)":"23b872dd","transferOwnership(address)":"f2fde38b","updateModelPerformance(uint256,bool,int256)":"20f9b6b3","updateModelPrice(uint256,uint256)":"cb360624","updateStreamingRate(uint256,uint256)":"efdd697b","withdraw(uint256,uint256)":"441a3e70","withdrawPlatformFees()":"d0b7830b"},"id":45}