{"abi":[{"type":"constructor","inputs":[],"stateMutability":"nonpayable"},{"type":"function","name":"PLATFORM_FEE_PERCENT","inputs":[],"outputs":[{"name":"","type":"uint256","internalType":"uint256"}],"stateMutability":"view"},{"type":"function","name":"approve","inputs":[{"name":"to","type":"address","internalType":"address"},{"name":"tokenId","type":"uint256","internalType":"uint256"}],"outputs":[],"stateMutability":"nonpayable"},{"type":"function","name":"authorizeOracle","inputs":[{"name":"oracle","type":"address","internalType":"address"},{"name":"authorized","type":"bool","internalType":"bool"}],"outputs":[],"stateMutability":"nonpayable"},{"type":"function","name":"authorizedOracles","inputs":[{"name":"","type":"address","internalType":"address"}],"outputs":[{"name":"","type":"bool","internalType":"bool"}],"stateMutability":"view"},{"type":"function","name":"balanceOf","inputs":[{"name":"owner","type":"address","internalType":"address"}],"outputs":[{"name":"","type":"uint256","internalType":"uint256"}],"stateMutability":"view"},{"type":"function","name":"deactivateModel","inputs":[{"name":"modelId","type":"uint256","internalType":"uint256"}],"outputs":[],"stateMutability":"nonpayable"},{"type":"function","name":"getApproved","inputs":[{"name":"tokenId","type":"uint256","internalType":"uint256"}],"outputs":[{"name":"","type":"address","internalType":"address"}],"stateMutability":"view"},{"type":"function","name":"getInferenceResult","inputs":[{"name":"requestId","type":"uint256","internalType":"uint256"}],"outputs":[{"name":"modelId","type":"uint256","internalType":"uint256"},{"name":"requester","type":"address","internalType":"address"},{"name":"outputData","type":"bytes","internalType":"bytes"},{"name":"confidence","type":"uint256","internalType":"uint256"},{"name":"timestamp","type":"uint256","internalType":"uint256"}],"stateMutability":"view"},{"type":"function","name":"getModelInfo","inputs":[{"name":"modelId","type":"uint256","internalType":"uint256"}],"outputs":[{"name":"owner_","type":"address","internalType":"address"},{"name":"modelURI","type":"string","internalType":"string"},{"name":"inferencePrice","type":"uint256","internalType":"uint256"},{"name":"totalInferences","type":"uint256","internalType":"uint256"},{"name":"accuracy","type":"uint256","internalType":"uint256"}],"stateMutability":"view"},{"type":"function","name":"getModelMetrics","inputs":[{"name":"modelId","type":"uint256","internalType":"uint256"}],"outputs":[{"name":"correctPredictions","type":"uint256","internalType":"uint256"},{"name":"totalPredictions","type":"uint256","internalType":"uint256"},{"name":"totalPnL","type":"int256","internalType":"int256"},{"name":"totalRevenue","type":"uint256","internalType":"uint256"},{"name":"accuracy","type":"uint256","internalType":"uint256"}],"stateMutability":"view"},{"type":"function","name":"getTopModels","inputs":[{"name":"count","type":"uint256","internalType":"uint256"}],"outputs":[{"name":"modelIds","type":"uint256[]","internalType":"uint256[]"},{"name":"accuracies","type":"uint256[]","internalType":"uint256[]"}],"stateMutability":"view"},{"type":"function","name":"inferenceRequests","inputs":[{"name":"","type":"uint256","internalType":"uint256"}],"outputs":[{"name":"modelId","type":"uint256","internalType":"uint256"},{"name":"requester","type":"address","internalType":"address"},{"name":"inputData","type":"bytes","internalType":"bytes"},{"name":"outputData","type":"bytes","internalType":"bytes"},{"name":"confidence","type":"uint256","internalType":"uint256"},{"name":"timestamp","type":"uint256","internalType":"uint256"},{"name":"completed","type":"bool","internalType":"bool"},{"name":"pricePaid","type":"uint256","internalType":"uint256"}],"stateMutability":"view"},{"type":"function","name":"isApprovedForAll","inputs":[{"name":"owner","type":"address","internalType":"address"},{"name":"operator","type":"address","internalType":"address"}],"outputs":[{"name":"","type":"bool","internalType":"bool"}],"stateMutability":"view"},{"type":"function","name":"models","inputs":[{"name":"","type":"uint256","internalType":"uint256"}],"outputs":[{"name":"owner","type":"address","internalType":"address"},{"name":"modelURI","type":"string","internalType":"string"},{"name":"inferencePrice","type":"uint256","internalType":"uint256"},{"name":"totalInferences","type":"uint256","internalType":"uint256"},{"name":"accuracy","type":"uint256","internalType":"uint256"},{"name":"totalRevenue","type":"uint256","internalType":"uint256"},{"name":"isActive","type":"bool","internalType":"bool"},{"name":"createdAt","type":"uint256","internalType":"uint256"},{"name":"correctPredictions","type":"uint256","internalType":"uint256"},{"name":"totalPredictions","type":"uint256","internalType":"uint256"},{"name":"totalPnL","type":"int256","internalType":"int256"}],"stateMutability":"view"},{"type":"function","name":"name","inputs":[],"outputs":[{"name":"","type":"string","internalType":"string"}],"stateMutability":"view"},{"type":"function","name":"nextModelId","inputs":[],"outputs":[{"name":"","type":"uint256","internalType":"uint256"}],"stateMutability":"view"},{"type":"function","name":"nextRequestId","inputs":[],"outputs":[{"name":"","type":"uint256","internalType":"uint256"}],"stateMutability":"view"},{"type":"function","name":"owner","inputs":[],"outputs":[{"name":"","type":"address","internalType":"address"}],"stateMutability":"view"},{"type":"function","name":"ownerOf","inputs":[{"name":"tokenId","type":"uint256","internalType":"uint256"}],"outputs":[{"name":"","type":"address","internalType":"address"}],"stateMutability":"view"},{"type":"function","name":"registerModel","inputs":[{"name":"modelURI","type":"string","internalType":"string"},{"name":"inferencePrice","type":"uint256","internalType":"uint256"}],"outputs":[{"name":"modelId","type":"uint256","internalType":"uint256"}],"stateMutability":"nonpayable"},{"type":"function","name":"renounceOwnership","inputs":[],"outputs":[],"stateMutability":"nonpayable"},{"type":"function","name":"requestInference","inputs":[{"name":"modelId","type":"uint256","internalType":"uint256"},{"name":"inputData","type":"bytes","internalType":"bytes"}],"outputs":[{"name":"requestId","type":"uint256","internalType":"uint256"}],"stateMutability":"payable"},{"type":"function","name":"safeTransferFrom","inputs":[{"name":"from","type":"address","internalType":"address"},{"name":"to","type":"address","internalType":"address"},{"name":"tokenId","type":"uint256","internalType":"uint256"}],"outputs":[],"stateMutability":"nonpayable"},{"type":"function","name":"safeTransferFrom","inputs":[{"name":"from","type":"address","internalType":"address"},{"name":"to","type":"address","internalType":"address"},{"name":"tokenId","type":"uint256","internalType":"uint256"},{"name":"data","type":"bytes","internalType":"bytes"}],"outputs":[],"stateMutability":"nonpayable"},{"type":"function","name":"setApprovalForAll","inputs":[{"name":"operator","type":"address","internalType":"address"},{"name":"approved","type":"bool","internalType":"bool"}],"outputs":[],"stateMutability":"nonpayable"},{"type":"function","name":"submitInference","inputs":[{"name":"requestId","type":"uint256","internalType":"uint256"},{"name":"outputData","type":"bytes","internalType":"bytes"},{"name":"confidence","type":"uint256","internalType":"uint256"}],"outputs":[],"stateMutability":"nonpayable"},{"type":"function","name":"supportsInterface","inputs":[{"name":"interfaceId","type":"bytes4","internalType":"bytes4"}],"outputs":[{"name":"","type":"bool","internalType":"bool"}],"stateMutability":"view"},{"type":"function","name":"symbol","inputs":[],"outputs":[{"name":"","type":"string","internalType":"string"}],"stateMutability":"view"},{"type":"function","name":"tokenURI","inputs":[{"name":"tokenId","type":"uint256","internalType":"uint256"}],"outputs":[{"name":"","type":"string","internalType":"string"}],"stateMutability":"view"},{"type":"function","name":"totalPlatformFees","inputs":[],"outputs":[{"name":"","type":"uint256","internalType":"uint256"}],"stateMutability":"view"},{"type":"function","name":"transferFrom","inputs":[{"name":"from","type":"address","internalType":"address"},{"name":"to","type":"address","internalType":"address"},{"name":"tokenId","type":"uint256","internalType":"uint256"}],"outputs":[],"stateMutability":"nonpayable"},{"type":"function","name":"transferOwnership","inputs":[{"name":"newOwner","type":"address","internalType":"address"}],"outputs":[],"stateMutability":"nonpayable"},{"type":"function","name":"updateModelPerformance","inputs":[{"name":"requestId","type":"uint256","internalType":"uint256"},{"name":"wasCorrect","type":"bool","internalType":"bool"},{"name":"actualPnL","type":"int256","internalType":"int256"}],"outputs":[],"stateMutability":"nonpayable"},{"type":"function","name":"updateModelPrice","inputs":[{"name":"modelId","type":"uint256","internalType":"uint256"},{"name":"newPrice","type":"uint256","internalType":"uint256"}],"outputs":[],"stateMutability":"nonpayable"},{"type":"function","name":"withdrawPlatformFees","inputs":[],"outputs":[],"stateMutability":"nonpayable"},{"type":"event","name":"Approval","inputs":[{"name":"owner","type":"address","indexed":true,"internalType":"address"},{"name":"approved","type":"address","indexed":true,"internalType":"address"},{"name":"tokenId","type":"uint256","indexed":true,"internalType":"uint256"}],"anonymous":false},{"type":"event","name":"ApprovalForAll","inputs":[{"name":"owner","type":"address","indexed":true,"internalType":"address"},{"name":"operator","type":"address","indexed":true,"internalType":"address"},{"name":"approved","type":"bool","indexed":false,"internalType":"bool"}],"anonymous":false},{"type":"event","name":"InferenceCompleted","inputs":[{"name":"requestId","type":"uint256","indexed":true,"internalType":"uint256"},{"name":"modelId","type":"uint256","indexed":true,"internalType":"uint256"},{"name":"outputData","type":"bytes","indexed":false,"internalType":"bytes"},{"name":"confidence","type":"uint256","indexed":false,"internalType":"uint256"}],"anonymous":false},{"type":"event","name":"InferenceRequested","inputs":[{"name":"requestId","type":"uint256","indexed":true,"internalType":"uint256"},{"name":"modelId","type":"uint256","indexed":true,"internalType":"uint256"},{"name":"requester","type":"address","indexed":true,"internalType":"address"},{"name":"inputData","type":"bytes","indexed":false,"internalType":"bytes"}],"anonymous":false},{"type":"event","name":"ModelRegistered","inputs":[{"name":"modelId","type":"uint256","indexed":true,"internalType":"uint256"},{"name":"owner","type":"address","indexed":true,"internalType":"address"},{"name":"modelURI","type":"string","indexed":false,"internalType":"string"},{"name":"inferencePrice","type":"uint256","indexed":false,"internalType":"uint256"}],"anonymous":false},{"type":"event","name":"OwnershipTransferred","inputs":[{"name":"previousOwner","type":"address","indexed":true,"internalType":"address"},{"name":"newOwner","type":"address","indexed":true,"internalType":"address"}],"anonymous":false},{"type":"event","name":"PerformanceUpdated","inputs":[{"name":"modelId","type":"uint256","indexed":true,"internalType":"uint256"},{"name":"accuracy","type":"uint256","indexed":false,"internalType":"uint256"},{"name":"totalInferences","type":"uint256","indexed":false,"internalType":"uint256"}],"anonymous":false},{"type":"event","name":"Transfer","inputs":[{"name":"from","type":"address","indexed":true,"internalType":"address"},{"name":"to","type":"address","indexed":true,"internalType":"address"},{"name":"tokenId","type":"uint256","indexed":true,"internalType":"uint256"}],"anonymous":false},{"type":"error","name":"ERC721IncorrectOwner","inputs":[{"name":"sender","type":"address","internalType":"address"},{"name":"tokenId","type":"uint256","internalType":"uint256"},{"name":"owner","type":"address","internalType":"address"}]},{"type":"error","name":"ERC721InsufficientApproval","inputs":[{"name":"operator","type":"address","internalType":"address"},{"name":"tokenId","type":"uint256","internalType":"uint256"}]},{"type":"error","name":"ERC721InvalidApprover","inputs":[{"name":"approver","type":"address","internalType":"address"}]},{"type":"error","name":"ERC721InvalidOperator","inputs":[{"name":"operator","type":"address","internalType":"address"}]},{"type":"error","name":"ERC721InvalidOwner","inputs":[{"name":"owner","type":"address","internalType":"address"}]},{"type":"error","name":"ERC721InvalidReceiver","inputs":[{"name":"receiver","type":"address","internalType":"address"}]},{"type":"error","name":"ERC721InvalidSender","inputs":[{"name":"sender","type":"address","internalType":"address"}]},{"type":"error","name":"ERC721NonexistentToken","inputs":[{"name":"tokenId","type":"uint256","internalType":"uint256"}]},{"type":"error","name":"OwnableInvalidOwner","inputs":[{"name":"owner","type":"address","internalType":"address"}]},{"type":"error","name":"OwnableUnauthorizedAccount","inputs":[{"name":"account","type":"address","internalType":"address"}]},{"type":"error","name":"ReentrancyGuardReentrantCall","inputs":[]}],"bytecode":{"object":"0x608060405234801562000010575f80fd5b50336040518060400160405280601081526020016f105248151c98591a5b99c8135bd9195b60821b815250604051806040016040528060048152602001634149544d60e01b815250815f9081620000689190620001d7565b506001620000778282620001d7565b5050506001600160a01b038116620000a857604051631e4fbdf760e01b81525f600482015260240160405180910390fd5b620000b381620000e8565b5060017f9b779b17422d0df92223018b32b4d1fa46e071723d6817e2486d003becc55f005560016009819055600a55620002a3565b600680546001600160a01b038381166001600160a01b0319831681179093556040519116919082907f8be0079c531659141344cd1fd0a4f28419497f9722a3daafe3b4186f6b6457e0905f90a35050565b634e487b7160e01b5f52604160045260245ffd5b600181811c908216806200016257607f821691505b6020821081036200018157634e487b7160e01b5f52602260045260245ffd5b50919050565b601f821115620001d257805f5260205f20601f840160051c81016020851015620001ae5750805b601f840160051c820191505b81811015620001cf575f8155600101620001ba565b50505b505050565b81516001600160401b03811115620001f357620001f362000139565b6200020b816200020484546200014d565b8462000187565b602080601f83116001811462000241575f8415620002295750858301515b5f19600386901b1c1916600185901b1785556200029b565b5f85815260208120601f198616915b82811015620002715788860151825594840194600190910190840162000250565b50858210156200028f57878501515f19600388901b60f8161c191681555b505060018460011b0185555b505050505050565b612b4080620002b15f395ff3fe6080604052600436106101fc575f3560e01c806370a0823111610113578063cb3606241161009d578063e472ae8b1161006d578063e472ae8b14610640578063e985e9c514610655578063efb66ee814610674578063efe63776146106a4578063f2fde38b146106c3575f80fd5b8063cb360624146105c5578063d0b7830b146105e4578063d3631fa5146105f8578063ddbf7b3d1461060d575f80fd5b806395d89b41116100e357806395d89b4114610524578063a22cb46514610538578063b88d4fde14610557578063c7d8e8c514610576578063c87b56dd146105a6575f80fd5b806370a0823114610461578063715018a614610480578063793da33d146104945780638da5cb5b14610507575f80fd5b8063250d620211610194578063560d52d411610164578063560d52d4146103b557806361c992a3146103c95780636352211e146103f75780636a030ca9146104165780636a84a9851461044c575f80fd5b8063250d62021461032957806342842e0e1461034a57806349bd293e146103695780634e374d5a14610388575f80fd5b80630c2c69fa116101cf5780630c2c69fa146102ad5780631e10f86b146102cc57806320f9b6b3146102eb57806323b872dd1461030a575f80fd5b806301ffc9a71461020057806306fdde0314610234578063081812fc14610255578063095ea7b31461028c575b5f80fd5b34801561020b575f80fd5b5061021f61021a3660046121bf565b6106e2565b60405190151581526020015b60405180910390f35b34801561023f575f80fd5b50610248610733565b60405161022b9190612227565b348015610260575f80fd5b5061027461026f366004612239565b6107c2565b6040516001600160a01b03909116815260200161022b565b348015610297575f80fd5b506102ab6102a636600461226b565b6107e9565b005b3480156102b8575f80fd5b506102ab6102c73660046122a2565b6107f8565b3480156102d7575f80fd5b506102ab6102e6366004612239565b61082a565b3480156102f6575f80fd5b506102ab6103053660046122d3565b61089b565b348015610315575f80fd5b506102ab610324366004612305565b610a1f565b61033c610337366004612373565b610aa8565b60405190815260200161022b565b348015610355575f80fd5b506102ab610364366004612305565b610ce1565b348015610374575f80fd5b5061033c6103833660046123bb565b610d00565b348015610393575f80fd5b506103a76103a2366004612239565b610f24565b60405161022b92919061243d565b3480156103c0575f80fd5b5061033c600581565b3480156103d4575f80fd5b5061021f6103e336600461246a565b600c6020525f908152604090205460ff1681565b348015610402575f80fd5b50610274610411366004612239565b6110f4565b348015610421575f80fd5b50610435610430366004612239565b6110fe565b60405161022b9b9a99989796959493929190612483565b348015610457575f80fd5b5061033c600a5481565b34801561046c575f80fd5b5061033c61047b36600461246a565b6111e9565b34801561048b575f80fd5b506102ab61122e565b34801561049f575f80fd5b506104df6104ae366004612239565b5f90815260076020526040902060088101546009820154600a83015460058401546004909401549294919390929091565b604080519586526020860194909452928401919091526060830152608082015260a00161022b565b348015610512575f80fd5b506006546001600160a01b0316610274565b34801561052f575f80fd5b50610248611241565b348015610543575f80fd5b506102ab6105523660046122a2565b611250565b348015610562575f80fd5b506102ab610571366004612503565b61125b565b348015610581575f80fd5b50610595610590366004612239565b611273565b60405161022b9594939291906125d8565b3480156105b1575f80fd5b506102486105c0366004612239565b611351565b3480156105d0575f80fd5b506102ab6105df366004612615565b6113c1565b3480156105ef575f80fd5b506102ab611466565b348015610603575f80fd5b5061033c600b5481565b348015610618575f80fd5b5061062c610627366004612239565b611504565b60405161022b989796959493929190612635565b34801561064b575f80fd5b5061033c60095481565b348015610660575f80fd5b5061021f61066f36600461269b565b611661565b34801561067f575f80fd5b5061069361068e366004612239565b61168e565b60405161022b9594939291906126c3565b3480156106af575f80fd5b506102ab6106be366004612703565b61176b565b3480156106ce575f80fd5b506102ab6106dd36600461246a565b61199a565b5f6001600160e01b031982166380ac58cd60e01b148061071257506001600160e01b03198216635b5e139f60e01b145b8061072d57506301ffc9a760e01b6001600160e01b03198316145b92915050565b60605f805461074190612752565b80601f016020809104026020016040519081016040528092919081815260200182805461076d90612752565b80156107b85780601f1061078f576101008083540402835291602001916107b8565b820191905f5260205f20905b81548152906001019060200180831161079b57829003601f168201915b5050505050905090565b5f6107cc826119d7565b505f828152600460205260409020546001600160a01b031661072d565b6107f4828233611a0f565b5050565b610800611a1c565b6001600160a01b03919091165f908152600c60205260409020805460ff1916911515919091179055565b33610834826110f4565b6001600160a01b0316146108815760405162461bcd60e51b815260206004820152600f60248201526e2737ba1036b7b232b61037bbb732b960891b60448201526064015b60405180910390fd5b5f908152600760205260409020600601805460ff19169055565b5f838152600860205260409020600681015460ff166108ec5760405162461bcd60e51b815260206004820152600d60248201526c139bdd0818dbdb5c1b195d1959609a1b6044820152606401610878565b60018101546001600160a01b031633148061091157506006546001600160a01b031633145b61094e5760405162461bcd60e51b815260206004820152600e60248201526d139bdd08185d5d1a1bdc9a5e995960921b6044820152606401610878565b80545f908152600760205260408120600981018054919261096e8361279e565b9190505550831561099057600881018054905f61098a8361279e565b91905055505b8281600a015f8282546109a391906127b6565b9091555050600981015460088201546109be906127106127dd565b6109c891906127f4565b600482018190558254600383015460405191927fcfad70fb533f2073c73626d88b038c57fd9dc8daa8a708ce9d09af45adb1c5ef92610a109290918252602082015260400190565b60405180910390a25050505050565b6001600160a01b038216610a4857604051633250574960e11b81525f6004820152602401610878565b5f610a54838333611a49565b9050836001600160a01b0316816001600160a01b031614610aa2576040516364283d7b60e01b81526001600160a01b0380861660048301526024820184905282166044820152606401610878565b50505050565b5f610ab1611a96565b5f848152600760205260409020600681015460ff16610b055760405162461bcd60e51b815260206004820152601060248201526f4d6f64656c206e6f742061637469766560801b6044820152606401610878565b8060020154341015610b505760405162461bcd60e51b8152602060048201526014602482015273125b9cdd59999a58da595b9d081c185e5b595b9d60621b6044820152606401610878565b600a8054905f610b5f8361279e565b919050559150604051806101000160405280868152602001336001600160a01b0316815260200185858080601f0160208091040260200160405190810160405280939291908181526020018383808284375f9201829052509385525050604080516020808201835284825280860191909152818501849052426060860152608085018490523460a090950194909452868352600884529182902084518155928401516001840180546001600160a01b0319166001600160a01b03909216919091179055508201516002820190610c359082612857565b5060608201516003820190610c4a9082612857565b506080820151600482015560a0820151600582015560c082015160068201805460ff191691151591909117905560e0909101516007909101556040513390869084907fe48ca8c1daa6af6f38e4a1671c1c911e5a1b1b1a8552293bc28b9700b8c0c31990610cbb908990899061293b565b60405180910390a450610cda60015f80516020612aeb83398151915255565b9392505050565b610cfb83838360405180602001604052805f81525061125b565b505050565b5f82610d3a5760405162461bcd60e51b8152602060048201526009602482015268456d7074792055524960b81b6044820152606401610878565b5f8211610d795760405162461bcd60e51b815260206004820152600d60248201526c496e76616c696420707269636560981b6044820152606401610878565b60098054905f610d888361279e565b919050559050604051806101600160405280336001600160a01b0316815260200185858080601f0160208091040260200160405190810160405280939291908181526020018383808284375f92018290525093855250505060208083018690526040808401839052611388606085015260808401839052600160a085018190524260c086015260e08501849052610100850184905261012090940183905285835260078252909120835181546001600160a01b0319166001600160a01b03909116178155908301519091820190610e5f9082612857565b5060408201516002820155606082015160038201556080820151600482015560a0820151600582015560c082015160068201805460ff191691151591909117905560e082015160078201556101008201516008820155610120820151600982015561014090910151600a90910155610ed73382611ab1565b336001600160a01b0316817f014ed8d238576d2b30ced417ba64fa4db7c350b5f09ffa335abaefcc33047e7b868686604051610f159392919061294e565b60405180910390a39392505050565b6060805f6001600954610f379190612971565b90505f818511610f475784610f49565b815b90508067ffffffffffffffff811115610f6457610f646124ef565b604051908082528060200260200182016040528015610f8d578160200160208202803683370190505b5093508067ffffffffffffffff811115610fa957610fa96124ef565b604051908082528060200260200182016040528015610fd2578160200160208202803683370190505b5092505f5b818110156110ec575f8060015b60095481101561109c575f8181526007602052604090206006015460ff1615611094575f81815260076020526040902060090154600a11611094575f81815260076020526040902060040154831015611094575f805b8581101561107357828a828151811061105557611055612984565b60200260200101510361106b5760019150611073565b60010161103a565b5080611092575f82815260076020526040902060040154935090915081905b505b600101610fe4565b5080156110e257808784815181106110b6576110b6612984565b602002602001018181525050818684815181106110d5576110d5612984565b6020026020010181815250505b5050600101610fd7565b505050915091565b5f61072d826119d7565b60076020525f9081526040902080546001820180546001600160a01b03909216929161112990612752565b80601f016020809104026020016040519081016040528092919081815260200182805461115590612752565b80156111a05780601f10611177576101008083540402835291602001916111a0565b820191905f5260205f20905b81548152906001019060200180831161118357829003601f168201915b50505060028401546003850154600486015460058701546006880154600789015460088a015460098b0154600a909b0154999a9699959850939650919460ff909116939192918b565b5f6001600160a01b038216611213576040516322718ad960e21b81525f6004820152602401610878565b506001600160a01b03165f9081526003602052604090205490565b611236611a1c565b61123f5f611aca565b565b60606001805461074190612752565b6107f4338383611b1b565b611266848484610a1f565b610aa23385858585611bb9565b5f8181526008602052604081208054600182015460048301546005840154600385018054879660609688968796929591946001600160a01b03909116939092919083906112bf90612752565b80601f01602080910402602001604051908101604052809291908181526020018280546112eb90612752565b80156113365780601f1061130d57610100808354040283529160200191611336565b820191905f5260205f20905b81548152906001019060200180831161131957829003601f168201915b50505050509250955095509550955095505091939590929450565b606061135c826119d7565b505f61137260408051602081019091525f815290565b90505f8151116113905760405180602001604052805f815250610cda565b8061139a84611ce1565b6040516020016113ab929190612998565b6040516020818303038152906040529392505050565b336113cb836110f4565b6001600160a01b0316146114135760405162461bcd60e51b815260206004820152600f60248201526e2737ba1036b7b232b61037bbb732b960891b6044820152606401610878565b5f81116114525760405162461bcd60e51b815260206004820152600d60248201526c496e76616c696420707269636560981b6044820152606401610878565b5f9182526007602052604090912060020155565b61146e611a1c565b611476611a96565b600b54806114b05760405162461bcd60e51b81526020600482015260076024820152664e6f206665657360c81b6044820152606401610878565b5f600b8190556006546040516001600160a01b039091169183156108fc02918491818181858888f193505050501580156114ec573d5f803e3d5ffd5b505061123f60015f80516020612aeb83398151915255565b60086020525f908152604090208054600182015460028301805492936001600160a01b039092169261153590612752565b80601f016020809104026020016040519081016040528092919081815260200182805461156190612752565b80156115ac5780601f10611583576101008083540402835291602001916115ac565b820191905f5260205f20905b81548152906001019060200180831161158f57829003601f168201915b5050505050908060030180546115c190612752565b80601f01602080910402602001604051908101604052809291908181526020018280546115ed90612752565b80156116385780601f1061160f57610100808354040283529160200191611638565b820191905f5260205f20905b81548152906001019060200180831161161b57829003601f168201915b5050506004840154600585015460068601546007909601549495919490935060ff909116915088565b6001600160a01b039182165f90815260056020908152604080832093909416825291909152205460ff1690565b5f818152600760205260408120805460028201546003830154600484015460018501805460609688968796879692956001600160a01b0390921694939092919084906116d990612752565b80601f016020809104026020016040519081016040528092919081815260200182805461170590612752565b80156117505780601f1061172757610100808354040283529160200191611750565b820191905f5260205f20905b81548152906001019060200180831161173357829003601f168201915b50505050509350955095509550955095505091939590929450565b5f848152600860209081526040808320805484526007909252909120600682015460ff16156117d05760405162461bcd60e51b8152602060048201526011602482015270105b1c9958591e4818dbdb5c1b195d1959607a1b6044820152606401610878565b80546001600160a01b03163314806117f65750335f908152600c602052604090205460ff165b6118335760405162461bcd60e51b815260206004820152600e60248201526d139bdd08185d5d1a1bdc9a5e995960921b6044820152606401610878565b61271083111561187a5760405162461bcd60e51b8152602060048201526012602482015271496e76616c696420636f6e666964656e636560701b6044820152606401610878565b600382016118898587836129c6565b506004820183905560068201805460ff19166001179055600381018054905f6118b18361279e565b91905055505f6064600584600701546118ca91906127dd565b6118d491906127f4565b90505f8184600701546118e79190612971565b905080836005015f8282546118fc9190612a80565b9250508190555081600b5f8282546119149190612a80565b909155505082546040516001600160a01b039091169082156108fc029083905f818181858888f1935050505015801561194f573d5f803e3d5ffd5b50835f0154887f40ddd1a9779e9f82f5abecf1e4582790ca0db004f0f84617006d90e6814c24a98989896040516119889392919061294e565b60405180910390a35050505050505050565b6119a2611a1c565b6001600160a01b0381166119cb57604051631e4fbdf760e01b81525f6004820152602401610878565b6119d481611aca565b50565b5f818152600260205260408120546001600160a01b03168061072d57604051637e27328960e01b815260048101849052602401610878565b610cfb8383836001611d71565b6006546001600160a01b0316331461123f5760405163118cdaa760e01b8152336004820152602401610878565b5f80611a56858585611e75565b90506001600160a01b03851615611a8e575f84815260076020526040902080546001600160a01b0319166001600160a01b0387161790555b949350505050565b611a9e611f67565b60025f80516020612aeb83398151915255565b6107f4828260405180602001604052805f815250611f96565b600680546001600160a01b038381166001600160a01b0319831681179093556040519116919082907f8be0079c531659141344cd1fd0a4f28419497f9722a3daafe3b4186f6b6457e0905f90a35050565b6001600160a01b038216611b4d57604051630b61174360e31b81526001600160a01b0383166004820152602401610878565b6001600160a01b038381165f81815260056020908152604080832094871680845294825291829020805460ff191686151590811790915591519182527f17307eab39ab6107e8899845ad3d59bd9653f200f220920489ca2b5937696c31910160405180910390a3505050565b6001600160a01b0383163b15611cda57604051630a85bd0160e11b81526001600160a01b0384169063150b7a0290611bfb908890889087908790600401612a93565b6020604051808303815f875af1925050508015611c35575060408051601f3d908101601f19168201909252611c3291810190612acf565b60015b611c9c573d808015611c62576040519150601f19603f3d011682016040523d82523d5f602084013e611c67565b606091505b5080515f03611c9457604051633250574960e11b81526001600160a01b0385166004820152602401610878565b805160208201fd5b6001600160e01b03198116630a85bd0160e11b14611cd857604051633250574960e11b81526001600160a01b0385166004820152602401610878565b505b5050505050565b60605f611ced83611fad565b60010190505f8167ffffffffffffffff811115611d0c57611d0c6124ef565b6040519080825280601f01601f191660200182016040528015611d36576020820181803683370190505b5090508181016020015b5f19016f181899199a1a9b1b9c1cb0b131b232b360811b600a86061a8153600a8504945084611d4057509392505050565b8080611d8557506001600160a01b03821615155b15611e46575f611d94846119d7565b90506001600160a01b03831615801590611dc05750826001600160a01b0316816001600160a01b031614155b8015611dd35750611dd18184611661565b155b15611dfc5760405163a9fbf51f60e01b81526001600160a01b0384166004820152602401610878565b8115611e445783856001600160a01b0316826001600160a01b03167f8c5be1e5ebec7d5bd14f71427d1e84f3dd0314c0f7b2291e5b200ac8c7c3b92560405160405180910390a45b505b50505f90815260046020526040902080546001600160a01b0319166001600160a01b0392909216919091179055565b5f828152600260205260408120546001600160a01b0390811690831615611ea157611ea1818486612084565b6001600160a01b03811615611edb57611ebc5f855f80611d71565b6001600160a01b0381165f90815260036020526040902080545f190190555b6001600160a01b03851615611f09576001600160a01b0385165f908152600360205260409020805460010190555b5f8481526002602052604080822080546001600160a01b0319166001600160a01b0389811691821790925591518793918516917fddf252ad1be2c89b69c2b068fc378daa952ba7f163c4a11628f55a4df523b3ef91a4949350505050565b5f80516020612aeb8339815191525460020361123f57604051633ee5aeb560e01b815260040160405180910390fd5b611fa083836120e8565b610cfb335f858585611bb9565b5f8072184f03e93ff9f4daa797ed6e38ed64bf6a1f0160401b8310611feb5772184f03e93ff9f4daa797ed6e38ed64bf6a1f0160401b830492506040015b6d04ee2d6d415b85acef81000000008310612017576d04ee2d6d415b85acef8100000000830492506020015b662386f26fc10000831061203557662386f26fc10000830492506010015b6305f5e100831061204d576305f5e100830492506008015b612710831061206157612710830492506004015b60648310612073576064830492506002015b600a831061072d5760010192915050565b61208f838383612149565b610cfb576001600160a01b0383166120bd57604051637e27328960e01b815260048101829052602401610878565b60405163177e802f60e01b81526001600160a01b038316600482015260248101829052604401610878565b6001600160a01b03821661211157604051633250574960e11b81525f6004820152602401610878565b5f61211d83835f611a49565b90506001600160a01b03811615610cfb576040516339e3563760e11b81525f6004820152602401610878565b5f6001600160a01b03831615801590611a8e5750826001600160a01b0316846001600160a01b0316148061218257506121828484611661565b80611a8e5750505f908152600460205260409020546001600160a01b03908116911614919050565b6001600160e01b0319811681146119d4575f80fd5b5f602082840312156121cf575f80fd5b8135610cda816121aa565b5f5b838110156121f45781810151838201526020016121dc565b50505f910152565b5f81518084526122138160208601602086016121da565b601f01601f19169290920160200192915050565b602081525f610cda60208301846121fc565b5f60208284031215612249575f80fd5b5035919050565b80356001600160a01b0381168114612266575f80fd5b919050565b5f806040838503121561227c575f80fd5b61228583612250565b946020939093013593505050565b80358015158114612266575f80fd5b5f80604083850312156122b3575f80fd5b6122bc83612250565b91506122ca60208401612293565b90509250929050565b5f805f606084860312156122e5575f80fd5b833592506122f560208501612293565b9150604084013590509250925092565b5f805f60608486031215612317575f80fd5b61232084612250565b92506122f560208501612250565b5f8083601f84011261233e575f80fd5b50813567ffffffffffffffff811115612355575f80fd5b60208301915083602082850101111561236c575f80fd5b9250929050565b5f805f60408486031215612385575f80fd5b83359250602084013567ffffffffffffffff8111156123a2575f80fd5b6123ae8682870161232e565b9497909650939450505050565b5f805f604084860312156123cd575f80fd5b833567ffffffffffffffff8111156123e3575f80fd5b6123ef8682870161232e565b909790965060209590950135949350505050565b5f815180845260208085019450602084015f5b8381101561243257815187529582019590820190600101612416565b509495945050505050565b604081525f61244f6040830185612403565b82810360208401526124618185612403565b95945050505050565b5f6020828403121561247a575f80fd5b610cda82612250565b6001600160a01b038c168152610160602082018190525f906124a78382018e6121fc565b604084019c909c5250506060810198909852608088019690965260a087019490945291151560c086015260e08501526101008401526101208301526101409091015292915050565b634e487b7160e01b5f52604160045260245ffd5b5f805f8060808587031215612516575f80fd5b61251f85612250565b935061252d60208601612250565b925060408501359150606085013567ffffffffffffffff80821115612550575f80fd5b818701915087601f830112612563575f80fd5b813581811115612575576125756124ef565b604051601f8201601f19908116603f0116810190838211818310171561259d5761259d6124ef565b816040528281528a60208487010111156125b5575f80fd5b826020860160208301375f60208483010152809550505050505092959194509250565b8581526001600160a01b038516602082015260a0604082018190525f90612601908301866121fc565b606083019490945250608001529392505050565b5f8060408385031215612626575f80fd5b50508035926020909101359150565b8881526001600160a01b0388166020820152610100604082018190525f9061265f8382018a6121fc565b9050828103606084015261267381896121fc565b6080840197909752505060a081019390935290151560c083015260e090910152949350505050565b5f80604083850312156126ac575f80fd5b6126b583612250565b91506122ca60208401612250565b6001600160a01b038616815260a0602082018190525f906126e6908301876121fc565b604083019590955250606081019290925260809091015292915050565b5f805f8060608587031215612716575f80fd5b84359350602085013567ffffffffffffffff811115612733575f80fd5b61273f8782880161232e565b9598909750949560400135949350505050565b600181811c9082168061276657607f821691505b60208210810361278457634e487b7160e01b5f52602260045260245ffd5b50919050565b634e487b7160e01b5f52601160045260245ffd5b5f600182016127af576127af61278a565b5060010190565b8082018281125f8312801582168215821617156127d5576127d561278a565b505092915050565b808202811582820484141761072d5761072d61278a565b5f8261280e57634e487b7160e01b5f52601260045260245ffd5b500490565b601f821115610cfb57805f5260205f20601f840160051c810160208510156128385750805b601f840160051c820191505b81811015611cda575f8155600101612844565b815167ffffffffffffffff811115612871576128716124ef565b6128858161287f8454612752565b84612813565b602080601f8311600181146128b8575f84156128a15750858301515b5f19600386901b1c1916600185901b178555611cd8565b5f85815260208120601f198616915b828110156128e6578886015182559484019460019091019084016128c7565b508582101561290357878501515f19600388901b60f8161c191681555b5050505050600190811b01905550565b81835281816020850137505f828201602090810191909152601f909101601f19169091010190565b602081525f611a8e602083018486612913565b604081525f612961604083018587612913565b9050826020830152949350505050565b8181038181111561072d5761072d61278a565b634e487b7160e01b5f52603260045260245ffd5b5f83516129a98184602088016121da565b8351908301906129bd8183602088016121da565b01949350505050565b67ffffffffffffffff8311156129de576129de6124ef565b6129f2836129ec8354612752565b83612813565b5f601f841160018114612a23575f8515612a0c5750838201355b5f19600387901b1c1916600186901b178355611cda565b5f83815260208120601f198716915b82811015612a525786850135825560209485019460019092019101612a32565b5086821015612a6e575f1960f88860031b161c19848701351681555b505060018560011b0183555050505050565b8082018082111561072d5761072d61278a565b6001600160a01b03858116825284166020820152604081018390526080606082018190525f90612ac5908301846121fc565b9695505050505050565b5f60208284031215612adf575f80fd5b8151610cda816121aa56fe9b779b17422d0df92223018b32b4d1fa46e071723d6817e2486d003becc55f00a26469706673582212204ec3095a45080a37e0652df2f2cd2697856be60730bf24c2cc649da3fa061a7064736f6c63430008180033","linkReferences":{}},"methodIdentifiers":{"PLATFORM_FEE_PERCENT()":"560d52d4","approve(address,uint256)":"095ea7b3","authorizeOracle(address,bool)":"0c2c69fa","authorizedOracles(address)":"61c992a3","balanceOf(address)":"70a08231","deactivateModel(uint256)":"1e10f86b","getApproved(uint256)":"081812fc","getInferenceResult(uint256)":"c7d8e8c5","getModelInfo(uint256)":"efb66ee8","getModelMetrics(uint256)":"793da33d","getTopModels(uint256)":"4e374d5a","inferenceRequests(uint256)":"ddbf7b3d","isApprovedForAll(address,address)":"e985e9c5","models(uint256)":"6a030ca9","name()":"06fdde03","nextModelId()":"e472ae8b","nextRequestId()":"6a84a985","owner()":"8da5cb5b","ownerOf(uint256)":"6352211e","registerModel(string,uint256)":"49bd293e","renounceOwnership()":"715018a6","requestInference(uint256,bytes)":"250d6202","safeTransferFrom(address,address,uint256)":"42842e0e","safeTransferFrom(address,address,uint256,bytes)":"b88d4fde","setApprovalForAll(address,bool)":"a22cb465","submitInference(uint256,bytes,uint256)":"efe63776","supportsInterface(bytes4)":"01ffc9a7","symbol()":"95d89b41","tokenURI(uint256)":"c87b56dd","totalPlatformFees()":"d3631fa5","transferFrom(address,address,uint256)":"23b872dd","transferOwnership(address)":"f2fde38b","updateModelPerformance(uint256,bool,int256)":"20f9b6b3","updateModelPrice(uint256,uint256)":"cb360624","withdrawPlatformFees()":"d0b7830b"},"id":40}