{"abi":[{"type":"constructor","inputs":[],"stateMutability":"nonpayable"},{"type":"receive","stateMutability":"payable"},{"type":"function","name":"PLATFORM_FEE_PERCENT","inputs":[],"outputs":[{"name":"","type":"uint256","internalType":"uint256"}],"stateMutability":"view"},{"type":"function","name":"approve","inputs":[{"name":"to","type":"address","internalType":"address"},{"name":"tokenId","type":"uint256","internalType":"uint256"}],"outputs":[],"stateMutability":"nonpayable"},{"type":"function","name":"authorizeOracle","inputs":[{"name":"oracle","type":"address","internalType":"address"},{"name":"authorized","type":"bool","internalType":"bool"}],"outputs":[],"stateMutability":"nonpayable"},{"type":"function","name":"authorizedOracles","inputs":[{"name":"","type":"address","internalType":"address"}],"outputs":[{"name":"","type":"bool","internalType":"bool"}],"stateMutability":"view"},{"type":"function","name":"balanceOf","inputs":[{"name":"owner","type":"address","internalType":"address"}],"outputs":[{"name":"","type":"uint256","internalType":"uint256"}],"stateMutability":"view"},{"type":"function","name":"deactivateModel","inputs":[{"name":"modelId","type":"uint256","internalType":"uint256"}],"outputs":[],"stateMutability":"nonpayable"},{"type":"function","name":"depositYield","inputs":[{"name":"modelId","type":"uint256","internalType":"uint256"}],"outputs":[],"stateMutability":"payable"},{"type":"function","name":"executeStrategy","inputs":[{"name":"modelId","type":"uint256","internalType":"uint256"},{"name":"target","type":"address","internalType":"address"},{"name":"value","type":"uint256","internalType":"uint256"},{"name":"data","type":"bytes","internalType":"bytes"}],"outputs":[],"stateMutability":"payable"},{"type":"function","name":"getApproved","inputs":[{"name":"tokenId","type":"uint256","internalType":"uint256"}],"outputs":[{"name":"","type":"address","internalType":"address"}],"stateMutability":"view"},{"type":"function","name":"getInferenceResult","inputs":[{"name":"requestId","type":"uint256","internalType":"uint256"}],"outputs":[{"name":"modelId","type":"uint256","internalType":"uint256"},{"name":"requester","type":"address","internalType":"address"},{"name":"outputData","type":"bytes","internalType":"bytes"},{"name":"confidence","type":"uint256","internalType":"uint256"},{"name":"timestamp","type":"uint256","internalType":"uint256"}],"stateMutability":"view"},{"type":"function","name":"getInvestmentInfo","inputs":[{"name":"modelId","type":"uint256","internalType":"uint256"},{"name":"user","type":"address","internalType":"address"}],"outputs":[{"name":"amount","type":"uint256","internalType":"uint256"},{"name":"lastInvestTimestamp","type":"uint256","internalType":"uint256"},{"name":"currentStreamingFee","type":"uint256","internalType":"uint256"}],"stateMutability":"view"},{"type":"function","name":"getModelInfo","inputs":[{"name":"modelId","type":"uint256","internalType":"uint256"}],"outputs":[{"name":"owner_","type":"address","internalType":"address"},{"name":"modelURI","type":"string","internalType":"string"},{"name":"inferencePrice","type":"uint256","internalType":"uint256"},{"name":"totalInferences","type":"uint256","internalType":"uint256"},{"name":"accuracy","type":"uint256","internalType":"uint256"}],"stateMutability":"view"},{"type":"function","name":"getModelMetrics","inputs":[{"name":"modelId","type":"uint256","internalType":"uint256"}],"outputs":[{"name":"correctPredictions","type":"uint256","internalType":"uint256"},{"name":"totalPredictions","type":"uint256","internalType":"uint256"},{"name":"totalPnL","type":"int256","internalType":"int256"},{"name":"totalRevenue","type":"uint256","internalType":"uint256"},{"name":"accuracy","type":"uint256","internalType":"uint256"}],"stateMutability":"view"},{"type":"function","name":"getTopModels","inputs":[{"name":"count","type":"uint256","internalType":"uint256"}],"outputs":[{"name":"modelIds","type":"uint256[]","internalType":"uint256[]"},{"name":"accuracies","type":"uint256[]","internalType":"uint256[]"}],"stateMutability":"view"},{"type":"function","name":"inferenceRequests","inputs":[{"name":"","type":"uint256","internalType":"uint256"}],"outputs":[{"name":"modelId","type":"uint256","internalType":"uint256"},{"name":"requester","type":"address","internalType":"address"},{"name":"inputData","type":"bytes","internalType":"bytes"},{"name":"outputData","type":"bytes","internalType":"bytes"},{"name":"confidence","type":"uint256","internalType":"uint256"},{"name":"timestamp","type":"uint256","internalType":"uint256"},{"name":"completed","type":"bool","internalType":"bool"},{"name":"pricePaid","type":"uint256","internalType":"uint256"}],"stateMutability":"view"},{"type":"function","name":"invest","inputs":[{"name":"modelId","type":"uint256","internalType":"uint256"}],"outputs":[],"stateMutability":"payable"},{"type":"function","name":"investments","inputs":[{"name":"","type":"uint256","internalType":"uint256"},{"name":"","type":"address","internalType":"address"}],"outputs":[{"name":"amount","type":"uint256","internalType":"uint256"},{"name":"lastInvestTimestamp","type":"uint256","internalType":"uint256"}],"stateMutability":"view"},{"type":"function","name":"isApprovedForAll","inputs":[{"name":"owner","type":"address","internalType":"address"},{"name":"operator","type":"address","internalType":"address"}],"outputs":[{"name":"","type":"bool","internalType":"bool"}],"stateMutability":"view"},{"type":"function","name":"models","inputs":[{"name":"","type":"uint256","internalType":"uint256"}],"outputs":[{"name":"owner","type":"address","internalType":"address"},{"name":"modelURI","type":"string","internalType":"string"},{"name":"inferencePrice","type":"uint256","internalType":"uint256"},{"name":"totalInferences","type":"uint256","internalType":"uint256"},{"name":"accuracy","type":"uint256","internalType":"uint256"},{"name":"totalRevenue","type":"uint256","internalType":"uint256"},{"name":"isActive","type":"bool","internalType":"bool"},{"name":"createdAt","type":"uint256","internalType":"uint256"},{"name":"correctPredictions","type":"uint256","internalType":"uint256"},{"name":"totalPredictions","type":"uint256","internalType":"uint256"},{"name":"totalPnL","type":"int256","internalType":"int256"},{"name":"streamingRate","type":"uint256","internalType":"uint256"}],"stateMutability":"view"},{"type":"function","name":"name","inputs":[],"outputs":[{"name":"","type":"string","internalType":"string"}],"stateMutability":"view"},{"type":"function","name":"nextModelId","inputs":[],"outputs":[{"name":"","type":"uint256","internalType":"uint256"}],"stateMutability":"view"},{"type":"function","name":"nextRequestId","inputs":[],"outputs":[{"name":"","type":"uint256","internalType":"uint256"}],"stateMutability":"view"},{"type":"function","name":"owner","inputs":[],"outputs":[{"name":"","type":"address","internalType":"address"}],"stateMutability":"view"},{"type":"function","name":"ownerOf","inputs":[{"name":"tokenId","type":"uint256","internalType":"uint256"}],"outputs":[{"name":"","type":"address","internalType":"address"}],"stateMutability":"view"},{"type":"function","name":"reactivateModel","inputs":[{"name":"modelId","type":"uint256","internalType":"uint256"}],"outputs":[],"stateMutability":"nonpayable"},{"type":"function","name":"registerModel","inputs":[{"name":"modelURI","type":"string","internalType":"string"},{"name":"inferencePrice","type":"uint256","internalType":"uint256"}],"outputs":[{"name":"modelId","type":"uint256","internalType":"uint256"}],"stateMutability":"nonpayable"},{"type":"function","name":"registerModel","inputs":[{"name":"modelURI","type":"string","internalType":"string"},{"name":"inferencePrice","type":"uint256","internalType":"uint256"},{"name":"streamingRate","type":"uint256","internalType":"uint256"}],"outputs":[{"name":"modelId","type":"uint256","internalType":"uint256"}],"stateMutability":"nonpayable"},{"type":"function","name":"renounceOwnership","inputs":[],"outputs":[],"stateMutability":"nonpayable"},{"type":"function","name":"requestInference","inputs":[{"name":"modelId","type":"uint256","internalType":"uint256"},{"name":"inputData","type":"bytes","internalType":"bytes"}],"outputs":[{"name":"requestId","type":"uint256","internalType":"uint256"}],"stateMutability":"payable"},{"type":"function","name":"safeTransferFrom","inputs":[{"name":"from","type":"address","internalType":"address"},{"name":"to","type":"address","internalType":"address"},{"name":"tokenId","type":"uint256","internalType":"uint256"}],"outputs":[],"stateMutability":"nonpayable"},{"type":"function","name":"safeTransferFrom","inputs":[{"name":"from","type":"address","internalType":"address"},{"name":"to","type":"address","internalType":"address"},{"name":"tokenId","type":"uint256","internalType":"uint256"},{"name":"data","type":"bytes","internalType":"bytes"}],"outputs":[],"stateMutability":"nonpayable"},{"type":"function","name":"setApprovalForAll","inputs":[{"name":"operator","type":"address","internalType":"address"},{"name":"approved","type":"bool","internalType":"bool"}],"outputs":[],"stateMutability":"nonpayable"},{"type":"function","name":"submitInference","inputs":[{"name":"requestId","type":"uint256","internalType":"uint256"},{"name":"outputData","type":"bytes","internalType":"bytes"},{"name":"confidence","type":"uint256","internalType":"uint256"}],"outputs":[],"stateMutability":"nonpayable"},{"type":"function","name":"supportsInterface","inputs":[{"name":"interfaceId","type":"bytes4","internalType":"bytes4"}],"outputs":[{"name":"","type":"bool","internalType":"bool"}],"stateMutability":"view"},{"type":"function","name":"symbol","inputs":[],"outputs":[{"name":"","type":"string","internalType":"string"}],"stateMutability":"view"},{"type":"function","name":"tokenURI","inputs":[{"name":"tokenId","type":"uint256","internalType":"uint256"}],"outputs":[{"name":"","type":"string","internalType":"string"}],"stateMutability":"view"},{"type":"function","name":"totalManagedAssets","inputs":[{"name":"","type":"uint256","internalType":"uint256"}],"outputs":[{"name":"","type":"uint256","internalType":"uint256"}],"stateMutability":"view"},{"type":"function","name":"totalPlatformFees","inputs":[],"outputs":[{"name":"","type":"uint256","internalType":"uint256"}],"stateMutability":"view"},{"type":"function","name":"totalShares","inputs":[{"name":"","type":"uint256","internalType":"uint256"}],"outputs":[{"name":"","type":"uint256","internalType":"uint256"}],"stateMutability":"view"},{"type":"function","name":"transferFrom","inputs":[{"name":"from","type":"address","internalType":"address"},{"name":"to","type":"address","internalType":"address"},{"name":"tokenId","type":"uint256","internalType":"uint256"}],"outputs":[],"stateMutability":"nonpayable"},{"type":"function","name":"transferOwnership","inputs":[{"name":"newOwner","type":"address","internalType":"address"}],"outputs":[],"stateMutability":"nonpayable"},{"type":"function","name":"updateModelPerformance","inputs":[{"name":"requestId","type":"uint256","internalType":"uint256"},{"name":"wasCorrect","type":"bool","internalType":"bool"},{"name":"actualPnL","type":"int256","internalType":"int256"}],"outputs":[],"stateMutability":"nonpayable"},{"type":"function","name":"updateModelPrice","inputs":[{"name":"modelId","type":"uint256","internalType":"uint256"},{"name":"newPrice","type":"uint256","internalType":"uint256"}],"outputs":[],"stateMutability":"nonpayable"},{"type":"function","name":"updateStreamingRate","inputs":[{"name":"modelId","type":"uint256","internalType":"uint256"},{"name":"newStreamingRate","type":"uint256","internalType":"uint256"}],"outputs":[],"stateMutability":"nonpayable"},{"type":"function","name":"withdraw","inputs":[{"name":"modelId","type":"uint256","internalType":"uint256"},{"name":"sharesToBurn","type":"uint256","internalType":"uint256"}],"outputs":[],"stateMutability":"nonpayable"},{"type":"function","name":"withdrawPlatformFees","inputs":[],"outputs":[],"stateMutability":"nonpayable"},{"type":"event","name":"Approval","inputs":[{"name":"owner","type":"address","indexed":true,"internalType":"address"},{"name":"approved","type":"address","indexed":true,"internalType":"address"},{"name":"tokenId","type":"uint256","indexed":true,"internalType":"uint256"}],"anonymous":false},{"type":"event","name":"ApprovalForAll","inputs":[{"name":"owner","type":"address","indexed":true,"internalType":"address"},{"name":"operator","type":"address","indexed":true,"internalType":"address"},{"name":"approved","type":"bool","indexed":false,"internalType":"bool"}],"anonymous":false},{"type":"event","name":"InferenceCompleted","inputs":[{"name":"requestId","type":"uint256","indexed":true,"internalType":"uint256"},{"name":"modelId","type":"uint256","indexed":true,"internalType":"uint256"},{"name":"outputData","type":"bytes","indexed":false,"internalType":"bytes"},{"name":"confidence","type":"uint256","indexed":false,"internalType":"uint256"}],"anonymous":false},{"type":"event","name":"InferenceRequested","inputs":[{"name":"requestId","type":"uint256","indexed":true,"internalType":"uint256"},{"name":"modelId","type":"uint256","indexed":true,"internalType":"uint256"},{"name":"requester","type":"address","indexed":true,"internalType":"address"},{"name":"inputData","type":"bytes","indexed":false,"internalType":"bytes"}],"anonymous":false},{"type":"event","name":"Invested","inputs":[{"name":"modelId","type":"uint256","indexed":true,"internalType":"uint256"},{"name":"user","type":"address","indexed":true,"internalType":"address"},{"name":"amount","type":"uint256","indexed":false,"internalType":"uint256"}],"anonymous":false},{"type":"event","name":"ModelRegistered","inputs":[{"name":"modelId","type":"uint256","indexed":true,"internalType":"uint256"},{"name":"owner","type":"address","indexed":true,"internalType":"address"},{"name":"modelURI","type":"string","indexed":false,"internalType":"string"},{"name":"inferencePrice","type":"uint256","indexed":false,"internalType":"uint256"}],"anonymous":false},{"type":"event","name":"OwnershipTransferred","inputs":[{"name":"previousOwner","type":"address","indexed":true,"internalType":"address"},{"name":"newOwner","type":"address","indexed":true,"internalType":"address"}],"anonymous":false},{"type":"event","name":"PerformanceUpdated","inputs":[{"name":"modelId","type":"uint256","indexed":true,"internalType":"uint256"},{"name":"accuracy","type":"uint256","indexed":false,"internalType":"uint256"},{"name":"totalInferences","type":"uint256","indexed":false,"internalType":"uint256"}],"anonymous":false},{"type":"event","name":"StrategyExecuted","inputs":[{"name":"modelId","type":"uint256","indexed":true,"internalType":"uint256"},{"name":"target","type":"address","indexed":false,"internalType":"address"},{"name":"value","type":"uint256","indexed":false,"internalType":"uint256"},{"name":"data","type":"bytes","indexed":false,"internalType":"bytes"}],"anonymous":false},{"type":"event","name":"StreamingFeePaid","inputs":[{"name":"modelId","type":"uint256","indexed":true,"internalType":"uint256"},{"name":"user","type":"address","indexed":true,"internalType":"address"},{"name":"fee","type":"uint256","indexed":false,"internalType":"uint256"},{"name":"timeElapsed","type":"uint256","indexed":false,"internalType":"uint256"}],"anonymous":false},{"type":"event","name":"Transfer","inputs":[{"name":"from","type":"address","indexed":true,"internalType":"address"},{"name":"to","type":"address","indexed":true,"internalType":"address"},{"name":"tokenId","type":"uint256","indexed":true,"internalType":"uint256"}],"anonymous":false},{"type":"event","name":"Withdrawn","inputs":[{"name":"modelId","type":"uint256","indexed":true,"internalType":"uint256"},{"name":"user","type":"address","indexed":true,"internalType":"address"},{"name":"amount","type":"uint256","indexed":false,"internalType":"uint256"}],"anonymous":false},{"type":"event","name":"YieldDistributed","inputs":[{"name":"modelId","type":"uint256","indexed":true,"internalType":"uint256"},{"name":"amount","type":"uint256","indexed":false,"internalType":"uint256"}],"anonymous":false},{"type":"error","name":"ERC721IncorrectOwner","inputs":[{"name":"sender","type":"address","internalType":"address"},{"name":"tokenId","type":"uint256","internalType":"uint256"},{"name":"owner","type":"address","internalType":"address"}]},{"type":"error","name":"ERC721InsufficientApproval","inputs":[{"name":"operator","type":"address","internalType":"address"},{"name":"tokenId","type":"uint256","internalType":"uint256"}]},{"type":"error","name":"ERC721InvalidApprover","inputs":[{"name":"approver","type":"address","internalType":"address"}]},{"type":"error","name":"ERC721InvalidOperator","inputs":[{"name":"operator","type":"address","internalType":"address"}]},{"type":"error","name":"ERC721InvalidOwner","inputs":[{"name":"owner","type":"address","internalType":"address"}]},{"type":"error","name":"ERC721InvalidReceiver","inputs":[{"name":"receiver","type":"address","internalType":"address"}]},{"type":"error","name":"ERC721InvalidSender","inputs":[{"name":"sender","type":"address","internalType":"address"}]},{"type":"error","name":"ERC721NonexistentToken","inputs":[{"name":"tokenId","type":"uint256","internalType":"uint256"}]},{"type":"error","name":"OwnableInvalidOwner","inputs":[{"name":"owner","type":"address","internalType":"address"}]},{"type":"error","name":"OwnableUnauthorizedAccount","inputs":[{"name":"account","type":"address","internalType":"address"}]},{"type":"error","name":"ReentrancyGuardReentrantCall","inputs":[]}],"bytecode":{"object":"0x6080346200039d576001600160401b039060409080820183811182821017620003895782526010815260206f105248151c98591a5b99c8135bd9195b60821b818301528251938385018581108282111762000389578452600491828652634149544d60e01b8187015283519082821162000295575f54916001958684811c941680156200037e575b838510146200036b578190601f9485811162000318575b508390858311600114620002b4575f92620002a8575b50505f19600383901b1c191690861b175f555b8651928311620002955784548581811c911680156200028a575b8282101462000277578281116200022f575b5080918311600114620001c7575081929394955f92620001bb575b50505f19600383901b1c191690831b1782555b3315620001a5575060068054336001600160a01b0319821681179092559251926001600160a01b03167f8be0079c531659141344cd1fd0a4f28419497f9722a3daafe3b4186f6b6457e05f80a3807f9b779b17422d0df92223018b32b4d1fa46e071723d6817e2486d003becc55f005580600955600a55612ddb9081620003a28239f35b6024905f845191631e4fbdf760e01b8352820152fd5b015190505f806200010e565b90601f19831696855f52825f20925f905b898210620002175750508386979896959610620001fe575b505050811b01825562000121565b01515f1960f88460031b161c191690555f8080620001f0565b808885968294968601518155019501930190620001d8565b855f52815f208380860160051c8201928487106200026d575b0160051c019086905b82811062000261575050620000f3565b5f815501869062000251565b9250819262000248565b602285634e487b7160e01b5f525260245ffd5b90607f1690620000e1565b604184634e487b7160e01b5f525260245ffd5b015190505f80620000b4565b90889350601f198316915f8052855f20925f5b87828210620003015750508411620002e8575b505050811b015f55620000c7565b01515f1960f88460031b161c191690555f8080620002da565b8385015186558c97909501949384019301620002c7565b9091505f8052835f208580850160051c82019286861062000361575b918a91869594930160051c01915b828110620003525750506200009e565b5f81558594508a910162000342565b9250819262000334565b602286634e487b7160e01b5f525260245ffd5b93607f169362000087565b634e487b7160e01b5f52604160045260245ffd5b5f80fdfe608080604052600436101561001c575b50361561001a575f80fd5b005b60e05f35811c91826301ffc9a7146122c35750816306fdde031461221c578163081812fc146121e0578163095ea7b3146120ff5781630c2c69fa146120ae5781630ea27b5b1461207157816313f2dad0146120475781631e10f86b1461200d57816320f9b6b314611eb657816323b872dd14611e9f578163250d620214611b315781632afcf480146119a95781632bd8fc45146118f457816342842e0e146118c7578163441a3e701461171357816349bd293e146115765781634e374d5a1461140e578163560d52d4146113f357816359259a9f146113c957816361c992a31461138c5781636352211e1461135c5781636a030ca9146112875781636a84a9851461126a57816370a0823114611214578163715018a6146111b9578163793da33d146111605781637cf4c01b1461108b5781638da5cb5b1461106357816395d89b4114610f85578163a22cb46514610ede578163b11b32d214610e91578163b88d4fde14610e26578163bad6341f14610ccb578163bffc986f14610980578163c7d8e8c5146108f9578163c87b56dd146108a4578163cb3606241461086b578163d0b7830b146107d9578163d3631fa5146107bc578163ddbf7b3d146106ed57508063e472ae8b146106d0578063e985e9c51461067e578063efb66ee8146105f8578063efdd697b146105af578063efe63776146102af5763f2fde38b14610224575f61000f565b346102ab5760203660031901126102ab5761023d61236c565b610245612a66565b6001600160a01b0390811690811561029357600654826001600160601b0360a01b821617600655167f8be0079c531659141344cd1fd0a4f28419497f9722a3daafe3b4186f6b6457e05f80a3005b604051631e4fbdf760e01b81525f6004820152602490fd5b5f80fd5b346102ab5760603660031901126102ab5760246001600160401b0360043582358281116102ab576102e49036906004016123dc565b60443593835f526020906008825260405f209081545f526007835260405f20906006830160ff8154166105775782546001600160a01b039290831633148015610560575b61033190612602565b6127108a11610527576003850190871161051457610359876103538354612452565b83612844565b5f87601f81116001146104b15780610385925f916104a6575b508160011b915f199060031b1c19161790565b90555b886004850155600160ff19825416179055600382016103a7815461263f565b90556007830154916005830283810460051484151715610493575f93849384936103f36103d9606487960480956128c0565b93600583016103e98682546128b3565b9055600b546128b3565b600b5554165af16104026128cd565b501561044f577f40ddd1a9779e9f82f5abecf1e4582790ca0db004f0f84617006d90e6814c24a9949596505495610446604051948594604086526040860191612893565b918301520390a3005b60405162461bcd60e51b815260048101839052601d818901527f4661696c656420746f2073656e6420746f206d6f64656c206f776e65720000006044820152606490fd5b8a634e487b7160e01b5f5260116004525ffd5b90508a01358e610372565b50601f19881690825f5288885f20925f5b8a8d8383106104fc57505050106104e3575b5050600187811b019055610388565b8901355f1960038a901b60f8161c191690558b806104d4565b8501358655600190950194938401938c9350016104c2565b8a634e487b7160e01b5f5260416004525ffd5b60405162461bcd60e51b8152600481018790526012818d015271496e76616c696420636f6e666964656e636560701b6044820152606490fd5b50335f908152600c8752604090205460ff16610328565b60405162461bcd60e51b8152600481018690526011818c015270105b1c9958591e4818dbdb5c1b195d1959607a1b6044820152606490fd5b346102ab576105bd36612409565b906105da6105ca82612a2c565b6001600160a01b031633146125c4565b6105e58215156129e7565b5f526007602052600b60405f2001555f80f35b346102ab5760203660031901126102ab576004355f526007602052600160405f20818060a01b0381541690600281015490600381015461064e600483015492610647604051809881930161248a565b0386612552565b61066a604051958695865260a0602087015260a086019061232e565b926040850152606084015260808301520390f35b346102ab5760403660031901126102ab5761069761236c565b61069f612382565b9060018060a01b038091165f52600560205260405f2091165f52602052602060ff60405f2054166040519015158152f35b346102ab575f3660031901126102ab576020600954604051908152f35b346102ab5760203660031901126102ab576004355f52600860205260405f209081549160018060a01b03600182015416916040519061073a82610733816002870161248a565b0383612552565b604051926107568461074f816003850161248a565b0385612552565b6004810154936107a3600583015491610795600760ff600687015416950154966040519a8b9a610100918c5260208c01528060408c01528a019061232e565b9088820360608a015261232e565b94608087015260a0860152151560c08501528301520390f35b346102ab575f3660031901126102ab576020600b54604051908152f35b346102ab575f3660031901126102ab576107f1612a66565b6107f9612b6b565b600b54801561083c575f8080806108299481600b5560018060a01b03600654165af16108236128cd565b506128fc565b60015f80516020612d8683398151915255005b60405162461bcd60e51b81526020600482015260076024820152664e6f206665657360c81b6044820152606490fd5b346102ab5761087936612409565b906108866105ca82612a2c565b6108918215156129ab565b5f526007602052600260405f2001555f80f35b346102ab5760203660031901126102ab576108c0600435612a2c565b505f6040516108ce81612537565b526108f56040516108de81612537565b5f815260405191829160208352602083019061232e565b0390f35b346102ab5760203660031901126102ab576004355f52600860205260405f20805460018060a01b0360018301541691600481015490610971600361095360058401549361094c604051809481930161248a565b0382612552565b6040519586958652602086015260a0604086015260a085019061232e565b91606084015260808301520390f35b346102ab5760603660031901126102ab576004356001600160401b0381116102ab576109b09036906004016123dc565b604492919235918115610c9a576109ca60243515156129ab565b6109d58315156129e7565b600954926109e28461263f565b600955604051906109f28261251b565b338252610a0036858861258e565b602083015260243560408301525f606083015261138860808301525f60a0830152600160c083015242838301525f6101008301525f6101208301525f610140830152610160820152835f52600760205260405f209160018060a01b038251166001600160601b0360a01b84541617835560208201518051906001600160401b038211610c8657610aa082610a976001880154612452565b60018801612844565b602090601f8311600114610c155782600b95936101609593610ad7935f92610c0a575b50508160011b915f199060031b1c19161790565b60018601555b60408201516002860155606082015160038601556080820151600486015560a08201516005860155610b2460c08301511515600687019060ff801983541691151516179055565b810151600785015561010081015160088501556101208101516009850155610140810151600a8501550151910155604051610b5e81612537565b5f81523315610bf2576001600160a01b03610b798433612a92565b16610bda577f014ed8d238576d2b30ced417ba64fa4db7c350b5f09ffa335abaefcc33047e7b610bc4602095610bb28694853333612b9a565b60405194604086526040860191612893565b92602435868201528033940390a3604051908152f35b6040516339e3563760e11b81525f6004820152602490fd5b604051633250574960e11b81525f6004820152602490fd5b015190508b80610ac3565b90601f19831691600187015f5260205f20925f5b818110610c6e5750926001928592600b9896610160989610610c56575b505050811b016001860155610add565b01515f1960f88460031b161c191690558a8080610c46565b92936020600181928786015181550195019301610c29565b634e487b7160e01b5f52604160045260245ffd5b60405162461bcd60e51b8152602060048201526009602482015268456d7074792055524960b81b6044820152606490fd5b60803660031901126102ab57600435610ce2612382565b6044356064356001600160401b0381116102ab57610d049036906004016123dc565b610d0f939193612b6b565b845f52600760205260018060a01b03610d2f8160405f20541633146125c4565b821691308314610dee575f809160405184888237868186810185815203925af1610d576128cd565b5015610db7577fca1ce0b4484e3118c90f795a38e4b1b5bba867562703755301db09a3a6f65dec93610da19160405194859485526020850152606060408501526060840191612893565b0390a260015f80516020612d8683398151915255005b60405162461bcd60e51b815260206004820152600f60248201526e14dd1c985d1959de4819985a5b1959608a1b6044820152606490fd5b60405162461bcd60e51b815260206004820152601060248201526f21b0b73737ba1031b0b6361039b2b63360811b6044820152606490fd5b346102ab5760803660031901126102ab57610e3f61236c565b610e47612382565b90604435606435926001600160401b0384116102ab57366023850112156102ab57610e7f61001a94369060248160040135910161258e565b92610e8b83838361267e565b33612cad565b346102ab5760403660031901126102ab57610eaa612382565b6004355f52600d60205260405f209060018060a01b03165f526020526040805f206001815491015482519182526020820152f35b346102ab5760403660031901126102ab57610ef761236c565b610eff612398565b6001600160a01b03909116908115610f6c57335f52600560205260405f20825f52602052610f3c8160405f209060ff801983541691151516179055565b60405190151581527f17307eab39ab6107e8899845ad3d59bd9653f200f220920489ca2b5937696c3160203392a3005b604051630b61174360e31b815260048101839052602490fd5b346102ab575f3660031901126102ab576040515f60018260015492610fa984612452565b92838352602094856001821691825f14611043575050600114610fe8575b50610fd492500383612552565b6108f560405192828493845283019061232e565b84915060015f527fb10e2d527612073b26eecdfd717e6a320cf44b4afac2b0732d9fcbe2b7fa0cf6905f915b85831061102b575050610fd4935082010185610fc7565b80548389018501528794508693909201918101611014565b60ff191685820152610fd495151560051b8501019250879150610fc79050565b346102ab575f3660031901126102ab576006546040516001600160a01b039091168152602090f35b6020806003193601126102ab5760043590341561112c57815f52600e815260405f2054156110f6577ffe4996cd48c364c468cee70dd6b9061874ff01b05c5ea49311cbcabd9b9cb61590825f52600f815260405f206110eb3482546128b3565b9055604051348152a2005b6064906040519062461bcd60e51b82526004820152600f60248201526e4e6f207368617265686f6c6465727360881b6044820152fd5b6064906040519062461bcd60e51b82526004820152600d60248201526c139bc81e5a595b19081cd95b9d609a1b6044820152fd5b346102ab5760203660031901126102ab576004355f52600760205260a060405f20600881015490600981015490600a81015460046005830154920154926040519485526020850152604084015260608301526080820152f35b346102ab575f3660031901126102ab576111d1612a66565b600680546001600160a01b031981169091555f906001600160a01b03167f8be0079c531659141344cd1fd0a4f28419497f9722a3daafe3b4186f6b6457e08280a3005b346102ab5760203660031901126102ab576001600160a01b0361123561236c565b168015611252575f526003602052602060405f2054604051908152f35b6040516322718ad960e21b81525f6004820152602490fd5b346102ab575f3660031901126102ab576020600a54604051908152f35b346102ab5760203660031901126102ab576004355f52600760205260405f2060018060a01b0381541690604051926112c68461074f816001860161248a565b60028201549160038101549160048201549060058301549060ff60068501541690600785015491600886015493600987015495600b600a890154980154986113216040519d8e9d8e610180918152816020820152019061232e565b9a60408d015260608c015260808b015260a08a0152151560c08901528701526101008601526101208501526101408401526101608301520390f35b346102ab5760203660031901126102ab57602061137a600435612a2c565b6040516001600160a01b039091168152f35b346102ab5760203660031901126102ab576001600160a01b036113ad61236c565b165f52600c602052602060ff60405f2054166040519015158152f35b346102ab5760203660031901126102ab576004355f52600f602052602060405f2054604051908152f35b346102ab575f3660031901126102ab57602060405160058152f35b346102ab576020806003193601126102ab5760098054905f198201600435838211611562578181111561155a5750905b61144782612951565b9361145183612951565b935f5b84811061148557611477876108f58860405193849360408552604085019061241f565b90838203602085015261241f565b5f8060015b8481106114c257509081600193926114a5575b505001611454565b6114af838b612983565b526114ba8289612983565b52888061149d565b805f5260078087528360405f2060ff6006820154161561154f57600a8a8201541061154f5760040154116114fc575b506001905b0161148a565b5f805b838d88831061152b575b5050506114f15791508092505f528452600460405f20015490600181906114f1565b8261153591612983565b5114611543576001016114ff565b505060018c838d611509565b5050506001906114f6565b90509061143e565b634e487b7160e01b5f52601160045260245ffd5b346102ab5760403660031901126102ab576004356001600160401b0381116102ab576115a69036906004016123dc565b8092919215610c9a576115bc60243515156129ab565b600954916115c98361263f565b6009556040516115d88161251b565b3381526115e636848761258e565b602082015260243560408201525f606082015261138860808201525f60a0820152600160c082015242828201525f6101008201525f6101208201525f61014082015266038d7ea4c68000610160820152835f52600760205260405f209160018060a01b038251166001600160601b0360a01b84541617835560208201518051906001600160401b038211610c865761168582610a976001880154612452565b602090601f83116001146116bb5782600b95936101609593610ad7935f92610c0a5750508160011b915f199060031b1c19161790565b90601f19831691600187015f5260205f20925f5b8181106116fb5750926001928592600b9896610160989610610c5657505050811b016001860155610add565b929360206001819287860151815501950193016116cf565b346102ab5761172136612409565b611729612b6b565b8091805f526020600d815260405f20335f52815260405f20928354908181159182156118bd575b50506118b5575b841561187857825f52600f825261178761177560405f20548761264d565b845f52600e845260405f205490612660565b938415611845578394957fcf7d23a3cbe4e8b36ff82fd1b05b1b17373dc7804b4ebbd6e2356716ef202372945f52600784526117d38160018401946117cd8654426128c0565b506128c0565b8255855f52600e84526117eb60405f209182546128c0565b9055845f52600f835260405f206118038782546128c0565b9055541561183c575b506118205f80808088335af16108236128cd565b6040519384523393a360015f80516020612d8683398151915255005b5f90558461180c565b60405162461bcd60e51b815260048101849052600b60248201526a5a65726f2061737365747360a81b6044820152606490fd5b60405162461bcd60e51b81526004810183905260156024820152744e6f2073686172657320746f20776974686472617760581b6044820152606490fd5b935083611757565b1190508187611750565b346102ab5761001a6118d8366123a7565b90604051926118e684612537565b5f8452610e8b83838361267e565b346102ab5760403660031901126102ab576060600435611912612382565b815f52602090600d825260405f209060018060a01b03165f52815260405f20825f52600782525f92815480151580611998575b611962575b505060010154906040519283528201525f6040820152f35b60019294509061197e61199092600f865260405f20549061264d565b905f52600e845260405f205490612660565b92908561194a565b50600e845260405f20541515611945565b6020806003193601126102ab576004356119c1612b6b565b805f52600782526119db60ff600660405f20015416612805565b3415611afe57805f52600e825260405f2054155f14611ad657345b8015611a9c57815f52600d835260405f20335f52835260405f20611a218282548015611a91576128b3565b9055815f52600e8352611a3960405f209182546128b3565b9055805f52600f825260405f20611a513482546128b3565b90557f85e040b1b514c2f60555b8b931138cd55218c914496a8fcf822858bd240df422604051923484523393a360015f80516020612d8683398151915255005b4260018501556128b3565b60405162461bcd60e51b815260048101849052601260248201527116995c9bc81cda185c995cc81b5a5b9d195960721b6044820152606490fd5b600f8252611af960405f2054600e8452611af460405f20543461264d565b612660565b6119f6565b60405162461bcd60e51b815260048101839052600b60248201526a139bc8115512081cd95b9d60aa1b6044820152606490fd5b60403660031901126102ab576001600160401b03906024358281116102ab57611b5e9036906004016123dc565b611b66612b6b565b6004355f526007602052600260405f20611b8660ff600683015416612805565b01543410611e6357600a5492611b9b8461263f565b600a5560405190610100820182811087821117610c865760405260043582526020820191338352611bcd36858761258e565b60408201908152604051611be081612537565b5f815260608301525f60808301524260a08301525f60c08301523483830152865f52600860205260405f209382518555600185019060018060a01b039051166001600160601b0360a01b82541617905551805190888211610c8657611c5582611c4c6002880154612452565b60028801612844565b602090601f8311600114611df557611c8392915f9183611dea5750508160011b915f199060031b1c19161790565b60028401555b6060810151968751908111610c8657602097611cb582611cac6003880154612452565b60038801612844565b8890601f8311600114611d7c579180611ce79260079695945f92610c0a5750508160011b915f199060031b1c19161790565b60038501555b6080810151600485015560a08101516005850155611d2060c08201511515600686019060ff801983541691151516179055565b0151910155827fe48ca8c1daa6af6f38e4a1671c1c911e5a1b1b1a8552293bc28b9700b8c0c31960405186815280611d603396600435968a840191612893565b0390a460015f80516020612d8683398151915255604051908152f35b90600386015f52895f20915f5b601f1985168110611dd357509183916001936007979695601f19811610611dbb575b505050811b016003850155611ced565b01515f1960f88460031b161c191690558a8080611dab565b91928b600181928685015181550194019201611d89565b015190508a80610ac3565b9190600286015f5260205f20905f935b601f1984168510611e48576001945083601f19811610611e30575b505050811b016002840155611c89565b01515f1960f88460031b161c19169055898080611e20565b81810151835560209485019460019093019290910190611e05565b60405162461bcd60e51b8152602060048201526014602482015273125b9cdd59999a58da595b9d081c185e5b595b9d60621b6044820152606490fd5b346102ab5761001a611eb0366123a7565b9161267e565b346102ab5760603660031901126102ab57611ecf612398565b604435906004355f52600860205260405f2060ff60068201541615611fd8576001810154611f1290336001600160a01b0391821614908115611fca575b50612602565b80545f52600760205260405f20926009840192611f2f845461263f565b809455611fb5575b600a840180545f8382019384129112908015821691151617611562575560088301549061271091828102928184041490151715611562576003611f9d7fcfad70fb533f2073c73626d88b038c57fd9dc8daa8a708ce9d09af45adb1c5ef94604094612660565b918260048701555494015482519182526020820152a2005b60088401611fc3815461263f565b9055611f37565b905060065416331485611f0c565b60405162461bcd60e51b815260206004820152600d60248201526c139bdd0818dbdb5c1b195d1959609a1b6044820152606490fd5b346102ab5760203660031901126102ab5760043561202d6105ca82612a2c565b5f908152600760205260409020600601805460ff19169055005b346102ab5760203660031901126102ab576004355f52600e602052602060405f2054604051908152f35b346102ab5760203660031901126102ab576004356120916105ca82612a2c565b5f908152600760205260409020600601805460ff19166001179055005b346102ab5760403660031901126102ab5761001a6120ca61236c565b6120d2612398565b906120db612a66565b60018060a01b03165f52600c60205260405f209060ff801983541691151516179055565b346102ab5760403660031901126102ab5761211861236c565b60243561212481612a2c565b331515806121cd575b806121a4575b61218c576001600160a01b039283169282918491167f8c5be1e5ebec7d5bd14f71427d1e84f3dd0314c0f7b2291e5b200ac8c7c3b9255f80a45f90815260046020526040902080546001600160a01b0319169091179055005b60405163a9fbf51f60e01b8152336004820152602490fd5b5060018060a01b0381165f52600560205260405f20335f5260205260ff60405f20541615612133565b506001600160a01b03811633141561212d565b346102ab5760203660031901126102ab576004356121fd81612a2c565b505f526004602052602060018060a01b0360405f205416604051908152f35b346102ab575f3660031901126102ab576040515f8054908261223d83612452565b91828252602093600190856001821691825f1461104357505060011461226a5750610fd492500383612552565b5f808052859250907f290decd9548b62a8d60345a988386fc84ba6bc95484008f6362f93160ef3e5635b8583106122ab575050610fd4935082010185610fc7565b80548389018501528794508693909201918101612294565b346102ab5760203660031901126102ab576004359063ffffffff60e01b82168092036102ab576020916380ac58cd60e01b811490811561231d575b811561230c575b5015158152f35b6301ffc9a760e01b14905083612305565b635b5e139f60e01b811491506122fe565b91908251928382525f5b848110612358575050825f602080949584010152601f8019910116010190565b602081830181015184830182015201612338565b600435906001600160a01b03821682036102ab57565b602435906001600160a01b03821682036102ab57565b6024359081151582036102ab57565b60609060031901126102ab576001600160a01b039060043582811681036102ab579160243590811681036102ab579060443590565b9181601f840112156102ab578235916001600160401b0383116102ab57602083818601950101116102ab57565b60409060031901126102ab576004359060243590565b9081518082526020808093019301915f5b82811061243e575050505090565b835185529381019392810192600101612430565b90600182811c92168015612480575b602083101461246c57565b634e487b7160e01b5f52602260045260245ffd5b91607f1691612461565b80545f939261249882612452565b918282526020936001916001811690815f146124fc57506001146124be575b5050505050565b90939495505f92919252835f2092845f945b8386106124e857505050500101905f808080806124b7565b8054858701830152940193859082016124d0565b60ff19168685015250505090151560051b010191505f808080806124b7565b61018081019081106001600160401b03821117610c8657604052565b602081019081106001600160401b03821117610c8657604052565b90601f801991011681019081106001600160401b03821117610c8657604052565b6001600160401b038111610c8657601f01601f191660200190565b92919261259a82612573565b916125a86040519384612552565b8294818452818301116102ab578281602093845f960137010152565b156125cb57565b60405162461bcd60e51b815260206004820152600f60248201526e2737ba1036b7b232b61037bbb732b960891b6044820152606490fd5b1561260957565b60405162461bcd60e51b815260206004820152600e60248201526d139bdd08185d5d1a1bdc9a5e995960921b6044820152606490fd5b5f1981146115625760010190565b8181029291811591840414171561156257565b811561266a570490565b634e487b7160e01b5f52601260045260245ffd5b916001600160a01b03918216918215610bf257815f526020936002855260409482865f205416943315158061277a575b5085612749575b805f5260038252865f2060018154019055845f52600282526007875f20926001600160601b0360a01b9383858254161790558683897fddf252ad1be2c89b69c2b068fc378daa952ba7f163c4a11628f55a4df523b3ef5f80a452865f209182541617905516928383036127285750505050565b6064945051926364283d7b60e01b8452600484015260248301526044820152fd5b5f85815260046020526040812080546001600160a01b03191690558681526003835287902080545f190190556126b5565b806127c4575b1561278b575f6126ae565b8685876127a8576024915190637e27328960e01b82526004820152fd5b604491519063177e802f60e01b82523360048301526024820152fd5b5033861480156127e9575b806127805750845f52600482523384885f20541614612780565b50855f5260058252865f20335f52825260ff875f2054166127cf565b1561280c57565b60405162461bcd60e51b815260206004820152601060248201526f4d6f64656c206e6f742061637469766560801b6044820152606490fd5b601f821161285157505050565b5f5260205f20906020601f840160051c83019310612889575b601f0160051c01905b81811061287e575050565b5f8155600101612873565b909150819061286a565b908060209392818452848401375f828201840152601f01601f1916010190565b9190820180921161156257565b9190820391821161156257565b3d156128f7573d906128de82612573565b916128ec6040519384612552565b82523d5f602084013e565b606090565b1561290357565b60405162461bcd60e51b815260206004820152600f60248201526e15da5d1a191c985dc819985a5b1959608a1b6044820152606490fd5b6001600160401b038111610c865760051b60200190565b9061295b8261293a565b6129686040519182612552565b8281528092612979601f199161293a565b0190602036910137565b80518210156129975760209160051b010190565b634e487b7160e01b5f52603260045260245ffd5b156129b257565b60405162461bcd60e51b815260206004820152600d60248201526c496e76616c696420707269636560981b6044820152606490fd5b156129ee57565b60405162461bcd60e51b8152602060048201526016602482015275496e76616c69642073747265616d696e67207261746560501b6044820152606490fd5b5f818152600260205260409020546001600160a01b0316908115612a4e575090565b60249060405190637e27328960e01b82526004820152fd5b6006546001600160a01b03163303612a7a57565b60405163118cdaa760e01b8152336004820152602490fd5b5f828152600260205260409020546001600160a01b03908116929183612b38575b1680151580612b20575b825f52600260205260405f20926001600160601b0360a01b93838582541617905582857fddf252ad1be2c89b69c2b068fc378daa952ba7f163c4a11628f55a4df523b3ef5f80a4612b0d57505090565b600760205260405f209182541617905590565b815f52600360205260405f2060018154019055612abd565b5f83815260046020526040902080546001600160a01b0319169055835f52600360205260405f205f198154019055612ab3565b5f80516020612d868339815191526002815414612b885760029055565b604051633ee5aeb560e01b8152600490fd5b91929092833b612bab575b50505050565b60209060018060a01b0380951694612bf26040519485938493630a85bd0160e11b988986521660048501525f6024850152604484015260806064840152608483019061232e565b03815f875af15f9181612c68575b50612c375782612c0e6128cd565b8051919082612c3057604051633250574960e11b815260048101839052602490fd5b6020915001fd5b6001600160e01b03191603612c5057505f808080612ba5565b60249060405190633250574960e11b82526004820152fd5b9091506020813d602011612ca5575b81612c8460209383612552565b810103126102ab57516001600160e01b0319811681036102ab57905f612c00565b3d9150612c77565b9291803b612cbc575050505050565b604051630a85bd0160e11b8082526001600160a01b03958616600483015292851660248201526044810193909352608060648401529092169260209082908190612d0a90608483019061232e565b03815f875af15f9181612d40575b50612d265782612c0e6128cd565b6001600160e01b03191603612c5057505f808080806124b7565b9091506020813d602011612d7d575b81612d5c60209383612552565b810103126102ab57516001600160e01b0319811681036102ab57905f612d18565b3d9150612d4f56fe9b779b17422d0df92223018b32b4d1fa46e071723d6817e2486d003becc55f00a2646970667358221220bae85fae1c2dcf64dfd5f648bb9974e0e5e068d894e90407399931aeaf844b9564736f6c63430008180033","linkReferences":{}},"methodIdentifiers":{"PLATFORM_FEE_PERCENT()":"560d52d4","approve(address,uint256)":"095ea7b3","authorizeOracle(address,bool)":"0c2c69fa","authorizedOracles(address)":"61c992a3","balanceOf(address)":"70a08231","deactivateModel(uint256)":"1e10f86b","depositYield(uint256)":"7cf4c01b","executeStrategy(uint256,address,uint256,bytes)":"bad6341f","getApproved(uint256)":"081812fc","getInferenceResult(uint256)":"c7d8e8c5","getInvestmentInfo(uint256,address)":"2bd8fc45","getModelInfo(uint256)":"efb66ee8","getModelMetrics(uint256)":"793da33d","getTopModels(uint256)":"4e374d5a","inferenceRequests(uint256)":"ddbf7b3d","invest(uint256)":"2afcf480","investments(uint256,address)":"b11b32d2","isApprovedForAll(address,address)":"e985e9c5","models(uint256)":"6a030ca9","name()":"06fdde03","nextModelId()":"e472ae8b","nextRequestId()":"6a84a985","owner()":"8da5cb5b","ownerOf(uint256)":"6352211e","reactivateModel(uint256)":"0ea27b5b","registerModel(string,uint256)":"49bd293e","registerModel(string,uint256,uint256)":"bffc986f","renounceOwnership()":"715018a6","requestInference(uint256,bytes)":"250d6202","safeTransferFrom(address,address,uint256)":"42842e0e","safeTransferFrom(address,address,uint256,bytes)":"b88d4fde","setApprovalForAll(address,bool)":"a22cb465","submitInference(uint256,bytes,uint256)":"efe63776","supportsInterface(bytes4)":"01ffc9a7","symbol()":"95d89b41","tokenURI(uint256)":"c87b56dd","totalManagedAssets(uint256)":"59259a9f","totalPlatformFees()":"d3631fa5","totalShares(uint256)":"13f2dad0","transferFrom(address,address,uint256)":"23b872dd","transferOwnership(address)":"f2fde38b","updateModelPerformance(uint256,bool,int256)":"20f9b6b3","updateModelPrice(uint256,uint256)":"cb360624","updateStreamingRate(uint256,uint256)":"efdd697b","withdraw(uint256,uint256)":"441a3e70","withdrawPlatformFees()":"d0b7830b"},"id":37}