{"abi":[{"type":"constructor","inputs":[{"name":"_feeRecipient","type":"address","internalType":"address"}],"stateMutability":"nonpayable"},{"type":"function","name":"COMPETITION_ENTRY_FEE","inputs":[],"outputs":[{"name":"","type":"uint256","internalType":"uint256"}],"stateMutability":"view"},{"type":"function","name":"DEPOSIT_FEE","inputs":[],"outputs":[{"name":"","type":"uint256","internalType":"uint256"}],"stateMutability":"view"},{"type":"function","name":"VIEW_DETAILS_FEE","inputs":[],"outputs":[{"name":"","type":"uint256","internalType":"uint256"}],"stateMutability":"view"},{"type":"function","name":"feeRecipient","inputs":[],"outputs":[{"name":"","type":"address","internalType":"address"}],"stateMutability":"view"},{"type":"function","name":"getPaymentAmount","inputs":[{"name":"action","type":"bytes32","internalType":"bytes32"}],"outputs":[{"name":"","type":"uint256","internalType":"uint256"}],"stateMutability":"pure"},{"type":"function","name":"owner","inputs":[],"outputs":[{"name":"","type":"address","internalType":"address"}],"stateMutability":"view"},{"type":"function","name":"payForCompetitionEntry","inputs":[{"name":"nonce","type":"bytes32","internalType":"bytes32"}],"outputs":[],"stateMutability":"payable"},{"type":"function","name":"payForDeposit","inputs":[{"name":"payer","type":"address","internalType":"address"},{"name":"nonce","type":"bytes32","internalType":"bytes32"}],"outputs":[],"stateMutability":"payable"},{"type":"function","name":"payForViewDetails","inputs":[{"name":"nonce","type":"bytes32","internalType":"bytes32"}],"outputs":[],"stateMutability":"payable"},{"type":"function","name":"paymentNonces","inputs":[{"name":"","type":"address","internalType":"address"},{"name":"","type":"bytes32","internalType":"bytes32"}],"outputs":[{"name":"","type":"bool","internalType":"bool"}],"stateMutability":"view"},{"type":"function","name":"renounceOwnership","inputs":[],"outputs":[],"stateMutability":"nonpayable"},{"type":"function","name":"setFeeRecipient","inputs":[{"name":"_feeRecipient","type":"address","internalType":"address"}],"outputs":[],"stateMutability":"nonpayable"},{"type":"function","name":"totalPayments","inputs":[{"name":"","type":"address","internalType":"address"}],"outputs":[{"name":"","type":"uint256","internalType":"uint256"}],"stateMutability":"view"},{"type":"function","name":"transferOwnership","inputs":[{"name":"newOwner","type":"address","internalType":"address"}],"outputs":[],"stateMutability":"nonpayable"},{"type":"function","name":"withdrawFees","inputs":[],"outputs":[],"stateMutability":"nonpayable"},{"type":"event","name":"MicropaymentPaid","inputs":[{"name":"payer","type":"address","indexed":true,"internalType":"address"},{"name":"action","type":"bytes32","indexed":true,"internalType":"bytes32"},{"name":"amount","type":"uint256","indexed":false,"internalType":"uint256"},{"name":"nonce","type":"bytes32","indexed":false,"internalType":"bytes32"}],"anonymous":false},{"type":"event","name":"OwnershipTransferred","inputs":[{"name":"previousOwner","type":"address","indexed":true,"internalType":"address"},{"name":"newOwner","type":"address","indexed":true,"internalType":"address"}],"anonymous":false},{"type":"error","name":"OwnableInvalidOwner","inputs":[{"name":"owner","type":"address","internalType":"address"}]},{"type":"error","name":"OwnableUnauthorizedAccount","inputs":[{"name":"account","type":"address","internalType":"address"}]},{"type":"error","name":"ReentrancyGuardReentrantCall","inputs":[]}],"bytecode":{"object":"0x60803461012657601f610c0338819003918201601f19168301916001600160401b0383118484101761012a5780849260209460405283398101031261012657516001600160a01b038082169182900361012657331561010e575f549060018060a01b03199133838216175f55604051913391167f8be0079c531659141344cd1fd0a4f28419497f9722a3daafe3b4186f6b6457e05f80a360017f9b779b17422d0df92223018b32b4d1fa46e071723d6817e2486d003becc55f005582156100d857506001541617600155604051610ac4908161013f8239f35b62461bcd60e51b8152602060048201526011602482015270125b9d985b1a59081c9958da5c1a595b9d607a1b6044820152606490fd5b604051631e4fbdf760e01b81525f6004820152602490fd5b5f80fd5b634e487b7160e01b5f52604160045260245ffdfe6080604090808252600480361015610015575f80fd5b5f3560e01c91826346904840146107c657508163476343ee14610711578163715018a6146106ba57816371764bf11461069a5781637703b63d146106555781637d2c5dba1461052a5781638da5cb5b14610503578163baadd668146103d0578163cd4700fc14610399578163d238871614610239578163de363e6514610219578163e5494800146101f4578163e74b981b14610176578163f2fde38b146100e9575063f3484d2b146100c5575f80fd5b346100e5575f3660031901126100e557602090516601c6bf526340008152f35b5f80fd5b9050346100e55760203660031901126100e5576101046107e9565b9061010d610a14565b6001600160a01b039182169283156101605750505f54826bffffffffffffffffffffffff60a01b8216175f55167f8be0079c531659141344cd1fd0a4f28419497f9722a3daafe3b4186f6b6457e05f80a3005b905f6024925191631e4fbdf760e01b8352820152fd5b9050346100e55760203660031901126100e5576101916107e9565b610199610a14565b6001600160a01b03169182156101bd57600180546001600160a01b03191684179055005b906020606492519162461bcd60e51b83528201526011602482015270125b9d985b1a59081c9958da5c1a595b9d607a1b6044820152fd5b82346100e55760203660031901126100e5576102126020923561097b565b9051908152f35b82346100e5575f3660031901126100e5576020905165b5e620f480008152f35b82806003193601126100e55761024d6107e9565b907f87a7811f4bfedea3d341ad165680ae306b01aaeacc205d227629cf157dd9f82160243561027a610a3f565b7f99c5d4a8bb3b25cd60ab3b8fb83f49047d19efe7ccf603bed168ad9abfa6536c65b5e620f48000936102af8534101561085d565b60018060a01b03809616958693845f5261032f5f8080806020966003885288822087835288526102e560ff8a84205416156108a0565b8a8252600388528882208783528852888220600160ff198254161790558a8252600288528882206103173482546108e1565b90553490600154165af16103296107ff565b50610902565b825191348352820152a33411610353575b60015f80516020610a6f83398151915255005b65b5e620f47fff1934019134831161038657505f808061037f9481945af16103796107ff565b5061093f565b8080610340565b601190634e487b7160e01b5f525260245ffd5b82346100e55760203660031901126100e5576020906001600160a01b036103be6107e9565b165f5260028252805f20549051908152f35b826020806003193601126100e5577f35a34f25c6c7f77321822decb12e1989b96099cdab70c94c3df43eae144c80a9907f99c5d4a8bb3b25cd60ab3b8fb83f49047d19efe7ccf603bed168ad9abfa6536c84359361042c610a3f565b6601c6bf52634000946104418634101561085d565b335f5260038452815f20815f52845261046060ff835f205416156108a0565b335f5260038452815f20815f528452815f20600160ff19825416179055335f5260028452815f206104923482546108e1565b90556104b15f8080803460018060a01b03600154165af16103296107ff565b8151933485528401523392a334116104d65760015f80516020610a6f83398151915255005b6601c6bf52633fff1934019034821161038657505f8080806104fd94335af16103796107ff565b80610340565b82346100e5575f3660031901126100e5575f5490516001600160a01b039091168152602090f35b826020806003193601126100e5577f4a7966571b2fec057bbcd92068c7bb39071d0f5ce7e69a602eabedc007adf48c907f99c5d4a8bb3b25cd60ab3b8fb83f49047d19efe7ccf603bed168ad9abfa6536c843593610586610a3f565b655af3107a40009461059a8634101561085d565b335f5260038452815f20815f5284526105b960ff835f205416156108a0565b335f5260038452815f20815f528452815f20600160ff19825416179055335f5260028452815f206105eb3482546108e1565b905561060a5f8080803460018060a01b03600154165af16103296107ff565b8151933485528401523392a3341161062f5760015f80516020610a6f83398151915255005b655af3107a3fff1934019034821161038657505f8080806104fd94335af16103796107ff565b82346100e557806003193601126100e5576020906001600160a01b036106796107e9565b165f5260038252805f206024355f52825260ff815f20541690519015158152f35b82346100e5575f3660031901126100e55760209051655af3107a40008152f35b346100e5575f3660031901126100e5576106d2610a14565b5f80546001600160a01b0319811682556001600160a01b03167f8be0079c531659141344cd1fd0a4f28419497f9722a3daafe3b4186f6b6457e08280a3005b9050346100e5575f3660031901126100e55761072b610a14565b47801561078c576001545f918291829182916001600160a01b03165af16107506107ff565b501561075857005b6020606492519162461bcd60e51b8352820152600f60248201526e15da5d1a191c985dc819985a5b1959608a1b6044820152fd5b506020606492519162461bcd60e51b835282015260146024820152734e6f2066756e647320746f20776974686472617760601b6044820152fd5b346100e5575f3660031901126100e5576001546001600160a01b03168152602090f35b600435906001600160a01b03821682036100e557565b3d156108585767ffffffffffffffff903d8281116108445760405192601f8201601f19908116603f01168401908111848210176108445760405282523d5f602084013e565b634e487b7160e01b5f52604160045260245ffd5b606090565b1561086457565b60405162461bcd60e51b8152602060048201526014602482015273125b9cdd59999a58da595b9d081c185e5b595b9d60621b6044820152606490fd5b156108a757565b60405162461bcd60e51b8152602060048201526012602482015271139bdb98d948185b1c9958591e481d5cd95960721b6044820152606490fd5b919082018092116108ee57565b634e487b7160e01b5f52601160045260245ffd5b1561090957565b60405162461bcd60e51b815260206004820152600e60248201526d14185e5b595b9d0819985a5b195960921b6044820152606490fd5b1561094657565b60405162461bcd60e51b815260206004820152600d60248201526c1499599d5b990819985a5b1959609a1b6044820152606490fd5b7f4a7966571b2fec057bbcd92068c7bb39071d0f5ce7e69a602eabedc007adf48c81036109ad5750655af3107a400090565b7f35a34f25c6c7f77321822decb12e1989b96099cdab70c94c3df43eae144c80a981036109e057506601c6bf5263400090565b7f87a7811f4bfedea3d341ad165680ae306b01aaeacc205d227629cf157dd9f82114610a0a575f90565b65b5e620f4800090565b5f546001600160a01b03163303610a2757565b60405163118cdaa760e01b8152336004820152602490fd5b5f80516020610a6f8339815191526002815414610a5c5760029055565b604051633ee5aeb560e01b8152600490fdfe9b779b17422d0df92223018b32b4d1fa46e071723d6817e2486d003becc55f00a2646970667358221220123f75799fc31f18b868e6de3dc5e93e9aafa32d35a8753daca85ee616d5482664736f6c63430008180033","linkReferences":{}},"methodIdentifiers":{"COMPETITION_ENTRY_FEE()":"f3484d2b","DEPOSIT_FEE()":"de363e65","VIEW_DETAILS_FEE()":"71764bf1","feeRecipient()":"46904840","getPaymentAmount(bytes32)":"e5494800","owner()":"8da5cb5b","payForCompetitionEntry(bytes32)":"baadd668","payForDeposit(address,bytes32)":"d2388716","payForViewDetails(bytes32)":"7d2c5dba","paymentNonces(address,bytes32)":"7703b63d","renounceOwnership()":"715018a6","setFeeRecipient(address)":"e74b981b","totalPayments(address)":"cd4700fc","transferOwnership(address)":"f2fde38b","withdrawFees()":"476343ee"},"id":50}