{"abi":[{"type":"constructor","inputs":[{"name":"_modelRegistry","type":"address","internalType":"address"},{"name":"_paymentToken","type":"address","internalType":"address"}],"stateMutability":"nonpayable"},{"type":"function","name":"PLATFORM_FEE_PERCENT","inputs":[],"outputs":[{"name":"","type":"uint256","internalType":"uint256"}],"stateMutability":"view"},{"type":"function","name":"cancelSubscription","inputs":[{"name":"modelId","type":"uint256","internalType":"uint256"}],"outputs":[],"stateMutability":"nonpayable"},{"type":"function","name":"getLatestSignals","inputs":[{"name":"modelId","type":"uint256","internalType":"uint256"},{"name":"count","type":"uint256","internalType":"uint256"}],"outputs":[{"name":"","type":"tuple[]","internalType":"struct AISignalMarketplace.Signal[]","components":[{"name":"modelId","type":"uint256","internalType":"uint256"},{"name":"timestamp","type":"uint256","internalType":"uint256"},{"name":"asset","type":"string","internalType":"string"},{"name":"action","type":"string","internalType":"string"},{"name":"targetPrice","type":"uint256","internalType":"uint256"},{"name":"stopLoss","type":"uint256","internalType":"uint256"},{"name":"confidence","type":"uint256","internalType":"uint256"},{"name":"extraData","type":"bytes","internalType":"bytes"}]}],"stateMutability":"view"},{"type":"function","name":"getModelStats","inputs":[{"name":"modelId","type":"uint256","internalType":"uint256"}],"outputs":[{"name":"subscribers","type":"uint256","internalType":"uint256"},{"name":"signals","type":"uint256","internalType":"uint256"},{"name":"monthlyPrice","type":"uint256","internalType":"uint256"},{"name":"signalPrice","type":"uint256","internalType":"uint256"}],"stateMutability":"view"},{"type":"function","name":"getSignal","inputs":[{"name":"modelId","type":"uint256","internalType":"uint256"},{"name":"index","type":"uint256","internalType":"uint256"}],"outputs":[{"name":"","type":"tuple","internalType":"struct AISignalMarketplace.Signal","components":[{"name":"modelId","type":"uint256","internalType":"uint256"},{"name":"timestamp","type":"uint256","internalType":"uint256"},{"name":"asset","type":"string","internalType":"string"},{"name":"action","type":"string","internalType":"string"},{"name":"targetPrice","type":"uint256","internalType":"uint256"},{"name":"stopLoss","type":"uint256","internalType":"uint256"},{"name":"confidence","type":"uint256","internalType":"uint256"},{"name":"extraData","type":"bytes","internalType":"bytes"}]}],"stateMutability":"view"},{"type":"function","name":"getSubscription","inputs":[{"name":"modelId","type":"uint256","internalType":"uint256"},{"name":"user","type":"address","internalType":"address"}],"outputs":[{"name":"startTime","type":"uint256","internalType":"uint256"},{"name":"endTime","type":"uint256","internalType":"uint256"},{"name":"signalsReceived","type":"uint256","internalType":"uint256"},{"name":"isActive","type":"bool","internalType":"bool"}],"stateMutability":"view"},{"type":"function","name":"hasActiveSubscription","inputs":[{"name":"modelId","type":"uint256","internalType":"uint256"},{"name":"user","type":"address","internalType":"address"}],"outputs":[{"name":"","type":"bool","internalType":"bool"}],"stateMutability":"view"},{"type":"function","name":"modelRegistry","inputs":[],"outputs":[{"name":"","type":"address","internalType":"contract AIModelRegistry"}],"stateMutability":"view"},{"type":"function","name":"modelSignals","inputs":[{"name":"","type":"uint256","internalType":"uint256"},{"name":"","type":"uint256","internalType":"uint256"}],"outputs":[{"name":"modelId","type":"uint256","internalType":"uint256"},{"name":"timestamp","type":"uint256","internalType":"uint256"},{"name":"asset","type":"string","internalType":"string"},{"name":"action","type":"string","internalType":"string"},{"name":"targetPrice","type":"uint256","internalType":"uint256"},{"name":"stopLoss","type":"uint256","internalType":"uint256"},{"name":"confidence","type":"uint256","internalType":"uint256"},{"name":"extraData","type":"bytes","internalType":"bytes"}],"stateMutability":"view"},{"type":"function","name":"owner","inputs":[],"outputs":[{"name":"","type":"address","internalType":"address"}],"stateMutability":"view"},{"type":"function","name":"paymentToken","inputs":[],"outputs":[{"name":"","type":"address","internalType":"contract IERC20"}],"stateMutability":"view"},{"type":"function","name":"perSignalPrice","inputs":[{"name":"","type":"uint256","internalType":"uint256"}],"outputs":[{"name":"","type":"uint256","internalType":"uint256"}],"stateMutability":"view"},{"type":"function","name":"publishSignal","inputs":[{"name":"modelId","type":"uint256","internalType":"uint256"},{"name":"asset","type":"string","internalType":"string"},{"name":"action","type":"string","internalType":"string"},{"name":"targetPrice","type":"uint256","internalType":"uint256"},{"name":"stopLoss","type":"uint256","internalType":"uint256"},{"name":"confidence","type":"uint256","internalType":"uint256"},{"name":"extraData","type":"bytes","internalType":"bytes"}],"outputs":[],"stateMutability":"nonpayable"},{"type":"function","name":"purchaseSignal","inputs":[{"name":"modelId","type":"uint256","internalType":"uint256"},{"name":"signalIndex","type":"uint256","internalType":"uint256"}],"outputs":[],"stateMutability":"nonpayable"},{"type":"function","name":"renounceOwnership","inputs":[],"outputs":[],"stateMutability":"nonpayable"},{"type":"function","name":"setModelPricing","inputs":[{"name":"modelId","type":"uint256","internalType":"uint256"},{"name":"monthlyPrice","type":"uint256","internalType":"uint256"},{"name":"signalPrice","type":"uint256","internalType":"uint256"}],"outputs":[],"stateMutability":"nonpayable"},{"type":"function","name":"subscribe","inputs":[{"name":"modelId","type":"uint256","internalType":"uint256"},{"name":"months","type":"uint256","internalType":"uint256"}],"outputs":[],"stateMutability":"nonpayable"},{"type":"function","name":"subscriptionPrice","inputs":[{"name":"","type":"uint256","internalType":"uint256"}],"outputs":[{"name":"","type":"uint256","internalType":"uint256"}],"stateMutability":"view"},{"type":"function","name":"subscriptions","inputs":[{"name":"","type":"uint256","internalType":"uint256"},{"name":"","type":"address","internalType":"address"}],"outputs":[{"name":"modelId","type":"uint256","internalType":"uint256"},{"name":"subscriber","type":"address","internalType":"address"},{"name":"startTime","type":"uint256","internalType":"uint256"},{"name":"endTime","type":"uint256","internalType":"uint256"},{"name":"signalsReceived","type":"uint256","internalType":"uint256"},{"name":"isActive","type":"bool","internalType":"bool"}],"stateMutability":"view"},{"type":"function","name":"totalPlatformFees","inputs":[],"outputs":[{"name":"","type":"uint256","internalType":"uint256"}],"stateMutability":"view"},{"type":"function","name":"totalSignals","inputs":[{"name":"","type":"uint256","internalType":"uint256"}],"outputs":[{"name":"","type":"uint256","internalType":"uint256"}],"stateMutability":"view"},{"type":"function","name":"totalSubscribers","inputs":[{"name":"","type":"uint256","internalType":"uint256"}],"outputs":[{"name":"","type":"uint256","internalType":"uint256"}],"stateMutability":"view"},{"type":"function","name":"transferOwnership","inputs":[{"name":"newOwner","type":"address","internalType":"address"}],"outputs":[],"stateMutability":"nonpayable"},{"type":"function","name":"updatePaymentToken","inputs":[{"name":"newToken","type":"address","internalType":"address"}],"outputs":[],"stateMutability":"nonpayable"},{"type":"function","name":"withdrawPlatformFees","inputs":[],"outputs":[],"stateMutability":"nonpayable"},{"type":"event","name":"OwnershipTransferred","inputs":[{"name":"previousOwner","type":"address","indexed":true,"internalType":"address"},{"name":"newOwner","type":"address","indexed":true,"internalType":"address"}],"anonymous":false},{"type":"event","name":"SignalPublished","inputs":[{"name":"modelId","type":"uint256","indexed":true,"internalType":"uint256"},{"name":"asset","type":"string","indexed":false,"internalType":"string"},{"name":"action","type":"string","indexed":false,"internalType":"string"},{"name":"confidence","type":"uint256","indexed":false,"internalType":"uint256"},{"name":"timestamp","type":"uint256","indexed":false,"internalType":"uint256"}],"anonymous":false},{"type":"event","name":"SignalPurchased","inputs":[{"name":"modelId","type":"uint256","indexed":true,"internalType":"uint256"},{"name":"buyer","type":"address","indexed":true,"internalType":"address"},{"name":"price","type":"uint256","indexed":false,"internalType":"uint256"}],"anonymous":false},{"type":"event","name":"Subscribed","inputs":[{"name":"modelId","type":"uint256","indexed":true,"internalType":"uint256"},{"name":"subscriber","type":"address","indexed":true,"internalType":"address"},{"name":"duration","type":"uint256","indexed":false,"internalType":"uint256"}],"anonymous":false},{"type":"error","name":"OwnableInvalidOwner","inputs":[{"name":"owner","type":"address","internalType":"address"}]},{"type":"error","name":"OwnableUnauthorizedAccount","inputs":[{"name":"account","type":"address","internalType":"address"}]},{"type":"error","name":"ReentrancyGuardReentrantCall","inputs":[]}],"bytecode":{"object":"0x608060405234801562000010575f80fd5b50604051620023a2380380620023a2833981016040819052620000339162000126565b33806200005957604051631e4fbdf760e01b81525f600482015260240160405180910390fd5b6200006481620000bb565b5060017f9b779b17422d0df92223018b32b4d1fa46e071723d6817e2486d003becc55f0055600180546001600160a01b039384166001600160a01b031991821617909155600280549290931691161790556200015c565b5f80546001600160a01b038381166001600160a01b0319831681178455604051919092169283917f8be0079c531659141344cd1fd0a4f28419497f9722a3daafe3b4186f6b6457e09190a35050565b80516001600160a01b038116811462000121575f80fd5b919050565b5f806040838503121562000138575f80fd5b62000143836200010a565b915062000153602084016200010a565b90509250929050565b612238806200016a5f395ff3fe608060405234801561000f575f80fd5b506004361061016d575f3560e01c806371cc69df116100d9578063ba77047a11610093578063d0b7830b1161006e578063d0b7830b146104a3578063d3631fa5146104ab578063f2fde38b146104b4578063f31df341146104c7575f80fd5b8063ba77047a146103df578063bfdb668f146103f2578063c337916614610412575f80fd5b806371cc69df146103505780637d0536041461036357806384370813146103825780638da5cb5b14610395578063b20d51c3146103a5578063b7b667c8146103b8575f80fd5b8063415df9621161012a578063415df9621461023d5780634ccf1b341461025c5780635469f0f21461026f578063560d52d4146102e057806365019f2e146102e8578063715018a614610348575f80fd5b80631dfee06014610171578063212350831461019a5780632ba36f78146101af5780632dbbd883146101da5780633013ce29146101fd5780633bbdc53014610210575b5f80fd5b61018461017f366004611acd565b6104e6565b6040516101919190611bbe565b60405180910390f35b6101ad6101a8366004611bd7565b610760565b005b6001546101c2906001600160a01b031681565b6040516001600160a01b039091168152602001610191565b6101ed6101e8366004611c02565b610807565b6040519015158152602001610191565b6002546101c2906001600160a01b031681565b61022f61021e366004611bd7565b60066020525f908152604090205481565b604051908152602001610191565b61022f61024b366004611bd7565b60076020525f908152604090205481565b6101ad61026a366004611c30565b610848565b6102be61027d366004611c02565b5f9182526003602081815260408085206001600160a01b03949094168552929052912060028101549181015460048201546005909201549293909260ff1690565b6040805194855260208501939093529183015215156060820152608001610191565b61022f600581565b6103286102f6366004611bd7565b5f9081526007602090815260408083205460088352818420546005845282852054600690945291909320549293909290565b604080519485526020850193909352918301526060820152608001610191565b6101ad610872565b6101ad61035e366004611c90565b610885565b61022f610371366004611bd7565b60086020525f908152604090205481565b6101ad610390366004611acd565b610c20565b5f546001600160a01b03166101c2565b6101ad6103b3366004611d4a565b610ffc565b6103cb6103c6366004611acd565b6110cc565b604051610191989796959493929190611d73565b6101ad6103ed366004611acd565b6112bc565b610405610400366004611acd565b6115a8565b6040516101919190611ddb565b61046c610420366004611c02565b600360208181525f9384526040808520909152918352912080546001820154600283015493830154600484015460059094015492946001600160a01b0390921693919290919060ff1686565b604080519687526001600160a01b0390951660208701529385019290925260608401526080830152151560a082015260c001610191565b6101ad61187a565b61022f60095481565b6101ad6104c2366004611c30565b61198b565b61022f6104d5366004611bd7565b60056020525f908152604090205481565b6104ee611a8d565b5f83815260046020526040902054821061053f5760405162461bcd60e51b815260206004820152600d60248201526c092dcecc2d8d2c840d2dcc8caf609b1b60448201526064015b60405180910390fd5b5f83815260046020526040902080548390811061055e5761055e611e3d565b905f5260205f209060080201604051806101000160405290815f82015481526020016001820154815260200160028201805461059990611e51565b80601f01602080910402602001604051908101604052809291908181526020018280546105c590611e51565b80156106105780601f106105e757610100808354040283529160200191610610565b820191905f5260205f20905b8154815290600101906020018083116105f357829003601f168201915b5050505050815260200160038201805461062990611e51565b80601f016020809104026020016040519081016040528092919081815260200182805461065590611e51565b80156106a05780601f10610677576101008083540402835291602001916106a0565b820191905f5260205f20905b81548152906001019060200180831161068357829003601f168201915b505050505081526020016004820154815260200160058201548152602001600682015481526020016007820180546106d790611e51565b80601f016020809104026020016040519081016040528092919081815260200182805461070390611e51565b801561074e5780601f106107255761010080835404028352916020019161074e565b820191905f5260205f20905b81548152906001019060200180831161073157829003601f168201915b50505050508152505090505b92915050565b5f8181526003602090815260408083203384529091529020600581015460ff166107c55760405162461bcd60e51b815260206004820152601660248201527527379030b1ba34bb329039bab139b1b934b83a34b7b760511b6044820152606401610536565b60058101805460ff191690555f8281526007602052604090205415610803575f8281526007602052604081208054916107fd83611e9d565b91905055505b5050565b5f8281526003602090815260408083206001600160a01b03851684529091528120600581015460ff168015610840575080600301544211155b949350505050565b6108506119c8565b600280546001600160a01b0319166001600160a01b0392909216919091179055565b61087a6119c8565b6108835f6119f4565b565b6001546040516331a9108f60e11b8152600481018c905233916001600160a01b031690636352211e90602401602060405180830381865afa1580156108cc573d5f803e3d5ffd5b505050506040513d601f19601f820116820180604052508101906108f09190611eb2565b6001600160a01b0316146109385760405162461bcd60e51b815260206004820152600f60248201526e2737ba1036b7b232b61037bbb732b960891b6044820152606401610536565b61271083111561097f5760405162461bcd60e51b8152602060048201526012602482015271496e76616c696420636f6e666964656e636560701b6044820152606401610536565b600154604051631df6cddd60e31b8152600481018c90525f9182916001600160a01b039091169063efb66ee8906024015f60405180830381865afa1580156109c9573d5f803e3d5ffd5b505050506040513d5f823e601f3d908101601f191682016040526109f09190810190611ee1565b945094505050505f8211610a3e5760405162461bcd60e51b8152602060048201526015602482015274135bd9195b081b9bdd081a5b9a5d1a585b1a5e9959605a1b6044820152606401610536565b5f6040518061010001604052808e81526020014281526020018d8d8080601f0160208091040260200160405190810160405280939291908181526020018383808284375f92019190915250505090825250604080516020601f8e018190048102820181019092528c815291810191908d908d90819084018382808284375f9201919091525050509082525060208082018b905260408083018b9052606083018a90528051601f89018390048302810183019091528781526080909201919088908890819084018382808284375f9201829052509390945250508f8152600460209081526040808320805460018181018355918552938390208651600890950201938455918501519183019190915583015192935083929091506002820190610b669082612002565b5060608201516003820190610b7b9082612002565b506080820151600482015560a0820151600582015560c0820151600682015560e08201516007820190610bae9082612002565b5050505f8d8152600860205260408120805491610bca836120c2565b91905055508c7f61f7f9cbd7691013c14c5d630e65f85ff768d5bc78739c52a7f5545dc96b500a8d8d8d8d8b42604051610c0996959493929190612102565b60405180910390a250505050505050505050505050565b610c28611a43565b5f81118015610c385750600c8111155b610c775760405162461bcd60e51b815260206004820152601060248201526f24b73b30b634b210323ab930ba34b7b760811b6044820152606401610536565b5f82815260056020526040902054610cc75760405162461bcd60e51b81526020600482015260136024820152724d6f64656c206e6f7420617661696c61626c6560681b6044820152606401610536565b5f82815260056020526040812054610ce090839061213e565b90505f6064610cf060058461213e565b610cfa9190612155565b90505f610d078284612174565b6002546040516323b872dd60e01b8152336004820152306024820152604481018690529192506001600160a01b0316906323b872dd906064016020604051808303815f875af1158015610d5c573d5f803e3d5ffd5b505050506040513d601f19601f82011682018060405250810190610d809190612187565b610dbd5760405162461bcd60e51b815260206004820152600e60248201526d14185e5b595b9d0819985a5b195960921b6044820152606401610536565b5f8581526003602090815260408083203384529091528120600581015490919060ff161580610df0575042826003015411155b6005830154909150429060ff168015610e0c5750428360030154115b15610e18575060038201545b8783556001830180546001600160a01b0319163317905581610e3e578260020154610e40565b425b6002840155610e528762278d0061213e565b610e5c90826121a6565b600384015560058301805460ff191660011790558115610e95575f888152600760205260408120805491610e8f836120c2565b91905055505b6001546040516331a9108f60e11b8152600481018a90525f916001600160a01b031690636352211e90602401602060405180830381865afa158015610edc573d5f803e3d5ffd5b505050506040513d601f19601f82011682018060405250810190610f009190611eb2565b60025460405163a9059cbb60e01b81526001600160a01b0380841660048301526024820189905292935091169063a9059cbb906044016020604051808303815f875af1158015610f52573d5f803e3d5ffd5b505050506040513d601f19601f82011682018060405250810190610f769190612187565b610f925760405162461bcd60e51b8152600401610536906121b9565b8560095f828254610fa391906121a6565b909155505060405188815233908a907fad24110dc4e3726555debcc81d3781cc9bc21a42b15c56fd9c90177a1a1007179060200160405180910390a35050505050505061080360015f805160206121e383398151915255565b6001546040516331a9108f60e11b81526004810185905233916001600160a01b031690636352211e90602401602060405180830381865afa158015611043573d5f803e3d5ffd5b505050506040513d601f19601f820116820180604052508101906110679190611eb2565b6001600160a01b0316146110af5760405162461bcd60e51b815260206004820152600f60248201526e2737ba1036b7b232b61037bbb732b960891b6044820152606401610536565b5f9283526005602090815260408085209390935560069052912055565b6004602052815f5260405f2081815481106110e5575f80fd5b905f5260205f2090600802015f9150915050805f01549080600101549080600201805461111190611e51565b80601f016020809104026020016040519081016040528092919081815260200182805461113d90611e51565b80156111885780601f1061115f57610100808354040283529160200191611188565b820191905f5260205f20905b81548152906001019060200180831161116b57829003601f168201915b50505050509080600301805461119d90611e51565b80601f01602080910402602001604051908101604052809291908181526020018280546111c990611e51565b80156112145780601f106111eb57610100808354040283529160200191611214565b820191905f5260205f20905b8154815290600101906020018083116111f757829003601f168201915b50505050509080600401549080600501549080600601549080600701805461123b90611e51565b80601f016020809104026020016040519081016040528092919081815260200182805461126790611e51565b80156112b25780601f10611289576101008083540402835291602001916112b2565b820191905f5260205f20905b81548152906001019060200180831161129557829003601f168201915b5050505050905088565b6112c4611a43565b5f8281526004602052604090205481106113115760405162461bcd60e51b815260206004820152600e60248201526d125b9d985b1a59081cda59db985b60921b6044820152606401610536565b5f8281526006602052604090205461135b5760405162461bcd60e51b815260206004820152600d60248201526c4e6f7420617661696c61626c6560981b6044820152606401610536565b5f8281526006602052604081205490606461137760058461213e565b6113819190612155565b90505f61138e8284612174565b6002546040516323b872dd60e01b8152336004820152306024820152604481018690529192506001600160a01b0316906323b872dd906064016020604051808303815f875af11580156113e3573d5f803e3d5ffd5b505050506040513d601f19601f820116820180604052508101906114079190612187565b6114445760405162461bcd60e51b815260206004820152600e60248201526d14185e5b595b9d0819985a5b195960921b6044820152606401610536565b6001546040516331a9108f60e11b8152600481018790525f916001600160a01b031690636352211e90602401602060405180830381865afa15801561148b573d5f803e3d5ffd5b505050506040513d601f19601f820116820180604052508101906114af9190611eb2565b60025460405163a9059cbb60e01b81526001600160a01b0380841660048301526024820186905292935091169063a9059cbb906044016020604051808303815f875af1158015611501573d5f803e3d5ffd5b505050506040513d601f19601f820116820180604052508101906115259190612187565b6115415760405162461bcd60e51b8152600401610536906121b9565b8260095f82825461155291906121a6565b9091555050604051848152339087907f1966bd25a7ba6487cf718b949e75e0f21847e4149b9055a34f88bff170b72dcf9060200160405180910390a35050505061080360015f805160206121e383398151915255565b5f82815260046020526040812080546060928185116115c757846115c9565b815b90505f8167ffffffffffffffff8111156115e5576115e5611ecd565b60405190808252806020026020018201604052801561161e57816020015b61160b611a8d565b8152602001906001900390816116035790505b5090505f5b8281101561186f5784816116378587612174565b61164191906121a6565b8154811061165157611651611e3d565b905f5260205f209060080201604051806101000160405290815f82015481526020016001820154815260200160028201805461168c90611e51565b80601f01602080910402602001604051908101604052809291908181526020018280546116b890611e51565b80156117035780601f106116da57610100808354040283529160200191611703565b820191905f5260205f20905b8154815290600101906020018083116116e657829003601f168201915b5050505050815260200160038201805461171c90611e51565b80601f016020809104026020016040519081016040528092919081815260200182805461174890611e51565b80156117935780601f1061176a57610100808354040283529160200191611793565b820191905f5260205f20905b81548152906001019060200180831161177657829003601f168201915b505050505081526020016004820154815260200160058201548152602001600682015481526020016007820180546117ca90611e51565b80601f01602080910402602001604051908101604052809291908181526020018280546117f690611e51565b80156118415780601f1061181857610100808354040283529160200191611841565b820191905f5260205f20905b81548152906001019060200180831161182457829003601f168201915b50505050508152505082828151811061185c5761185c611e3d565b6020908102919091010152600101611623565b509695505050505050565b6118826119c8565b61188a611a43565b600954806118c45760405162461bcd60e51b81526020600482015260076024820152664e6f206665657360c81b6044820152606401610536565b5f6009556002546001600160a01b031663a9059cbb6118ea5f546001600160a01b031690565b6040516001600160e01b031960e084901b1681526001600160a01b039091166004820152602481018490526044016020604051808303815f875af1158015611934573d5f803e3d5ffd5b505050506040513d601f19601f820116820180604052508101906119589190612187565b6119745760405162461bcd60e51b8152600401610536906121b9565b5061088360015f805160206121e383398151915255565b6119936119c8565b6001600160a01b0381166119bc57604051631e4fbdf760e01b81525f6004820152602401610536565b6119c5816119f4565b50565b5f546001600160a01b031633146108835760405163118cdaa760e01b8152336004820152602401610536565b5f80546001600160a01b038381166001600160a01b0319831681178455604051919092169283917f8be0079c531659141344cd1fd0a4f28419497f9722a3daafe3b4186f6b6457e09190a35050565b611a4b611a5e565b60025f805160206121e383398151915255565b5f805160206121e38339815191525460020361088357604051633ee5aeb560e01b815260040160405180910390fd5b6040518061010001604052805f81526020015f815260200160608152602001606081526020015f81526020015f81526020015f8152602001606081525090565b5f8060408385031215611ade575f80fd5b50508035926020909101359150565b5f5b83811015611b07578181015183820152602001611aef565b50505f910152565b5f8151808452611b26816020860160208601611aed565b601f01601f19169290920160200192915050565b5f61010082518452602083015160208501526040830151816040860152611b6382860182611b0f565b91505060608301518482036060860152611b7d8282611b0f565b9150506080830151608085015260a083015160a085015260c083015160c085015260e083015184820360e0860152611bb58282611b0f565b95945050505050565b602081525f611bd06020830184611b3a565b9392505050565b5f60208284031215611be7575f80fd5b5035919050565b6001600160a01b03811681146119c5575f80fd5b5f8060408385031215611c13575f80fd5b823591506020830135611c2581611bee565b809150509250929050565b5f60208284031215611c40575f80fd5b8135611bd081611bee565b5f8083601f840112611c5b575f80fd5b50813567ffffffffffffffff811115611c72575f80fd5b602083019150836020828501011115611c89575f80fd5b9250929050565b5f805f805f805f805f8060e08b8d031215611ca9575f80fd5b8a35995060208b013567ffffffffffffffff80821115611cc7575f80fd5b611cd38e838f01611c4b565b909b50995060408d0135915080821115611ceb575f80fd5b611cf78e838f01611c4b565b909950975060608d0135965060808d0135955060a08d0135945060c08d0135915080821115611d24575f80fd5b50611d318d828e01611c4b565b915080935050809150509295989b9194979a5092959850565b5f805f60608486031215611d5c575f80fd5b505081359360208301359350604090920135919050565b5f6101008a8352896020840152806040840152611d928184018a611b0f565b90508281036060840152611da68189611b0f565b90508660808401528560a08401528460c084015282810360e0840152611dcc8185611b0f565b9b9a5050505050505050505050565b5f60208083016020845280855180835260408601915060408160051b8701019250602087015f5b82811015611e3057603f19888603018452611e1e858351611b3a565b94509285019290850190600101611e02565b5092979650505050505050565b634e487b7160e01b5f52603260045260245ffd5b600181811c90821680611e6557607f821691505b602082108103611e8357634e487b7160e01b5f52602260045260245ffd5b50919050565b634e487b7160e01b5f52601160045260245ffd5b5f81611eab57611eab611e89565b505f190190565b5f60208284031215611ec2575f80fd5b8151611bd081611bee565b634e487b7160e01b5f52604160045260245ffd5b5f805f805f60a08688031215611ef5575f80fd5b8551611f0081611bee565b602087015190955067ffffffffffffffff80821115611f1d575f80fd5b818801915088601f830112611f30575f80fd5b815181811115611f4257611f42611ecd565b604051601f8201601f19908116603f01168101908382118183101715611f6a57611f6a611ecd565b816040528281528b6020848701011115611f82575f80fd5b611f93836020830160208801611aed565b60408b015160608c01516080909c01519a9d919c509a9998509650505050505050565b601f821115611ffd57805f5260205f20601f840160051c81016020851015611fdb5750805b601f840160051c820191505b81811015611ffa575f8155600101611fe7565b50505b505050565b815167ffffffffffffffff81111561201c5761201c611ecd565b6120308161202a8454611e51565b84611fb6565b602080601f831160018114612063575f841561204c5750858301515b5f19600386901b1c1916600185901b1785556120ba565b5f85815260208120601f198616915b8281101561209157888601518255948401946001909101908401612072565b50858210156120ae57878501515f19600388901b60f8161c191681555b505060018460011b0185555b505050505050565b5f600182016120d3576120d3611e89565b5060010190565b81835281816020850137505f828201602090810191909152601f909101601f19169091010190565b608081525f61211560808301888a6120da565b82810360208401526121288187896120da565b6040840195909552505060600152949350505050565b808202811582820484141761075a5761075a611e89565b5f8261216f57634e487b7160e01b5f52601260045260245ffd5b500490565b8181038181111561075a5761075a611e89565b5f60208284031215612197575f80fd5b81518015158114611bd0575f80fd5b8082018082111561075a5761075a611e89565b6020808252600f908201526e151c985b9cd9995c8819985a5b1959608a1b60408201526060019056fe9b779b17422d0df92223018b32b4d1fa46e071723d6817e2486d003becc55f00a2646970667358221220b6ec61e00703ce2350c0aba6e2489c79c5ae388bc560f234ddddb10fed934f5f64736f6c63430008180033","linkReferences":{}},"methodIdentifiers":{"PLATFORM_FEE_PERCENT()":"560d52d4","cancelSubscription(uint256)":"21235083","getLatestSignals(uint256,uint256)":"bfdb668f","getModelStats(uint256)":"65019f2e","getSignal(uint256,uint256)":"1dfee060","getSubscription(uint256,address)":"5469f0f2","hasActiveSubscription(uint256,address)":"2dbbd883","modelRegistry()":"2ba36f78","modelSignals(uint256,uint256)":"b7b667c8","owner()":"8da5cb5b","paymentToken()":"3013ce29","perSignalPrice(uint256)":"3bbdc530","publishSignal(uint256,string,string,uint256,uint256,uint256,bytes)":"71cc69df","purchaseSignal(uint256,uint256)":"ba77047a","renounceOwnership()":"715018a6","setModelPricing(uint256,uint256,uint256)":"b20d51c3","subscribe(uint256,uint256)":"84370813","subscriptionPrice(uint256)":"f31df341","subscriptions(uint256,address)":"c3379166","totalPlatformFees()":"d3631fa5","totalSignals(uint256)":"7d053604","totalSubscribers(uint256)":"415df962","transferOwnership(address)":"f2fde38b","updatePaymentToken(address)":"4ccf1b34","withdrawPlatformFees()":"d0b7830b"},"id":41}