{"abi":[{"type":"constructor","inputs":[{"name":"_modelRegistry","type":"address","internalType":"address"},{"name":"_paymentToken","type":"address","internalType":"address"}],"stateMutability":"nonpayable"},{"type":"function","name":"PLATFORM_FEE_PERCENT","inputs":[],"outputs":[{"name":"","type":"uint256","internalType":"uint256"}],"stateMutability":"view"},{"type":"function","name":"canAccessSignal","inputs":[{"name":"modelId","type":"uint256","internalType":"uint256"},{"name":"signalIndex","type":"uint256","internalType":"uint256"},{"name":"user","type":"address","internalType":"address"}],"outputs":[{"name":"","type":"bool","internalType":"bool"}],"stateMutability":"view"},{"type":"function","name":"cancelSubscription","inputs":[{"name":"modelId","type":"uint256","internalType":"uint256"}],"outputs":[],"stateMutability":"nonpayable"},{"type":"function","name":"getLatestSignals","inputs":[{"name":"modelId","type":"uint256","internalType":"uint256"},{"name":"count","type":"uint256","internalType":"uint256"}],"outputs":[{"name":"","type":"tuple[]","internalType":"struct AISignalMarketplace.Signal[]","components":[{"name":"modelId","type":"uint256","internalType":"uint256"},{"name":"timestamp","type":"uint256","internalType":"uint256"},{"name":"asset","type":"string","internalType":"string"},{"name":"action","type":"string","internalType":"string"},{"name":"targetPrice","type":"uint256","internalType":"uint256"},{"name":"stopLoss","type":"uint256","internalType":"uint256"},{"name":"confidence","type":"uint256","internalType":"uint256"},{"name":"extraData","type":"bytes","internalType":"bytes"}]}],"stateMutability":"view"},{"type":"function","name":"getModelStats","inputs":[{"name":"modelId","type":"uint256","internalType":"uint256"}],"outputs":[{"name":"subscribers","type":"uint256","internalType":"uint256"},{"name":"signals","type":"uint256","internalType":"uint256"},{"name":"monthlyPrice","type":"uint256","internalType":"uint256"},{"name":"signalPrice","type":"uint256","internalType":"uint256"}],"stateMutability":"view"},{"type":"function","name":"getSignal","inputs":[{"name":"modelId","type":"uint256","internalType":"uint256"},{"name":"index","type":"uint256","internalType":"uint256"}],"outputs":[{"name":"","type":"tuple","internalType":"struct AISignalMarketplace.Signal","components":[{"name":"modelId","type":"uint256","internalType":"uint256"},{"name":"timestamp","type":"uint256","internalType":"uint256"},{"name":"asset","type":"string","internalType":"string"},{"name":"action","type":"string","internalType":"string"},{"name":"targetPrice","type":"uint256","internalType":"uint256"},{"name":"stopLoss","type":"uint256","internalType":"uint256"},{"name":"confidence","type":"uint256","internalType":"uint256"},{"name":"extraData","type":"bytes","internalType":"bytes"}]}],"stateMutability":"view"},{"type":"function","name":"getSignalCount","inputs":[{"name":"modelId","type":"uint256","internalType":"uint256"}],"outputs":[{"name":"","type":"uint256","internalType":"uint256"}],"stateMutability":"view"},{"type":"function","name":"getSubscription","inputs":[{"name":"modelId","type":"uint256","internalType":"uint256"},{"name":"user","type":"address","internalType":"address"}],"outputs":[{"name":"startTime","type":"uint256","internalType":"uint256"},{"name":"endTime","type":"uint256","internalType":"uint256"},{"name":"signalsReceived","type":"uint256","internalType":"uint256"},{"name":"isActive","type":"bool","internalType":"bool"}],"stateMutability":"view"},{"type":"function","name":"hasActiveSubscription","inputs":[{"name":"modelId","type":"uint256","internalType":"uint256"},{"name":"user","type":"address","internalType":"address"}],"outputs":[{"name":"","type":"bool","internalType":"bool"}],"stateMutability":"view"},{"type":"function","name":"modelRegistry","inputs":[],"outputs":[{"name":"","type":"address","internalType":"contract AIModelRegistry"}],"stateMutability":"view"},{"type":"function","name":"modelSignals","inputs":[{"name":"","type":"uint256","internalType":"uint256"},{"name":"","type":"uint256","internalType":"uint256"}],"outputs":[{"name":"modelId","type":"uint256","internalType":"uint256"},{"name":"timestamp","type":"uint256","internalType":"uint256"},{"name":"asset","type":"string","internalType":"string"},{"name":"action","type":"string","internalType":"string"},{"name":"targetPrice","type":"uint256","internalType":"uint256"},{"name":"stopLoss","type":"uint256","internalType":"uint256"},{"name":"confidence","type":"uint256","internalType":"uint256"},{"name":"extraData","type":"bytes","internalType":"bytes"}],"stateMutability":"view"},{"type":"function","name":"owner","inputs":[],"outputs":[{"name":"","type":"address","internalType":"address"}],"stateMutability":"view"},{"type":"function","name":"paymentToken","inputs":[],"outputs":[{"name":"","type":"address","internalType":"contract IERC20"}],"stateMutability":"view"},{"type":"function","name":"perSignalPrice","inputs":[{"name":"","type":"uint256","internalType":"uint256"}],"outputs":[{"name":"","type":"uint256","internalType":"uint256"}],"stateMutability":"view"},{"type":"function","name":"publishSignal","inputs":[{"name":"modelId","type":"uint256","internalType":"uint256"},{"name":"asset","type":"string","internalType":"string"},{"name":"action","type":"string","internalType":"string"},{"name":"targetPrice","type":"uint256","internalType":"uint256"},{"name":"stopLoss","type":"uint256","internalType":"uint256"},{"name":"confidence","type":"uint256","internalType":"uint256"},{"name":"extraData","type":"bytes","internalType":"bytes"}],"outputs":[],"stateMutability":"nonpayable"},{"type":"function","name":"purchaseSignal","inputs":[{"name":"modelId","type":"uint256","internalType":"uint256"},{"name":"signalIndex","type":"uint256","internalType":"uint256"}],"outputs":[],"stateMutability":"nonpayable"},{"type":"function","name":"renounceOwnership","inputs":[],"outputs":[],"stateMutability":"nonpayable"},{"type":"function","name":"setModelPricing","inputs":[{"name":"modelId","type":"uint256","internalType":"uint256"},{"name":"monthlyPrice","type":"uint256","internalType":"uint256"},{"name":"signalPrice","type":"uint256","internalType":"uint256"}],"outputs":[],"stateMutability":"nonpayable"},{"type":"function","name":"subscribe","inputs":[{"name":"modelId","type":"uint256","internalType":"uint256"},{"name":"months","type":"uint256","internalType":"uint256"}],"outputs":[],"stateMutability":"nonpayable"},{"type":"function","name":"subscriptionPrice","inputs":[{"name":"","type":"uint256","internalType":"uint256"}],"outputs":[{"name":"","type":"uint256","internalType":"uint256"}],"stateMutability":"view"},{"type":"function","name":"subscriptions","inputs":[{"name":"","type":"uint256","internalType":"uint256"},{"name":"","type":"address","internalType":"address"}],"outputs":[{"name":"modelId","type":"uint256","internalType":"uint256"},{"name":"subscriber","type":"address","internalType":"address"},{"name":"startTime","type":"uint256","internalType":"uint256"},{"name":"endTime","type":"uint256","internalType":"uint256"},{"name":"signalsReceived","type":"uint256","internalType":"uint256"},{"name":"isActive","type":"bool","internalType":"bool"}],"stateMutability":"view"},{"type":"function","name":"totalPlatformFees","inputs":[],"outputs":[{"name":"","type":"uint256","internalType":"uint256"}],"stateMutability":"view"},{"type":"function","name":"totalSignals","inputs":[{"name":"","type":"uint256","internalType":"uint256"}],"outputs":[{"name":"","type":"uint256","internalType":"uint256"}],"stateMutability":"view"},{"type":"function","name":"totalSubscribers","inputs":[{"name":"","type":"uint256","internalType":"uint256"}],"outputs":[{"name":"","type":"uint256","internalType":"uint256"}],"stateMutability":"view"},{"type":"function","name":"transferOwnership","inputs":[{"name":"newOwner","type":"address","internalType":"address"}],"outputs":[],"stateMutability":"nonpayable"},{"type":"function","name":"updatePaymentToken","inputs":[{"name":"newToken","type":"address","internalType":"address"}],"outputs":[],"stateMutability":"nonpayable"},{"type":"function","name":"withdrawPlatformFees","inputs":[],"outputs":[],"stateMutability":"nonpayable"},{"type":"event","name":"OwnershipTransferred","inputs":[{"name":"previousOwner","type":"address","indexed":true,"internalType":"address"},{"name":"newOwner","type":"address","indexed":true,"internalType":"address"}],"anonymous":false},{"type":"event","name":"SignalPublished","inputs":[{"name":"modelId","type":"uint256","indexed":true,"internalType":"uint256"},{"name":"asset","type":"string","indexed":false,"internalType":"string"},{"name":"action","type":"string","indexed":false,"internalType":"string"},{"name":"confidence","type":"uint256","indexed":false,"internalType":"uint256"},{"name":"timestamp","type":"uint256","indexed":false,"internalType":"uint256"}],"anonymous":false},{"type":"event","name":"SignalPurchased","inputs":[{"name":"modelId","type":"uint256","indexed":true,"internalType":"uint256"},{"name":"buyer","type":"address","indexed":true,"internalType":"address"},{"name":"price","type":"uint256","indexed":false,"internalType":"uint256"}],"anonymous":false},{"type":"event","name":"Subscribed","inputs":[{"name":"modelId","type":"uint256","indexed":true,"internalType":"uint256"},{"name":"subscriber","type":"address","indexed":true,"internalType":"address"},{"name":"duration","type":"uint256","indexed":false,"internalType":"uint256"}],"anonymous":false},{"type":"error","name":"OwnableInvalidOwner","inputs":[{"name":"owner","type":"address","internalType":"address"}]},{"type":"error","name":"OwnableUnauthorizedAccount","inputs":[{"name":"account","type":"address","internalType":"address"}]},{"type":"error","name":"ReentrancyGuardReentrantCall","inputs":[]}],"bytecode":{"object":"0x6080346200010757601f62001e4238819003918201601f19168301916001600160401b038311848410176200010b57808492604094855283398101031262000107576200005a602062000052836200011f565b92016200011f565b903315620000ef575f549160018060a01b03908160018060a01b03199333858716175f5560405195823391167f8be0079c531659141344cd1fd0a4f28419497f9722a3daafe3b4186f6b6457e05f80a360017f9b779b17422d0df92223018b32b4d1fa46e071723d6817e2486d003becc55f00551683600154161760015516906002541617600255611d0d9081620001358239f35b604051631e4fbdf760e01b81525f6004820152602490fd5b5f80fd5b634e487b7160e01b5f52604160045260245ffd5b51906001600160a01b0382168203620001075756fe60806040526004361015610011575f80fd5b5f3560e01c80631dfee060146116175780632123508314611579578063275f0f931461154f5780632ba36f78146115275780632dbbd883146114c35780633013ce291461149b5780633bbdc53014611471578063415df962146114475780634ccf1b34146114045780635469f0f214611396578063560d52d41461137b57806365019f2e14611325578063715018a6146112ce57806371cc69df14610c7a5780637d05360414610c50578063843708131461094a5780638da5cb5b14610923578063a257c8bf146108e4578063b20d51c314610829578063b7b667c814610735578063ba77047a146104cd578063bfdb668f146103a6578063c337916614610324578063d0b7830b14610217578063d3631fa5146101fa578063f2fde38b146101705763f31df34114610142575f80fd5b3461016c57602036600319011261016c576004355f526005602052602060405f2054604051908152f35b5f80fd5b3461016c57602036600319011261016c5761018961178d565b610191611c6a565b6001600160a01b039081169081156101e2575f54826bffffffffffffffffffffffff60a01b8216175f55167f8be0079c531659141344cd1fd0a4f28419497f9722a3daafe3b4186f6b6457e05f80a3005b604051631e4fbdf760e01b81525f6004820152602490fd5b3461016c575f36600319011261016c576020600954604051908152f35b3461016c575f36600319011261016c5761022f611c6a565b610237611c95565b60095480156102f5575f6009819055600254815460405163a9059cbb60e01b81526001600160a01b03918216600482015260248101949094526020928492604492849291165af180156102ea57610295915f916102bb575b50611b61565b60017f9b779b17422d0df92223018b32b4d1fa46e071723d6817e2486d003becc55f0055005b6102dd915060203d6020116102e3575b6102d581836118e4565b810190611aff565b8261028f565b503d6102cb565b6040513d5f823e3d90fd5b60405162461bcd60e51b81526020600482015260076024820152664e6f206665657360c81b6044820152606490fd5b3461016c57604036600319011261016c5760c061033f611777565b6004355f52600360205260405f2060018060a01b038092165f5260205260405f2080549160018201541690600281015460038201549060ff6005600485015494015416936040519586526020860152604085015260608401526080830152151560a0820152f35b3461016c576103b4366116a6565b905f526020906004825260405f20908154908181115f146104c7575080915b6103dc83611c3e565b926103ea60405194856118e4565b8084526103f681611c3e565b601f1901855f5b8281106104b1575050505f5b81811061046d576040805187815286518189018190525f92600582901b8301810191898b01918b9085015b8287106104415785850386f35b90919293828061045d600193603f198a82030186528851611702565b9601920196019592919092610434565b8061049561048f610489600194610484878a611af2565b611b54565b866117d1565b50611942565b61049f8288611c56565b526104aa8187611c56565b5001610409565b6104b9611906565b8282890101520186906103fd565b916103d3565b3461016c576104db366116a6565b906104e4611c95565b805f526104fc6020926004845260405f205411611b9f565b805f526006825260405f20541561070057805f526006825260405f20549160058302838104600514841517156106ec57606490049061053b8285611af2565b6002546040516323b872dd60e01b815233600482015230602482015260448101879052919391906001600160a01b03908490839060649082905f9086165af19182156102ea57602492610595915f916106cf575b50611b17565b838160015416604051938480926331a9108f60e11b82528a60048301525afa9182156102ea575f92610691575b5060025460405163a9059cbb60e01b81526001600160a01b039093166004840152602483019590955290938391859116815f81604481015b03925af19081156102ea5761063a610642927f1966bd25a7ba6487cf718b949e75e0f21847e4149b9055a34f88bff170b72dcf955f916106745750611b61565b600954611b54565b6009556040519384523393a360017f9b779b17422d0df92223018b32b4d1fa46e071723d6817e2486d003becc55f0055005b61068b9150853d87116102e3576102d581836118e4565b8861028f565b9150938382813d83116106c8575b6106a981836118e4565b8101031261016c576105fa946106bf85936119d1565b925090946105c2565b503d61069f565b6106e69150863d88116102e3576102d581836118e4565b8961058f565b634e487b7160e01b5f52601160045260245ffd5b60405162461bcd60e51b815260048101839052600d60248201526c4e6f7420617661696c61626c6560981b6044820152606490fd5b3461016c57610743366116a6565b905f52600460205260405f2090815481101561016c57610762916117d1565b5080549061082560018201549160076040519161078d836107868160028501611836565b03846118e4565b604051926107a9846107a28160038601611836565b03856118e4565b6108086004830154946107fa6005850154936107db6006870154966107d4604051809a819301611836565b03886118e4565b6040519a8b9a610100918c5260208c01528060408c01528a01906116dd565b9088820360608a01526116dd565b93608087015260a086015260c085015283820360e08501526116dd565b0390f35b3461016c57606036600319011261016c576001546040516331a9108f60e11b8152600480359082018190526001600160a01b03926020929083908290602490829088165afa9081156102ea575f916108a7575b5060069361088c911633146119e5565b5f526005815260243560405f20555260443560405f20555f80f35b90508281813d83116108dd575b6108be81836118e4565b8101031261016c576006936108d561088c926119d1565b91509361087c565b503d6108b4565b3461016c57606036600319011261016c576044356001600160a01b038116810361016c57610919602091602435600435611bdc565b6040519015158152f35b3461016c575f36600319011261016c575f546040516001600160a01b039091168152602090f35b3461016c57610958366116a6565b90610961611c95565b8115801580610c45575b15610c0d57815f5260206005815260405f205415610bd357825f526005815260405f205491848302928084048614901517156106ec5760058302838104600514841517156106ec5760649004906109c28285611af2565b6002546040516323b872dd60e01b8152336004820152306024820152604481019690965290946001600160a01b03918590829060649082905f9087165af180156102ea57610a16915f916106cf5750611b17565b855f526003845260405f20335f52845260405f2060058101805460ff8116908115938415610bc4575b429280610bb7575b610bab575b8a81556001810180546001600160a01b031916331790558415610ba157425b600282015562278d0096878d02978d89041417156106ec576003610a93602498600195611b54565b91015560ff1916179055610b85575b838160015416604051938480926331a9108f60e11b82528a60048301525afa9182156102ea575f92610b47575b5060025460405163a9059cbb60e01b81526001600160a01b039093166004840152602483019590955290938391859116815f81604481015b03925af19081156102ea5761063a610642927fad24110dc4e3726555debcc81d3781cc9bc21a42b15c56fd9c90177a1a100717955f916106745750611b61565b9150938382813d8311610b7e575b610b5f81836118e4565b8101031261016c57610b0794610b7585936119d1565b92509094610acf565b503d610b55565b855f526007845260405f20610b9a8154611ac4565b9055610aa2565b6002810154610a6b565b60038101549250610a4c565b5042600382015411610a47565b60038101544210159450610a3f565b6064906040519062461bcd60e51b8252600482015260136024820152724d6f64656c206e6f7420617661696c61626c6560681b6044820152fd5b60405162461bcd60e51b815260206004820152601060248201526f24b73b30b634b210323ab930ba34b7b760811b6044820152606490fd5b50600c83111561096b565b3461016c57602036600319011261016c576004355f526008602052602060405f2054604051908152f35b3461016c5760e036600319011261016c5760243567ffffffffffffffff811161016c57610cab9036906004016117a3565b9060443567ffffffffffffffff811161016c57610ccc9036906004016117a3565b909160c43567ffffffffffffffff811161016c57610cee9036906004016117a3565b9060018060a01b03600154166040516331a9108f60e11b81526004356004820152602081602481855afa80156102ea575f90611293575b610d3a91506001600160a01b031633146119e5565b61271060a43511611259575f60249160405192838092631df6cddd60e31b825260043560048301525afa9081156102ea575f916111c5575b501561118857610dd39060405192610d89846118c7565b6004358452426020850152610d9f368987611a3f565b6040850152610daf368789611a3f565b6060850152606435608085015260843560a085015260a43560c08501523691611a3f565b60e08201526004355f52600460205260405f2080546801000000000000000081101561107d57610e08916001820181556117d1565b611175578151815560208201516001820155604082015180519067ffffffffffffffff821161107d57610e4b82610e4260028601546117fe565b60028601611a75565b602090601f831160011461110b57610e7a92915f9183611100575b50508160011b915f199060031b1c19161790565b60028201555b606082015180519067ffffffffffffffff821161107d57610eb182610ea860038601546117fe565b60038601611a75565b602090601f8311600114611091578260079360e09593610ee5935f92610fe35750508160011b915f199060031b1c19161790565b60038201555b6080840151600482015560a0840151600582015560c084015160068201550191015180519067ffffffffffffffff821161107d57610f3382610f2d85546117fe565b85611a75565b602090601f8311600114610fee5792610f8d83610fbc947f61f7f9cbd7691013c14c5d630e65f85ff768d5bc78739c52a7f5545dc96b500a999794610fca99975f92610fe35750508160011b915f199060031b1c19161790565b90555b6004355f52600860205260405f20610fa88154611ac4565b905560405196608088526080880191611ad2565b918583036020870152611ad2565b9160a435604082015242606082015280600435930390a2005b015190508b80610e66565b90601f19831691845f5260205f20925f5b8181106110655750937f61f7f9cbd7691013c14c5d630e65f85ff768d5bc78739c52a7f5545dc96b500a989693610fca98969360019383610fbc981061104d575b505050811b019055610f90565b01515f1960f88460031b161c191690558a8080611040565b92936020600181928786015181550195019301610fff565b634e487b7160e01b5f52604160045260245ffd5b90601f19831691600385015f5260205f20925f5b8181106110e8575092600192859260079660e09896106110d0575b505050811b016003820155610eeb565b01515f1960f88460031b161c191690558a80806110c0565b929360206001819287860151815501950193016110a5565b015190508980610e66565b90601f19831691600285015f5260205f20925f5b81811061115d5750908460019594939210611145575b505050811b016002820155610e80565b01515f1960f88460031b161c19169055888080611135565b9293602060018192878601518155019501930161111f565b634e487b7160e01b5f525f60045260245ffd5b60405162461bcd60e51b8152602060048201526015602482015274135bd9195b081b9bdd081a5b9a5d1a585b1a5e9959605a1b6044820152606490fd5b3d9150815f823e6111d682826118e4565b60a081838101031261016c576111eb816119d1565b5060208101519167ffffffffffffffff831161016c57808201601f84840101121561016c578282015161121d81611a23565b9161122b60405193846118e4565b818352830160208286860101011161016c576060936020806112519401918501016116bc565b015187610d72565b60405162461bcd60e51b8152602060048201526012602482015271496e76616c696420636f6e666964656e636560701b6044820152606490fd5b506020813d6020116112c6575b816112ad602093836118e4565b8101031261016c576112c1610d3a916119d1565b610d25565b3d91506112a0565b3461016c575f36600319011261016c576112e6611c6a565b5f80546001600160a01b0319811682556001600160a01b03167f8be0079c531659141344cd1fd0a4f28419497f9722a3daafe3b4186f6b6457e08280a3005b3461016c5760208060031936011261016c576080906004355f526007815260405f2054906008815260405f20546005825260405f2054906006835260405f20549260405194855284015260408301526060820152f35b3461016c575f36600319011261016c57602060405160058152f35b3461016c57604036600319011261016c576113af611777565b6004355f52600360205260405f209060018060a01b03165f52602052608060405f2060028101549060038101549060ff6005600483015492015416916040519384526020840152604083015215156060820152f35b3461016c57602036600319011261016c5761141d61178d565b611425611c6a565b600280546001600160a01b0319166001600160a01b0392909216919091179055005b3461016c57602036600319011261016c576004355f526007602052602060405f2054604051908152f35b3461016c57602036600319011261016c576004355f526006602052602060405f2054604051908152f35b3461016c575f36600319011261016c576002546040516001600160a01b039091168152602090f35b3461016c57604036600319011261016c576114dc611777565b6004355f52600360205260405f209060018060a01b03165f52602052602060405f2060ff6005820154169081611518575b506040519015158152f35b6003915001544211158261150d565b3461016c575f36600319011261016c576001546040516001600160a01b039091168152602090f35b3461016c57602036600319011261016c576004355f526004602052602060405f2054604051908152f35b3461016c57602036600319011261016c57600435805f52600360205260405f20335f52602052600560405f2001805460ff8116156115d95760ff191690555f52600760205260405f208054801580156115ce57005b6106ec575f19019055005b60405162461bcd60e51b815260206004820152601660248201527527379030b1ba34bb329039bab139b1b934b83a34b7b760511b6044820152606490fd5b3461016c57611625366116a6565b61162d611906565b50815f52600460205260405f20548110156116715761048f61165d91610825935f52600460205260405f206117d1565b604051918291602083526020830190611702565b60405162461bcd60e51b815260206004820152600d60248201526c092dcecc2d8d2c840d2dcc8caf609b1b6044820152606490fd5b604090600319011261016c576004359060243590565b5f5b8381106116cd5750505f910152565b81810151838201526020016116be565b906020916116f6815180928185528580860191016116bc565b601f01601f1916010190565b6117749160e061174561173361010085518552602086015160208601526040860151908060408701528501906116dd565b606085015184820360608601526116dd565b926080810151608084015260a081015160a084015260c081015160c084015201519060e08184039101526116dd565b90565b602435906001600160a01b038216820361016c57565b600435906001600160a01b038216820361016c57565b9181601f8401121561016c5782359167ffffffffffffffff831161016c576020838186019501011161016c57565b80548210156117ea575f5260205f209060031b01905f90565b634e487b7160e01b5f52603260045260245ffd5b90600182811c9216801561182c575b602083101461181857565b634e487b7160e01b5f52602260045260245ffd5b91607f169161180d565b80545f9392611844826117fe565b918282526020936001916001811690815f146118a8575060011461186a575b5050505050565b90939495505f92919252835f2092845f945b83861061189457505050500101905f80808080611863565b80548587018301529401938590820161187c565b60ff19168685015250505090151560051b010191505f80808080611863565b610100810190811067ffffffffffffffff82111761107d57604052565b90601f8019910116810190811067ffffffffffffffff82111761107d57604052565b60405190611913826118c7565b606060e0835f81525f602082015282604082015282808201525f60808201525f60a08201525f60c08201520152565b90600760e0604051611953816118c7565b6119cd819580548352600181015460208401526040516119818161197a8160028601611836565b03826118e4565b604084015260405161199a8161197a8160038601611836565b606084015260048101546080840152600581015460a0840152600681015460c08401526107866040518096819301611836565b0152565b51906001600160a01b038216820361016c57565b156119ec57565b60405162461bcd60e51b815260206004820152600f60248201526e2737ba1036b7b232b61037bbb732b960891b6044820152606490fd5b67ffffffffffffffff811161107d57601f01601f191660200190565b929192611a4b82611a23565b91611a5960405193846118e4565b82948184528183011161016c578281602093845f960137010152565b601f8211611a8257505050565b5f5260205f20906020601f840160051c83019310611aba575b601f0160051c01905b818110611aaf575050565b5f8155600101611aa4565b9091508190611a9b565b5f1981146106ec5760010190565b908060209392818452848401375f828201840152601f01601f1916010190565b919082039182116106ec57565b9081602091031261016c5751801515810361016c5790565b15611b1e57565b60405162461bcd60e51b815260206004820152600e60248201526d14185e5b595b9d0819985a5b195960921b6044820152606490fd5b919082018092116106ec57565b15611b6857565b60405162461bcd60e51b815260206004820152600f60248201526e151c985b9cd9995c8819985a5b1959608a1b6044820152606490fd5b15611ba657565b60405162461bcd60e51b815260206004820152600e60248201526d125b9d985b1a59081cda59db985b60921b6044820152606490fd5b90611bf490825f52600460205260405f205411611b9f565b5f52600360205260405f209060018060a01b03165f5260205260405f2060ff6005820154169081611c2f575b50611c2a57600190565b600190565b6003915001544211155f611c20565b67ffffffffffffffff811161107d5760051b60200190565b80518210156117ea5760209160051b010190565b5f546001600160a01b03163303611c7d57565b60405163118cdaa760e01b8152336004820152602490fd5b7f9b779b17422d0df92223018b32b4d1fa46e071723d6817e2486d003becc55f006002815414611cc55760029055565b604051633ee5aeb560e01b8152600490fdfea2646970667358221220b81c673e75a6d82cd127b5da69e74020855f3fcffaebbe6bc83dd1defcbcbb0f64736f6c63430008180033","linkReferences":{}},"methodIdentifiers":{"PLATFORM_FEE_PERCENT()":"560d52d4","canAccessSignal(uint256,uint256,address)":"a257c8bf","cancelSubscription(uint256)":"21235083","getLatestSignals(uint256,uint256)":"bfdb668f","getModelStats(uint256)":"65019f2e","getSignal(uint256,uint256)":"1dfee060","getSignalCount(uint256)":"275f0f93","getSubscription(uint256,address)":"5469f0f2","hasActiveSubscription(uint256,address)":"2dbbd883","modelRegistry()":"2ba36f78","modelSignals(uint256,uint256)":"b7b667c8","owner()":"8da5cb5b","paymentToken()":"3013ce29","perSignalPrice(uint256)":"3bbdc530","publishSignal(uint256,string,string,uint256,uint256,uint256,bytes)":"71cc69df","purchaseSignal(uint256,uint256)":"ba77047a","renounceOwnership()":"715018a6","setModelPricing(uint256,uint256,uint256)":"b20d51c3","subscribe(uint256,uint256)":"84370813","subscriptionPrice(uint256)":"f31df341","subscriptions(uint256,address)":"c3379166","totalPlatformFees()":"d3631fa5","totalSignals(uint256)":"7d053604","totalSubscribers(uint256)":"415df962","transferOwnership(address)":"f2fde38b","updatePaymentToken(address)":"4ccf1b34","withdrawPlatformFees()":"d0b7830b"},"id":46}